:020000040800F2
:100000005048002075020008673900086937000869
:1000100065390008E9190008E13D0008000000000A
:100020000000000000000000000000006B39000824
:10003000B51A000800000000693900086D39000891
:100040008F0200088F0200088F0200088F0200084C
:100050008F0200088F0200088F0200088F0200083C
:10006000B71A00088F0200088F0200088F020008EC
:100070008F0200088F0200088F0200088F0200081C
:100080008F0200088F020008B51800088F020008D0
:100090008F0200088F0200088F0200088F020008FC
:1000A000113A0008353A0008293A00081D3A0008BC
:1000B0008F0200088F0200088F0200088F020008DC
:1000C0008F0200088F0200088F0200088F020008CC
:1000D0008F0200088F0200088F0200088F020008BC
:1000E0008F0200088F0200088F0200088F020008AC
:1000F0008F0200088F0200088F0200088F0200089C
:100100008F0200088F0200088F0200088F0200088B
:100110008F0200088F0200088F0200088F0200087B
:10012000ED190008F91900088F0200088F02000875
:100130008F0200088F0200088F0200088F0200085B
:100140008F0200088F0200088F0200088F0200084B
:100150008F020008051A00088F020008D53D00082C
:100160008F0200088F0200088F0200088F0200082B
:100170008F0200088F0200088F02000800000000B4
:100180008F0200088F02000800F002F800F062F809
:100190000AA090E8000C82448344AAF10107DA45E2
:1001A00001D100F057F8AFF2090EBAE80F0013F0D2
:1001B000010F18BFFB1A43F001031847106000003D
:1001C000306000000A4410F8014B14F00F0508BF1E
:1001D00010F8015B240908BF10F8014B6D1E05D013
:1001E00010F8013B6D1E01F8013BF9D1641E03D0EC
:1001F000641E01F8015BFBD19142E4D3704700001B
:100200000023002400250026103A28BF78C1FBD81F
:10021000520728BF30C148BF0B607047662905F000
:10022000B886642900F0FA80002070471FB505F0F9
:10023000A6FE00F061FD04000020002105F06AF830
:10024000401C60600020002105F04EF8E0601FBDFA
:1002500010B510BD00F09CFE1146FFF7E7FF04F05B
:10026000A9FE00F0C8FE03B4FFF7F2FF03BC00F0E4
:100270000BFF00000948804709480047FEE7FEE7FA
:10028000FEE7FEE7FEE7FEE7FEE7FEE7FEE7FEE746
:1002900004480549054A064B70470000013A00082A
:1002A000890100085042002050480020504400209E
:1002B0005044002053EA020C00F069802DE9F04B15
:1002C0004FF00006002B1FBFB3FA83F503FA05F4C5
:1002D00024FA05F65E4012BF1643B2FA82F502FA1E
:1002E00005F4C5F120051EBF22FA05FC44EA0C0402
:1002F000203556EA044C4FEA144418BF641C4FF0F2
:1003000000084FF00009904271EB030C39D300292B
:1003100019BFB1FA81F701FA07F6B0FA80F700FACF
:1003200007F6C7F120071EBF20FA07FC46EA0C06B5
:100330002037B6FBF4FCA7EB0507103F07F01F0BB7
:10034000CBF120060CFA0BFB2CFA06F644BFB346A1
:100350000026202FA4BF5E464FF0000B5BEA060C80
:1003600008BF4FF0010B19EB0B09ABFB027C48EB0C
:100370000608C01B06FB02CC0BFB03CC71EB0C0187
:10038000C1E70B46024641464846BDE8F08B13B52F
:100390004FF000004FF00001AFF30080BDE81C40BB
:1003A000704700000FB41CB5074B06AA7B44694692
:1003B0000090059800F043FC0020694600F052FCD4
:1003C0001CBC5DF814FB0000B508000070B50446C5
:1003D00085690068C10601D5302600E02026C007E7
:1003E00007D070BDD4E9012130469047206A401CF7
:1003F00020626D1EF6D570BD70B504468569007823
:10040000C00707D170BDD4E9012120209047206AA0
:10041000401C20626D1EF6D570BD00002DE9F04134
:100420000646002410687529314616A510D0AFF392
:100430000080002802DA404213A507E031688A07ED
:1004400001D512A502E0490704D511A5012401E058
:10045000AFF3008000210A2206F1240709E0B0FB77
:10046000F2FCB0FBF2F302FB1C003030785418466B
:10047000491C0028F3D123462A463046BDE8F04106
:1004800000F06FB9000000002D0000002B000000FC
:10049000200000002DE9F0474FF0000A894604468D
:1004A000C0F820A02046E1688847002876D025289B
:1004B00006D0D4E901219047206A401C2062F1E770
:1004C000E168204600258847C4F81CA0064600279E
:1004D000C4F818A02A2E09D0304604F0E5FB38B342
:1004E00004EB8708303EC8F8186019E059F8041B7F
:1004F000204604EB87029161E1688847012F064698
:1005000018D1E069002820DA25F020051DE0D8F890
:10051000180000EB800006EB40003038C8F81800E7
:100520002046E1688847064604F0BEFB0028EED16D
:10053000012F0AD02E2E08D12046E16888477F1C63
:100540000646022F45F02005C4DBA069002803DA27
:10055000404245F00105A061E80701D025F01005F3
:10056000B6B1A6F14100192802D8203645F400653D
:100570004A463146204625604D46FFF74FFE58B1AA
:10058000012806D0ED1D25F0070000F1080989E7D4
:1005900004E005F1040985E730468AE7206ABDE8F2
:1005A000F08770B5064600F0CDF804680546304681
:1005B0000A22002100F05BFB2C6070BD40EA0103C1
:1005C000024630B59B0710D14FF0013400E008C25D
:1005D00008C91D1B9D4315EAC41FF8D013F0FF0185
:1005E00002F8011B0DD01B0AF8E711F8013B002BA4
:1005F00002F8013B05D011F8013B002B02F8013B4A
:10060000F3D130BD10B5431C02E010F8011B71B1ED
:100610008107FAD14FF0013202C88C1A8C4314EAD8
:10062000C211F9D0C01A0A0603D0C01E10BDC01AEC
:1006300010BD0A0401D0801E10BD0902FCD0401E6E
:1006400010BD40EA010370B59B072ED14FF0013673
:10065000042A2AD308C810C99D1B9D43121F15EAFE
:10066000C61517D0D8B2E1B2401A50EA056110D1D0
:1006700098B2A1B2401A50EA05410AD123F07F4056
:1006800024F07F41401A50EA052102D1180EA0EB58
:10069000146070BDA342DBD018BA21BA884201D9D8
:1006A000012070BD4FF0FF3070BD0AB9002070BD51
:1006B00010F8013B11F8014B63B1A3420AD1521E5D
:1006C00008D010F8013B11F8014B1BB1A34201D136
:1006D000521EEDD1181B70BD421E12F8013F002BB7
:1006E000FBD111F8013B002B02F8013BF9D1704717
:1006F0004FF0000200B5134694469646203922BFBB
:10070000A0E80C50A0E80C50B1F12001BFF4F7AF05
:10071000090728BFA0E80C5048BF0CC05DF804EBE7
:10072000890028BF40F8042B08BF704748BF20F855
:10073000022B11F0804F18BF00F8012B7047704753
:100740007047704700487047EC41002010B5FFF734
:10075000F9FF006810BD10B50446FFF7F3FF046011
:1007600010BD2DE9F0470D4699469246044600F12A
:1007700024080168880604D5E06921F01001216091
:1007800000E00120A84201DD471B00E00027A1692D
:100790007A1902EB0900081AA0612078C00602D479
:1007A0002046FFF713FE002608E0D4E901211AF8DD
:1007B00006009047206A401C761C20624E45F4DB00
:1007C0002078C0060AD52046FFF700FE06E0D4E9EF
:1007D000012130209047206A401C2062381EA7F17A
:1007E0000107F4DC07E0D4E9012118F8050090477F
:1007F000206A401C2062281EA5F10105F3DC20467A
:10080000FFF7FAFD2078000602D50220BDE8F08748
:100810000120FBE770472DE9FF4F0C461E464FF0C5
:10082000FF378BB0D2E90001DDF860800A908A467C
:10083000C1F30A5505B93D46002108464FF00000B6
:10084000BAF1000F00F4400005DA00EB80004FF42D
:10085000400101EA50004FEA9059B9F1010F00DD63
:10086000B9460A9850EA4A000ED044F61050A5F254
:10087000FF3545432F14B8F1000F1ED07542291ED5
:100880001EDDC9F100021CE0B8F1010F4FF00000BD
:1008900001D0302103E0F24305E02154401CB04276
:1008A000FBDB30460022002121540B99C1F808805F
:1008B000C1E900200FB0BDE8F08FBD1B6D1CDEE765
:1008C0004A4600DA694206A800F0F0FA06AB93E85F
:1008D000070003AB83E8070050460A9900F0DBFBF2
:1008E0008DE80700A0F500501F3800900398002DF8
:1008F0000ADD42F21F014A460844002303A903907F
:10090000684600F044FE09E0A0F500504A461F3852
:10091000002303A90390684600F04EFE8DE807000F
:100920000004000C03D04FF0FF30410800E01046F7
:10093000B8F1000F03D00022009215461EE0751E8C
:1009400005D400F0DDF9303262556D1EF9D5B3469D
:100950000122084302D000227F1C04E020783028C6
:1009600001D100227F1E002A099784D01DE0112D9D
:1009700007DA00F0C5F9303262556D1C50EA010209
:10098000F5D1084302D00098C8B10EE00021681EDE
:1009900005E0235C625C63542254401E491C814282
:1009A000F7DBAB46A81B401E0990002004F80B00A3
:1009B0000B98099AC0F80880C0E9002B7AE7112645
:1009C0004FF0000857E72DE9F04F88460446D21D46
:1009D00022F0070191B0D1E90001CDE90A0103F04D
:1009E00000FA02460B98C00F01D02D2007E02068C6
:1009F000810701D52B2002E0202101EAC000032A53
:100A0000099001D0072A05DB03464146204600F045
:100A1000BDF90BE12078800601D5E06900E00620F1
:100A2000B8F1650F814606D0B8F1660F18D0B8F15D
:100A3000670F70D131E00020B9F1110F009001DB98
:100A4000112301E009F101030AAA01A90CA8FFF78B
:100A5000E2FEDDE90C70002609F10105834647E05E
:100A600001204B4600904FF000470AAA01A90CA8AC
:100A7000FFF7D1FEDDE90DB00C995D46002610B9F7
:100A800009F101000D18B9EB050003D4C0F1FF36E0
:100A900009F10105A5EB09002BE0B9F1010F01DA1D
:100AA0004FF001090020B9F1110F0090484601DD17
:100AB000112300E003460AAA01A90CA8FFF7ABFE28
:100AC000DDE90C704D4600268346207800070AD4E5
:100AD000AB4500DA5D4601A8012D04DD411911F88E
:100AE000011C302907D04F4502DA17F1040F04DA50
:100AF000012082460FE06D1EEEE7002F02DCED1BA9
:100B00003E4403E0781CA84200DD7D1CB81B00F1C8
:100B1000010A4FF000472078000703D4AA4501DB03
:100B20004FF0FF3A0021B7F1004F0DF143088DF867
:100B3000431024D002202B23002F01DA7F422D23E3
:100B40000A21021EA0F1010000DC5FB197FBF1FC5D
:100B500097FBF1F201FB1C7C17460CF1300C08F8F6
:100B600001CDEEE7A8F1010003702188090501D548
:100B7000452100E06521A0F1010800F8011C099859
:100B80000FA9A1EB0807FF1D00B10120411901EBDE
:100B9000EA70A1693844081A401EA0612078C00696
:100BA00002D42046FFF712FC099828B1D4E90121AC
:100BB0009047206A401C20622078C00622D520463B
:100BC000FFF704FC1EE0002E04DBB34502DD01A8A4
:100BD000805D00E03020D4E901219047206A401C6C
:100BE0002062761CAAF101005FEA000A0AD100F037
:100BF00083F8C0680168405CD4E901219047206A0D
:100C0000401C2062281EA5F10105DCDC07E0D4E9C8
:100C1000012118F8010B9047206A401C2062381E01
:100C2000A7F10107F3DC2046FFF7E6FB032011B034
:100C300041E6000001694A1C02610878704700B56E
:100C40008FB0CDE901310021059105497944CDE905
:100C5000031011466846FFF71DFC0FB000BD0000F1
:100C6000E5FFFFFF0A6802F8010B0A6070472DE9F3
:100C7000F04791460F4680460446002614F8015B73
:100C80002DB100F031F80068405DC007F6D12B2D82
:100C900002D02D2D18D0641E4A463946204600F059
:100CA000B5F827B13968A14201D1C7F800804FF0EB
:100CB000020471050BD54042002803DDFFF742FD19
:100CC0000460A007BDE8F08746F48066E4E70028EA
:100CD000F8DAFFF737FD04606FF00040F2E700003C
:100CE00000487047EC41002010B500F005F8001DE9
:100CF00010BD00BF21460000004870470C42002094
:100D000030B5B0F10A024FEA900E71F100034EEADD
:100D1000817EB0EB0E0061EB91014FEA101E4EEAAE
:100D2000017E10EB0E0041EB11114FEA102E4EEA3E
:100D3000016E10EB0E0041EB11214FEA104E4EEA0E
:100D4000014E10EB0E0041EB1141401841F1000142
:100D50004FEAD00040EA41704FEAD10110EB800524
:100D60004FEA810444EA907444EB01046D1944EBAA
:100D70000404521BA3414FF0000348BF0A3200D5C0
:100D800030BD401C41F1000130BD00002DE9F041B3
:100D90001F46044603260168072A01F4006004DBAD
:100DA00008B116A505E016A503E008B115A500E0F9
:100DB00015A521F010002060A069C01EA0610FB130
:100DC000401EA0612046FFF701FB4FB1D4E901218D
:100DD00038469047206A401C2062C01C206206E012
:100DE000206AFAE7D4E9012115F8010B9047761E35
:100DF000F8D22046FFF700FBBDE8F0814E414E00DF
:100E00006E616E00494E4600696E66002DE9F05F26
:100E1000824615468B4600270AF10104B946007840
:100E2000302801D09DB113E014F8010B0127782878
:100E300003D0582801D045B10AE00DB1102D07D1DB
:100E4000002714F8010B102502E0082500E00A2510
:100E50000026B0460EE005FB080005FB06F1012761
:100E60001FFA80F801EB1046B6F5803F00D3B94673
:100E700014F8010B294600F0B0F80028EBDABBF1BA
:100E8000000F05D00FB1641E00E05446CBF80040BF
:100E9000B9F1000F06D0FFF755FC02210160C81E12
:100EA000BDE8F09F48EA0640FAE700002DE9F04768
:100EB000814616468AB0354878440DC88DE80D0045
:100EC00032487844801C03AC0DC884E80D0041F61C
:100ED0009B300844372190FBF1F290FBF1F5A5F12E
:100EE000800501FB12041B3C02D56442012000E096
:100EF0000020DFF898A080460027FA44AAF1BE0A35
:100F00000EE0E0070AD03246684607EB47010123AE
:100F10000AEB810100F050FB8DE8070064107F1C94
:100F2000002CEED1194F7F44AE3F19E0E80715D0F1
:100F300007EB04100DF1180A90E80E008AE80E0085
:100F4000C068F04201D1981908903246012306A9E1
:100F500003A800F031FB03AB83E807006D10641CAD
:100F6000002DE3D14FF0010332466946B8F1000F7E
:100F700003A802D000F00BFB01E000F01DFBC9E963
:100F80000001C9F808200AB0BDE8F087F852000057
:100F90007546FFF7A5FEAE4605006946534620F0AC
:100FA0000700854618B020B5FFF772F9BDE820406C
:100FB0004FF000064FF000074FF000084FF0000B15
:100FC00021F00701AC46ACE8C009ACE8C009ACE8C8
:100FD000C009ACE8C0098D4670473A2800D23038C5
:100FE00020F02002412A01D3A2F13700884201D328
:100FF0004FF0FF30704710B50446AFF30080204635
:10100000BDE81040FFF72FB94FF0013C50F8042B1A
:1010100051F8043B9A4221D1A2EB0C03934313EA0B
:10102000CC1317D150F8042B51F8043B9A4215D138
:10103000A2EB0C03934313EACC130BD150F8042B0F
:1010400051F8043B9A4209D1A2EB0C03934313EAF3
:10105000CC13DBD04FF00000704700BFD01A01BAAC
:10106000B1FA81F101F0180122FA01F0CB40C1F18F
:101070002001DBB2C0B2C01A2CFA01F3D11A91439D
:1010800011EAC311E6D1704701491820ABBEFEE753
:101090002600020070475FEA400C08BF91F0000F85
:1010A0004FEA8C234FEAC12243EA51514FEA1C50C8
:1010B00018BF00F5F0404FEA300018BF41F0004182
:1010C0005FEA6C5C00F02980BCF1FF3F08BF40F094
:1010D00080407047130C06BF12044FF0100C4FF005
:1010E000000C130E04BF12020CF1080C130F04BF06
:1010F00012010CF1040C930F04BF92000CF1020CCE
:10110000D30F04BF52000CF1010C11464FF0000246
:10111000A0F11F00A0EB0C00704711F0004F08BFBA
:10112000704731F000413FF4D5AF0B0C06BF090406
:101130004FF0100C4FF0000C0B0E04BF09020CF125
:10114000080C0B0F04BF09010CF1040C8B0F04BF3A
:1011500089000CF1020CCB0F04BF49000CF1010C0B
:10116000CCF12003A0EB0C0022FA03F302FA0CF2FC
:1011700041EA030100F10100704720F07F4C80EA52
:10118000030023F07F47ACEB070303F57C5300F02B
:10119000004003F1FF032DE980494FEA154B09B4E4
:1011A0004FEA144325EA0B4E24EA03480FF20426C3
:1011B00006EB132749083E785FEA320203FB066715
:1011C000C7F5000707FB06F64FEA54374FEAD64645
:1011D00006F1020607FB066CCCF1005C4FEA1C47E7
:1011E0002CEA074C07FB06F40CFB06F504EB15464E
:1011F0004FEA961634BF00204FF000404FEAD13737
:1012000006FB07FC4FEA1C4C0CFB0BF7D21B03FB45
:101210000CF761EB07010CFB0EF7B0EB074072EB2C
:1012200017420CFB08F734BFA2EB0742B2EB0742B0
:1012300061EB17414FEA0C444FEA910706FB07FCAC
:101240004FEA1C4C0CFB0BF7B0EBC74072EB57326C
:1012500003FB0CF734BFA2EBC742B2EBC74261EB12
:1012600057310CFB0EF7B0EBC70072EB57720CFB5B
:1012700008F734BFA2EBC702B2EBC70261EB5771AC
:10128000039F4FEA816141EA921104EBCC044FEADB
:10129000D1374FEA826206FB07FC42EA90124FEA1E
:1012A00080604FEA1C4C0CFB0BF7D21B03FB0CF7C6
:1012B00061EB07010CFB0EF7B0EB074072EB174236
:1012C0000CFB08F734BFA2EB0742B2EB074261EB1D
:1012D00017414FEA8C554FEA910704EB9C2406FB1B
:1012E00007FC4FEA1C4C0CFB0BF7B0EBC74072EB52
:1012F000573203FB0CF734BFA2EBC742B2EBC74235
:1013000061EB57310CFB0EF7B0EBC70072EB577275
:101310000CFB08F734BFA2EBC702B2EBC70261EBCC
:10132000577115EB4C254FEA816141EA92114FEA62
:1013300082624FEAD13742EA901206FB07FC44F181
:1013400000044FEA80604FEA1C4C0CFB0BF7D21BE9
:1013500003FB0CF761EB07010CFB0EF7B0EB07404A
:1013600072EB17420CFB08F734BFA2EB0742B2EB5B
:10137000074261EB174115EB1C154FEA813141EA39
:1013800092414FEA823242EA90424FEA80304FEA7D
:101390000C7644F1000448EA03434EEA0B484FF050
:1013A000000EB2EB080C71EB030724BF624639460E
:1013B0004EEB0E0E4FF0000B0018524149414BEB23
:1013C0000B0BB2EB080C71EB03077BF1000B24BF96
:1013D000624639464EEB0E0E4FF0000B001852419C
:1013E00049414BEB0B0BB2EB080C71EB03077BF1A4
:1013F000000B24BF624639464EEB0E0E51EA02073F
:1014000018BF46F0010616EB0E7655F1000254F1B6
:10141000000103D5BDE88901BDE80088BDE8890168
:10142000BDE80048B619524141EB0101A3F10103A7
:10143000704780807F7E7D7C7B7A79787776767541
:101440007473727171706F6E6E6D6C6C6B6A6A69B9
:101450006868676666656464636362616160605F53
:101460005F5E5E5D5D5C5C5B5B5A5A5959585857CC
:101470005756565555555454535352525251515034
:1014800050504F4F4F4E4E4D4D4D4C4C4C4B4B4B87
:101490004A4A4A49494948484847474747464646CD
:1014A0004545454444444443434343424242424108
:1014B0004141002B9C4630D477002BD01CB54FEA1D
:1014C000370703B44FF010004FF01001BAF1000FCE
:1014D00006D0BCF1000FDCBF40F0080040F008016E
:1014E0004FF000000FBCBDE810400BF1010BBBF149
:1014F000010F08BF5FEA170722BF12F1010211F1C5
:1015000001014FF0004143F1000300F0004043EAC5
:1015100000007047F9D35708D0E746EA064613F1B2
:10152000400F4FEA16461FDD13F1200FDFBF1643B1
:101530000A46002120335B42BED0C3F1200746EAB1
:10154000064602FA07F74FEA164646EA0706C3F1CF
:10155000200722FA03F201FA07F721FA03F14FF00C
:10156000000342EA0702A7E746EA020646EA064601
:101570004FEA164646EA0106BCBF46EA0646360C66
:101580004FF000034FF000024FF0000194E72DE907
:10159000804C9A46934670B491E8380007C831EA07
:1015A000400C48BF34EA430C03D5FFF7E6FDFFF7D4
:1015B00080FFF0BCBDE8008C2DE9804C9A46934634
:1015C00070B491E8380007C810F0804F08BF13F0DE
:1015D000804F03D100F005F8FFF76BFFF0BCBDE8CA
:1015E000008C20F07F4780EA030023F07F4C07EB5C
:1015F0000C03A3F57C5300F00040A3F1FE0392F02E
:10160000000F00F0B38095F0000F00F077802DE917
:1016100001494FEA11404FEA144621EA004800FB15
:1016200006FC24EA064708FB06F607FB08F800FB61
:1016300007F718EB06484CEB164C4FEA124B18EB29
:1016400007484FEA15464CEB174022EA0B4E0BFBBE
:1016500006FC25EA06470EFB06F607FB0EFE0BFB13
:1016600007F71EEB064E4CEB164C4FF000061EEB38
:10167000074E4CEB174B18EB0B0840F1000018EB32
:101680000E0B58EB000840F100008F1A4FF00001DC
:101690003CBFC943661B14BFB5EB040C00213CBF23
:1016A000C943F61B4FEA17444EEA8E0E27EA04455B
:1016B0004FEA1C4704FB07622CEA074C05FB07F7BF
:1016C0000CFB05F604FB0CFC16EB074642EB17423D
:1016D00016EB0C4642EB1C421BEB060658EB0202D3
:1016E000414146EA9E0601D5BDE80189B61952413D
:1016F00041EB0101A3F10103BDE801894FEA144563
:101700004FEA114724EA054621EA074C05FB07F496
:1017100006FB07F70CFB06F105FB0CFC11EB074180
:1017200044EB17444FEA124711EB0C4144EB1C44C5
:1017300022EA074C05FB07F206FB07F70CFB06F64F
:1017400005FB0CFC16EB074642EB174216EB0C466A
:1017500042EB1C456A1854F1000148BF7047B619A6
:10176000524141EB0101A3F10103704795F0000FD5
:1017700037D04FEA11424FEA144721EA024624EAE1
:10178000074C02FB07F106FB07F70CFB06F402FB14
:101790000CFC14EB074441EB17414FEA154714EBDF
:1017A0000C4441EB1C4125EA074C02FB07F506FB04
:1017B00007F70CFB06F602FB0CFC16EB074645EBA5
:1017C000174516EB0C4645EB1C42121951F100016E
:1017D00048BF7047B619524141EB0101A3F1010323
:1017E00070474FEA14454FEA114724EA054621EABB
:1017F000074C05FB07F106FB07F70CFB06F24FF061
:10180000000605FB0CFC12EB074241EB174112EB03
:101810000C4251EB1C4148BF7047921841EB01014B
:10182000A3F10103704710B50146806B026C12F002
:10183000500F05D0026CD20626D500F0EBF910BD92
:10184000016C41F40071016401688A6812F0405F24
:1018500017D1027EAAB9CA6A12F4700F02D08A6840
:1018600052050ED44A6822F020024A60016C21F42D
:1018700080710164016CC90403D4016C41F0010161
:10188000016400F0C5F910BD806BC26CBDE810406A
:101890000846104710B5806B40210164416C41F04F
:1018A0000401416400F0B6F910BD10B5806B00F082
:1018B000B0F910BD014800F0AEB90000F83F0020BB
:1018C000464910B54A6822F440324A604A68436883
:1018D0001A434A6001684A6822F480724A600168CB
:1018E0004A68036942EA03224A6001684A6822F0B2
:1018F00040724A6001684A6883681A434A60016816
:101900008A6822F400628A6001688A68C3681A43A0
:101910008A60816A6FF07062D14201688A6822F041
:1019200070628A6001688A680CD0836A1A438A6090
:1019300001688A6822F040528A6001688A68C36A36
:101940001A4301E022F040528A6001688A6822F05E
:1019500002028A6001688A68037E42EA43028A6062
:1019600090F82010002901684A680FD042F4006204
:101970004A6001684A6822F460424A6001684A6825
:10198000174C436A04EB43331A4301E022F400622C
:101990004A600168CA6A22F47002CA620168CA6AAF
:1019A000838B104C04EB03531A43CA6201688A68A4
:1019B00022F400728A6001688A6890F8303042EA46
:1019C00043228A6001688A6822F480628A60016822
:1019D0008A68406942EA8020886010BD0023014087
:1019E00000E0FFFF0000F0FFFEE70000014800F00C
:1019F00035BB0000CC400020014800F02FBB0000A8
:101A00002C410020014800F029BB00008C4100203F
:101A100001681823CAB2103AB2FBF3F2054B6FF318
:101A20000901032A9B5CC36500D9091D816508462D
:101A3000704700008660000810B5014600208B69E1
:101A40008A6A4FF0C07453B1B3F5005F15D072B11C
:101A5000012A0CD0022A0AD0032A09D104E01AB1C3
:101A6000012A06D0022A03D1C96AC90100D5012082
:101A700010BDC96AA142FAD010BD002AF7D0012AD0
:101A8000F2D0022AF3D0032AF3D010BD30B5046897
:101A9000256825F480252560046863608368402BF1
:101AA000036803D099600068C26030BD9A60006826
:101AB000C16030BD7047042000F06ABC72B6FEE71A
:101AC0007047000078B50024009490F83C20012A6B
:101AD00019D0012280F83C200A6807230568092AEA
:101AE00013D9EE680A3A02EB420293409E43EE603D
:101AF0000B788A680A3B03EB43039A400368DD686E
:101B00002A43DA6010E0022078BD2E6902EB42021F
:101B100093409E432E610B788A6803EB43039A40FF
:101B200003681D692A431A614A681F23072A13D2D2
:101B300005686E6B521E02EB820293409E436E63F9
:101B40000B790A885B1E92B203EB83039A40036809
:101B50005D6B2A435A6327E005680D2A12D22E6B6B
:101B6000D21F02EB820293409E432E630B790A88B8
:101B7000DB1F92B203EB83039A4003681D6B2A4379
:101B80001A6311E0EE6A0D3A02EB820293409E4323
:101B9000EE620B790A880D3B92B203EB83039A4005
:101BA0000368DD6A2A43DA62164B0568144A9D42CF
:101BB00006D10D68122D03D1556845F48005556096
:101BC00005689D4218D10B68102B01D0112B13D141
:101BD000536843F400035360096810290CD10A4983
:101BE0000A4A0968B1FBF2F101EB8101490000E00A
:101BF000491E00910029FBD180F83C40002078BDAF
:101C000000230140002001405001002040420F000D
:101C100070477047704770B50446006801684268B5
:101C2000C1F34001C2F3401251B34AB3216CC9065B
:101C300003D4216C41F400712164816811F0405F8C
:101C400017D1217EA9B9C16A11F4700F02D0816841
:101C500049050ED4416821F020014160206C20F438
:101C600080702064206CC00403D4206C40F001001C
:101C700020642046FFF7CCFF21686FF01200086057
:101C8000206801684268C1F38001C2F3C01289B3C1
:101C900082B3216CC90603D4216C41F40051216444
:101CA000816811F4401F1ED1816B11F4401F02D0D6
:101CB0008168490517D44168490514D4816811F039
:101CC000405F10D1217E71B9416821F080014160EF
:101CD000206C20F480502064206CC00503D4206C5C
:101CE00040F0010020642046FFF7EAFE21686FF013
:101CF0000C00086020680168426811F0010FC2F30F
:101D000080120ED06AB10068C0070AD0206C40F47F
:101D100080302064204600F046F821686FF0010012
:101D20000860206801684268C1F34011C2F3806214
:101D300000290DD0002A0BD0616C41F002016164D2
:101D40006FF0200505602046FFF764FF20680560FE
:101D500070BD70B504004FF0000503D0206C002664
:101D600010B107E0012070BD204600F01DF8666448
:101D700084F83C60206CC00610D4206C20F488509D
:101D800040F0020020642046FFF79AFD6664206C54
:101D900020F0020040F00100206400E0012584F8FA
:101DA0003C60284670BD704770B586B00646142169
:101DB0006846FEF79DFC2149306888423BD12048A7
:101DC0000025016841F480710160006800F48070B2
:101DD00005901B481438016841F00101016000685A
:101DE000694600F00100059003200090CDE901054F
:101DF000144800F0D9FA154C1348C4E90005001541
:101E0000A560C4E90350400060618000A0614011FA
:101E1000C4E907052046656200F0F0F908B1FFF754
:101E20004DFEB463002211461220A66300F034FC7C
:101E3000122000F023FC06B070BD0000002001401D
:101E4000443802400000024010640240CC400020B0
:101E5000F8B5044600200E46009094F83C10012985
:101E600007D0012184F83C1021688B68DB0702D081
:101E700011E00220F8BD8B6843F001038B604049FC
:101E8000404B0968B1FBF3F101EB410100E0491E51
:101E900000910029FBD121688B68DB0503D58B6895
:101EA00023F480738B6021688B68DB075DD0236C23
:101EB00040F20165AB4343F48073236449684905EC
:101EC00005D5216C21F4005141F480512164216C2D
:101ED000C90404D5616C21F00601616400E060640E
:101EE00084F83C00A16B2948274DC863A16B2848A2
:101EF0000864A16B2748C86421686FF0220008605D
:101F00002068416841F0806141602068816841F447
:101F1000807181602168134632464C31A06B00F01D
:101F2000D7F968681C49C006206806D0884224D1C9
:101F3000816811F0405F13D01FE08842F8D0174A43
:101F4000904203D1D1F80423D206F1D0144A904232
:101F500013D1D1F8041301F01F011029E8D30CE0CC
:101F6000816841F08041816007E0206C40F0100002
:101F70002064606C40F0010060640020F8BD000047
:101F80005001002040420F000023014027180008A4
:101F9000AB180008951800080020014000210140FE
:101FA000002201402DE9F0410446876D00F006FB58
:101FB000064694F835000025022806D0802060658A
:101FC00084F834500120BDE8F0812068016821F0D8
:101FD000160101602068416921F080014161206C97
:101FE00008B9A06C20B12068016821F008010160E7
:101FF0002068016821F0010101600CE000F0DEFAC8
:10200000801B052807D920206065032084F835004F
:1020100084F83450D7E720680068C007EED194F800
:102020005C103F208840B860012084F8350084F8B7
:1020300034500020C7E790F83510022903D08021E2
:10204000416501207047052180F83510006801685E
:1020500021F0010101600020704700002DE9F843E4
:1020600004464FF00009CDF8009063484FF4165134
:10207000A56D0068B0FBF1F72E6894F85C1008209D
:1020800000FA01F131420FD021680A6852070BD5DE
:102090000A6822F004020A6094F85C108840A86084
:1020A000606D40F00100606594F85C104FF001082D
:1020B00008FA01F0304208D021684969090604D5C0
:1020C000A860606D40F00200606594F85C10042028
:1020D0008840304208D021680968890704D5A86083
:1020E000606D40F00400606594F85C10102088403A
:1020F000304218D021680968090714D5A860206803
:102100000168490304D50068000308D5A16C07E005
:102110000168C90503D4016821F008010160216C40
:1021200009B12046884794F85C102020884030424E
:1021300031D021680968C9062DD5A86094F835000A
:1021400005282068016806D0490347D500680003C8
:102150001DD4616C1CE021F016010160206841690A
:1021600021F080014161206C08B9A06C20B1206889
:10217000016821F00801016094F85C103F2088405C
:10218000A86084F8358084F83490216D1FE0E16BFD
:1021900009B120468847606D00282BD0606DC007CC
:1021A00014D0052084F835002068016821F0010171
:1021B00001600098401C0090B84203D82068006875
:1021C000C007F6D184F8358084F83490E16C00299A
:1021D00010D001B02046BDE8F04308470168C905AA
:1021E000D5D4016821F01001016084F8358084F8AD
:1021F0003490CCE7BDE8F883500100202DE9F04190
:10220000044600F0DBF906465CB1022084F8350094
:10221000002584F834502068016821F00101016034
:102220000DE00120BDE8F08100F0C8F9801B052811
:1022300005D920206065032084F83500F2E7206886
:102240000068C007F0D12268116820480140D4E935
:1022500001031843D4E90336334318436369184331
:10226000A3691843E3691843236A18430843616A62
:10227000042903D1D4E90B131943084310602068E3
:102280004069666A20F0070130460E4301270428A2
:102290000CD1A06A0643E06A40B12046FFF7CCFBB0
:1022A00020B14020606584F83570BAE72068466147
:1022B0002046FFF7ADFB94F85C203F219140816000
:1022C000656584F835700020ACE700003F8010F0B1
:1022D0002DE9F0410446866D90F834000025012870
:1022E0000DD0012084F8340094F835700020012FBF
:1022F00007D084F8340002252846BDE8F08102208A
:10230000FBE7022784F8357060652046FFF7BEFBC7
:1023100094F85C103F208840B0602068016841F06C
:1023200016010160206C20B12068016841F00801AD
:1023300001602068016841F001010160DCE70000F4
:1023400070B5044600F03AF90546601C02D0044816
:102350000078044400F032F9401BA042FAD370BD6B
:102360004401002010B5084C0421204600F014F967
:10237000012807D100220821204600F01AF903495C
:102380000120C86110BD00000000024000000020D4
:10239000044910B50A68024202D00860FFF7E2FF64
:1023A00010BD0000143C01402DE9F84FDFF8BCA13E
:1023B000002201250AF1040B03264FF00F090BF14F
:1023C000040E00BF0B6805FA02F42340A34270D14B
:1023D0000F7907F00307012F01D0022F16D187686C
:1023E0004FEA420806FA08FC27EA0C07D1F80CC0AD
:1023F0000CFA08FC4CEA070CC0F808C04768A74371
:102400000C79C4F3001494403C4344600C79E443D9
:10241000A4070AD0C4684FEA420C06FA0CF7BC4382
:102420008F6807FA0CF72743C7600C7904F00304A0
:10243000022C12D1D40800EB840CDCF820405707A2
:10244000FF0E09FA07F824EA0804D1F8108008FA08
:1024500007F848EA0408CCF8208004684FEA420CE8
:1024600006FA0CF7BC430F7907F0030707FA0CF7DD
:10247000274307604C6814F4403F70D03C4C2768F9
:1024800047F480472760246822F0030704F480445F
:102490000094384C07EB040CDCF8084897074FEA27
:1024A000177809FA08F7BC43334FB84202D1002726
:1024B00024E054E0314FB84201D101271EE0304FF3
:1024C000B84201D1022719E02E4FB84201D10327AB
:1024D00014E02D4FB84201D104270FE02B4FB84232
:1024E00001D105270AE02A4FB84201D1062705E0AD
:1024F000284FB84201D1072700E0082707FA08F75C
:102500002743CCF80878DAF800405746D1F804C0E1
:102510009C435FEACC3C00D51C433C60DBF80040A8
:102520005F46D1F804C09C435FEA8C3C00D51C4355
:102530003C60DEF800407746D1F804C09C435FEA77
:10254000CC2C00D51C433C60084F0C373C68D1F8BC
:1025500004C09C435FEA8C2C00D51C433C60521C99
:10256000102AFFF42FAFBDE8F88F0000003C0140B7
:1025700044380240003001400000024000040240A4
:1025800000080240000C024000100240001402400B
:1025900000180240001C02400069084000D00120E1
:1025A0007047426921EA02030A4043EA024181611D
:1025B00070470AB1816170470904FBE701488068F0
:1025C00070470000440100200248816802781144ED
:1025D00081607047440100200B4810B5016841F448
:1025E00000710160016841F480610160016841F49B
:1025F00080710160032000F06FF80F2000F006F8F2
:1026000000F024F8002010BD003C024070B50D4DD4
:1026100004464FF47A712878B1FBF0F00A49096852
:10262000B1FBF0F000F00CFB48B9102C07D20022EF
:102630002146501E00F030F800206C6070BD012073
:1026400070BD000044010020500100200A4808B578
:10265000016841F480410160006800F4804000900E
:102660000548001F016841F080510160006800F0DA
:102670008050009008BD000044380240002809DB6B
:1026800000F01F02012191404009800000F1E0208C
:10269000C0F8001170470000F0B40E4B1B680C46E8
:1026A000C3F30223C3F10705042D00D90425191D26
:1026B000072901D2002300E0DB1E012606FA05F1FE
:1026C000491E214099409E40761E16403143F0BC81
:1026D00001F09FBB0CED00E0064900F0070208681E
:1026E0004FF6FF03184040EA0220034A10430860F7
:1026F000704700000CED00E00000FA052DE9F047FE
:102700000E46050065D0DFF81481D8F80000F7B256
:1027100000F00700B04207D288F80070D8F8000037
:1027200000F00700B04254D128683D4C810712D513
:10273000400703D5206840F4E05020602878000767
:1027400003D5206840F4604020602068A96820F02C
:10275000F000084320602878C0072DD03049686811
:102760000839012812D0022813D0032811D0096893
:10277000890700292DDA216821F003010143216036
:10278000FFF71CFF814641F2883A0EE00968890391
:10279000EFE709688901ECE7FFF710FFA0EB0901FB
:1027A000514502D90320BDE8F0872068696800F030
:1027B0000C00B0EB810FEFD1D8F80010404601F0CB
:1027C0000701B14207D90770006800F00700B04266
:1027D00001D00120E7E72878400705D52068E9689F
:1027E00020F4E050084320602878000706D52068D0
:1027F000296920F4604040EAC100206000F038F808
:102800002168084AC1F30311515CC84006490860B9
:1028100006480068FFF7FAFE0020C4E7003C0240CB
:10282000083802408E600008500100204801002056
:102830000448054900680968044AC1F38221515CD3
:10284000C840704750010020083802409E600008D0
:102850000448054900680968044AC1F34231515CE3
:10286000C840704750010020083802409E600008B0
:10287000154810B5006810F00C02144813D0144924
:10288000042A0FD0082A0ED10F4C241F2268236877
:1028900002F03F025B0207D52068C0F38810A0FB5E
:1028A000010106E0084610BD2168C1F38811A1FBB3
:1028B00000010023FDF7FEFC2168C1F30141491C22
:1028C0004900B0FBF1F010BD083802400024F400CC
:1028D00040787D012DE9F84F04006ED02078DFF8B4
:1028E0004C93C007A9F104054AD009F1040001681E
:1028F000C1F38101012908D00068C0F381000228DA
:102900000AD1D9F80000400206D52868800337D5DF
:1029100060680028E1D033E06068B0F5803F10D0F7
:10292000B0F5A02F286810D020F4803028602868E7
:1029300020F4802028606068A8B1FFF73FFE0646BB
:102940000DE0286840F48030F4E740F480202860EF
:10295000F7E700BFFFF732FE801B642873D82868B2
:102960008003F7D50CE0FFF729FE064605E000BF1F
:10297000FFF724FE801B6428F0D828688003F7D472
:102980002078DFF8AC8280074FF0000A3ED5A748D8
:10299000001D016811F00C0F08D00068C0F3810021
:1029A00002280BD1D9F80000400207D4286880071C
:1029B00016D5E068012800D112E033E1E068B8B133
:1029C0000120C8F80000FFF7F9FD064605E000BF4A
:1029D000FFF7F4FD801B0228C0D828688007F7D5D0
:1029E0002868216920F0F80040EAC10028600DE065
:1029F000C8F800A0FFF7E2FD064604E0FFF7DEFDA1
:102A0000801B02281FD828688007F7D42078000789
:102A100022D5864F87486169703771B10121016005
:102A2000FFF7CCFD064604E0FFF7C8FD801B022837
:102A300009D838688007F7D50EE0C0F800A0FFF786
:102A4000BDFD064605E082E0FFF7B8FD801B0228C9
:102A50007DD838688007F7D42078400768D5DFF83C
:102A6000CCB100270BF13C0BDBF80000C0000BD40D
:102A7000DBF8001041F08051CBF80010DBF80000CB
:102A8000012700F0805000906B4E3068C00510D4D4
:102A9000306840F480703060FFF790FD009005E0F2
:102AA000FFF78CFD0099401A022850D83068C00505
:102AB000F6D55E4EA0686C3601280FD00528306828
:102AC00010D020F001003060306820F00400306049
:102AD000A068B8B1FFF772FD00900FE0306840F0D9
:102AE0000100F4E740F004003060F7E7FFF766FD0F
:102AF0000099411A41F28830814266D830688007D7
:102B0000F4D50EE0FFF75AFD009007E0FFF756FD01
:102B10000099411A41F28830814256D830688007C6
:102B2000F4D42FB1DBF8001021F08051CBF8001065
:102B3000A069C8B33D49091D0968C1F38101022993
:102B40004AD00228504607D0C8F8600000E03CE0B8
:102B5000FFF734FD04463BE04746C8F86000FFF746
:102B60002DFD064605E000BFFFF728FD801B02286B
:102B70002BD828688001F7D4D4E907010843A16A5B
:102B80002E4A490802EB0141626A41EA8211084378
:102B900094F82C1040EA0161C9F800100120386651
:102BA000FFF70CFD044606E03EE000BFFFF706FD20
:102BB000001B022809D828688001F7D534E000BF3F
:102BC000FFF7FCFC001B022802D90320BDE8F88FA8
:102BD00028688001F4D427E00128F7D0D9F8000054
:102BE000E26900F4800191421CD1226A00F03F01A9
:102BF000914217D147F6C071626A0140B1EB821F62
:102C000010D1A26A4FF0FF3300F4403103EB5202BF
:102C1000B1EB024F06D194F82C1000F07060B0EBCD
:102C2000016F01D00120D1E70020CFE70438024036
:102C300000004742800E4742007000400000FFFF46
:102C400010B5401EB0F1807F01D3012010BD4FF0C0
:102C5000E02460610F21601701F0DBF80020A06123
:102C600007202061002010BD7047704770B590F8B4
:102C70003C20012A32D0012480F83C40022280F816
:102C80003D2003685A689D6822F070060A68324346
:102C90005A60134B02689A4214D0B2F1804F11D09F
:102CA000104B9A420ED0104B9A420BD00F4B9A42C7
:102CB00008D00F4B9A4205D00E4B9A4202D00E4BD1
:102CC0009A4204D1496825F080031943916080F845
:102CD0003D40002180F83C10084670BD022070BDC8
:102CE000000001400004004000080040000C0040CB
:102CF00000040140004001400018004010B50400ED
:102D000003D094F83D0010B107E0012010BD002071
:102D100084F83C00204600F01FF8022084F83D00B3
:102D2000211D206800F08CFE012084F8460084F804
:102D30003E0084F83F0084F8400084F8410084F8A5
:102D4000420084F8430084F8440084F8450084F885
:102D50003D00002010BD000008B5006817498842FA
:102D60002AD11748016841F0010101600068002282
:102D700000F00100009011461820FFF78DFC18208C
:102D8000FFF77CFC002211461920FFF785FC192073
:102D9000FFF774FC002211461A20FFF77DFC1A2071
:102DA000FFF76CFC002211461B20FFF775FCBDE805
:102DB00008401B20FFF762BC08BD00000000014076
:102DC0004438024090F83D10012901D0012070479D
:102DD000022180F83D100168CA6842F00102CA6011
:102DE00000681149884214D0B0F1804F11D00F49CA
:102DF00088420ED00E4988420BD00E49884208D036
:102E00000D49884205D00D49884202D00C498842BC
:102E100004D1816801F00701062903D0016841F05F
:102E200001010160002070470000014000040040E3
:102E300000080040000C0040000401400040014038
:102E40000018004070B5044690F83C0000250128A9
:102E500017D0012684F83C60022084F83D002068E9
:102E6000826822F0770222F47F428260086850284C
:102E700038D00DDC20284FD005DC90B3102811D1BC
:102E80004AE0022070BD302846D040280AD13BE0FD
:102E900060282FD070280DD0B0F5805F03D0B0F53A
:102EA000005F12D0012584F83D60002084F83C00CA
:102EB000284670BDCB68D1E90121206800F024FECE
:102EC0002068816841F0770109E0CB68D1E90121F0
:102ED000206800F019FE2068816841F4804181601B
:102EE000E1E719E0CA684968206800F01FFE502138
:102EF000206806E0CA684968206800F028FE602162
:102F0000206800F00BFECEE7CA684968206800F030
:102F10000DFE40212068F4E7226801461046F0E7E4
:102F2000704770B50446006801694FF00005C94359
:102F3000890715D4C168C943890711D4E91E016105
:102F400001202077206880698007204602D0FFF7A3
:102F5000E7FF04E000F098F8204600F096F82577A7
:102F600020680169C943490717D4C168C9434907A3
:102F700013D46FF00401016102202077206880697A
:102F800010F4407F204602D0FFF7CAFF04E000F0B3
:102F90007BF8204600F079F8257720680169C9435D
:102FA000090716D4C168C943090712D46FF0080194
:102FB0000161042020772068C0698007204602D084
:102FC000FFF7AEFF04E000F05FF8204600F05DF888
:102FD000257720680169C943C90617D4C168C94368
:102FE000C90613D46FF01001016108202077206812
:102FF000C06910F4407F204602D0FFF791FF04E043
:1030000000F042F8204600F040F82577206801697A
:10301000C943C90708D1C168C943C90704D1891E7A
:103020000161204600F032F820680169C9430906B1
:1030300009D4C168C943090605D46FF08001016154
:103040002046FFF711FE20680169C943490609D4EB
:10305000C168C943490605D46FF0400101612046AB
:1030600000F024F920680169C94389060BD4C168BE
:10307000C943890607D46FF0200101612046BDE8ED
:103080007040FFF7F2BD70BD704770472DE9F04109
:1030900071492DED048B88427DD1704C40F2145063
:1030A0002061206A401C2062E068401CE060E16909
:1030B000012902D1A168491CA16069490025884203
:1030C00010D366486830FDF79DFA82B263496248C2
:1030D0006831483000F028FB4FF480516148FFF719
:1030E00060FAE5602169A068884206D301220821C0
:1030F0005D48E561FFF75DFAA560206AC8284ADBF4
:10310000DFF8588108F12408B8F80000A0F2F16057
:1031100002F068FB41EC180B08F11C0008F11407E1
:1031200080ED008B5148616897ED001B00EBC106F4
:1031300051EC110B96ED000B53EC102B02F0C4FD7B
:1031400041EC190B53EC182B51EC180B02F0B0FBAF
:1031500041EC100B51EC190B86ED000B53EC102BCE
:1031600002F02CF941EC100B87ED000B9FED408B2A
:1031700053EC182B02F0DEF941EC100B01F084FC4B
:10318000A7F108009FED3C1B80ED000B53EC112BC9
:1031900051EC100B00E05AE002F08AFB9FED381B67
:1031A00053EC112B02F00AF9A7F11002C2E9000159
:1031B000B8F8020002F02DFB41EC100B07F12800DB
:1031C000A0F1080680ED000B96ED001B53EC102BD0
:1031D00051EC110B02F0F2F841EC100B86ED000BF4
:1031E0006068401C6060B0F57A7F2FDB53EC182BD1
:1031F00051EC100B656002F09DF941EC100BA6F14B
:1032000008009FED211B80ED000B53EC112B51ECBE
:10321000100B02F08FF99FED1E1B53EC112B02F0E7
:1032200047FB41EC100B1C489FED1C1B80ED000B75
:1032300053EC112B51EC100B02F03AFBA6F11002EB
:103240009FED180BC2E9000186ED000B2562BDEC75
:10325000048BBDE8F0810000404000200000002009
:10326000400D0300000C0240000002405801002005
:103270000000000000408F40992A1895D409D43FDF
:10328000C217265305A3C23F0000000000FCAF4058
:10329000000000000000084098200020000000000E
:1032A0000000594000000000000000007047704717
:1032B00070470000F8B5016804460868CA684B69A1
:1032C00010F00F0F4FF0000559D003F0010602F483
:1032D0009077374365D0C10705D0D10503D5216C60
:1032E00041F001012164410705D5D90703D0216CC4
:1032F00041F002012164810705D5D90703D0216C73
:1033000041F004012164010707D502F02001314397
:1033100003D0216C41F008012164216C00293AD0CE
:10332000800604D5900602D5204600F051FC2068A6
:103330004069216CC0F38010090700D460B32046B7
:1033400000F01FFC20684069400621D52068143039
:1033500050E8001F21F0400140E80012002AF5D19A
:10336000A06BA8B16C490165A06BFEF764FE002854
:1033700011D0A06B016D01B0BDE8F0400847830695
:103380000FD593060DD52046BDE8F84000F020BCCF
:103390002046FFF78DFFF8BD2046FFF789FF256423
:1033A000F8BD266B2023012E79D1C60677D5D60627
:1033B00075D50868486800904869400640D5A16BFB
:1033C000086840680004000CEAD0A28D8242E7D968
:1033D000E085C869B0F5807F2DD020680C3050E8BA
:1033E000001F21F4807140E80012002AF5D1206806
:1033F000143050E8001F21F0010140E80012002ABB
:10340000F5D12068143050E8001F21F0400140E859
:103410000012002AF5D184F83E30256320680C3074
:1034200050E8001F21F0100140E80012002AF5D1F9
:10343000A06BFEF7B7FDA08DE18D401A81B229E0A7
:10344000A08DE18D401A81B2E08D0028A8D000291E
:10345000A6D020680C3050E8002F22F4907240E88B
:103460000026002EF5D12068143050E8002F22F0FD
:10347000010240E80026002EF5D184F83E30256395
:1034800020680C3050E8002F22F0100240E80023A2
:10349000002BF5D12046FFF70AFFF8BDFFE7050630
:1034A0002BD5150629D594F83D002128F5D1A06823
:1034B000B0F5805F01D12069B0B1206A411C216262
:1034C000216800784860E08C401E0004000CE08415
:1034D000E3D12068C16821F08001C1602068C16823
:1034E00041F04001C160D8E7206A0088C0F30800BD
:1034F0004860206A801C2062E5E74006CDD5500672
:10350000CBD5CA68204622F04002CA6084F83D301C
:1035100000F029F9C1E70000733B000870B5040012
:1035200004D094F83D00002510B106E0012070BDE4
:1035300084F83C50204600F023F8242084F83D0015
:103540002068C16821F40051C160204600F0A0FB52
:103550002068016921F4904101612068416921F0EE
:103560002A0141612068C16841F40051C1602564AD
:10357000202084F83D0084F83E00002070BD00004B
:103580002DE9F04186B0064614216846FDF7B0F8F3
:103590002F493068884257D12E480024016841F0F5
:1035A00020010160006800F02000059029481438CF
:1035B000016841F0040101600068694600F0040000
:1035C0000590C02000900220CDE901040320039063
:1035D000082004902048FEF7E7FE214D1F484FF4D5
:1035E000806887052860C5E90174C5E903486C61F6
:1035F0004FF44030AC61C5E9074028466C62FEF7E5
:10360000FDFD08B1FEF75AFAB563AE631348154DD8
:103610007830E5E802074020A5E81101114845F897
:103620001449AC61EC612C626C62FEF7E7FD08B1F5
:10363000FEF744FA7563002211464720AE63FFF798
:103640002BF84720FFF71AF806B0BDE8F08100001C
:10365000001401404438024000080240286402403F
:103660002C4100208C41002090F83E30202B0ED1C0
:1036700059B152B190F83C30012B08D0012380F8A9
:103680003C300023036300F089BB01207047022017
:103690007047000070B51E48FCF7B4FF022836D80A
:1036A00002221B491B48FFF7DFFF1948FCF7AAFF5E
:1036B000024619A11648FCF7C4FF1548FCF771FF34
:1036C0000025134C28280FD032280DD03D280BD0D0
:1036D0000121134B0A2809D00B280AD0114B1428BA
:1036E0000BD015280CD011E0A0610FE00122616120
:1036F00001E000226561102105E00122616101E025
:103700000022656180211846FEF753FF257070BDC9
:1037100000000020884000206C6F6E746F6E6700A0
:10372000000002400010024090F83D30202B18D1DC
:10373000A9B1A2B190F83C30012B12D00162828471
:10374000C28400210164212280F83D2080F83C10D1
:103750000068C16841F08001C1600020704701200D
:103760007047022070477047FEE700007FB50025D4
:103770001A480095019502951749039501600124A7
:103780004FF440310461C0E90115047680F82050FF
:103790001349C0E90A150226C661C56080F83040A9
:1037A0004461FEF7D6FA08B172B6FEE7072000952D
:1037B000CDE9014069460948FEF784F908B172B6BF
:1037C000FEE7CDE9004669460448FEF77BF900288C
:1037D00001D072B6FEE77FBD00200140F83F002017
:1037E0000100000F2DE9F04387B014216846FCF773
:1037F0007FFF3C480024016841F0800101600168BE
:1038000001F080010591016841F00101016001684A
:1038100001F001010591016841F0100101600168AA
:1038200001F010010591016841F008010160016893
:1038300001F008010591016841F004010160006890
:10384000294F00F004000590002218213846FEF7A9
:10385000B0FEDFF89880002280214046FEF7A9FEE6
:10386000DFF88C9044F2FF06002231464846FEF70E
:10387000A0FE042000904FF48810CDE901046946B1
:103880003846FEF791FD182000900125CDE901543E
:10389000694638460394FEF787FD80200090CDE905
:1038A0000154694640460394FEF77EFD0096CDE93B
:1038B0000154694648460394FEF776FD4FF4407084
:1038C000CDE9000469460B480294FEF76DFD002225
:1038D00011460820FEF7E0FE0820FEF7CFFE07B0F5
:1038E000BDE8F08330380240000002400010024082
:1038F000000C02400008024010B586B000241848B1
:103900000094019402940394049414490594016072
:103910002921C0E901140921C0E903148021C0E96B
:103920000541FFF7EBF908B172B6FEE74FF480509E
:10393000009069460A48FFF785FA08B172B6FEE7BB
:103940002020CDE9040404A90548FFF78FF90028D9
:1039500001D072B6FEE706B010BD000000000140C5
:1039600040400020FEE7FEE770477047FEF72CBEA0
:1039700030B593B030216846FCF7BAFE14210CA88C
:10398000FCF7B6FE1C480025016841F0805101603B
:10399000006800F0805011901848016841F480419F
:1039A00001600068022400F480401190012003901F
:1039B00010200490009406940820CDE9075054206C
:1039C000CDE9090404200B906846FEF783FF08B197
:1039D00072B6FEE70CA90F2081E831004FF4805049
:1039E0000F90109002210CA8FEF788FE002801D04D
:1039F00072B6FEE713B030BD4038024000700040A0
:103A00000248016841F470010160704788ED00E0F0
:103A10000148FFF786BA0000404000200148FFF748
:103A200080BA0000404000200148FFF77ABA000049
:103A3000404000200148FFF774BA000040400020D9
:103A4000F0B50268254C264D264E274F274B4FF0E8
:103A5000804CA04209D0604507D0A84205D0B042B2
:103A600003D0B84201D0984204D122F0700E4A68C7
:103A700042EA0E02A0421BD0604519D0A84217D0DE
:103A8000B04215D0B84213D0984211D0184DA84278
:103A90000ED0184DA8420BD0174DA84208D0174D94
:103AA000A84205D0164DA84202D0164DA84203D117
:103AB00022F44075CA682A434D6922F080022A43E5
:103AC00002608A68C2620A688262A04201D098429B
:103AD00001D10969016301214161F0BD000001408C
:103AE0000004004000080040000C004000040140B9
:103AF00000400140004401400048014000180040DF
:103B0000001C00400020004010B5846842EA0322F7
:103B100024F47F440A432243826010BD826822F06D
:103B200070020A4342F007018160704710B5036AD2
:103B3000046A24F001040462846924F0F00444EA75
:103B4000021423F00A020A438461026210BD10B518
:103B5000036A23F0100303628369046A23F4704349
:103B600043EA023224F0A00343EA011182610162B8
:103B700010BD10B5806B0021C185C184FFF798FB93
:103B800010BD01680C3151E8002F22F4907241E819
:103B90000023002BF5D10168143151E8002F22F0E9
:103BA000010241E80023002BF5D1016B012909D165
:103BB00001680C3151E8002F22F0100241E8002387
:103BC000002BF5D1202180F83E10002101637047C1
:103BD00008B590F83E10222901D0022008BD826865
:103BE0004FF480539A4201D1016921B1816A9A420E
:103BF0001BD04AB10AE00268816A5268C2F3080227
:103C00000A80816A891C08E0026972B10268526800
:103C100002F07F020A70816A491C8162C18D491ECF
:103C20000904090CC18503D019E002685268F1E764
:103C30000168CA6822F02002CA600168CA6822F4DA
:103C40008072CA6001684A6922F001024A6120213B
:103C500080F83E10016B012903D0FFF71BFD002007
:103C600008BD0021016301680C3151E8002F22F0EA
:103C7000100241E80023002BF5D101680A68D20642
:103C800002D50A6849680091818DFFF710FBE6E7CD
:103C900070B5044600680169E26821F4405111439F
:103CA00001612169A068E269084361691143084321
:103CB0002168CA6849F20C639A430243CA602068CB
:103CC0004169A26921F44071114341613149206881
:103CD000884202D03049884202D1FEF7B9FD01E0A6
:103CE000FEF7A6FDE2690023192164253226B2F50C
:103CF000004F626828D0A0FB0101930F9200FCF7EF
:103D0000D9FA0146B0FBF5F06FF01802504301EB11
:103D1000800006EB0010B0FBF5F000F0F002B1FB04
:103D2000F5F002EB0012B1FBF5F06FF01803584309
:103D300001EB800006EB0010B0FBF5F000F00F0087
:103D400021681044886070BDA0FB010192185B419E
:103D5000FCF7B0FA0146B0FBF5F00201B1FBF5F05B
:103D60006FF01803584301EB800006EBC000B0FB76
:103D7000F5F000F0F80002EB4002B1FBF5F058431B
:103D800001EB800006EBC000B0FBF5F000F007008F
:103D9000D6E70000001001400014014081628285D6
:103DA000C28500210164222280F83E2080F83C1068
:103DB0000168CA6842F48072CA6001684A6942F0C8
:103DC00001024A610068C16841F02001C160002021
:103DD000704700000148FFF76DBA000088400020DE
:103DE000FEE703B401984100009850EAC12018BFD3
:103DF00004204A0D18BF40F0010040F2FF72B2EB00
:103E0000515F08BF40F00200012808BF052002B042
:103E100070470907090E002804DB00F1E02080F854
:103E20000014704700F00F0000F1E02080F8141D2E
:103E300070470000000000002DE9F04D2DED040B4F
:103E40002DED0E8B96B0DDE92550279CDDF890A076
:103E500025F0004624F00048BAF1000F14BF0121FC
:103E6000002101EB4502FC4953184A1093422AD322
:103E7000002814BF0123002303EB44030B44F7493C
:103E80008B4220D358EA00019FEDF59B76D0DFF8F6
:103E9000D8B35D4503D1BAF1000F05D188E0BAF17E
:103EA000000F08BF002100D0012101EB450111F5F1
:103EB000001F08D8002814BF0121002101EB440194
:103EC00011F5001F0BD99DED261B9DED240B16B09F
:103ED000BDEC0E8B04B0BDE8F04D00F0A9BE00278C
:103EE000002DBCBFE149884521DAE1498845A8BFDA
:103EF00002271CDAC3451ADCDE4901EB28511429DC
:103F000008DDC1F1340220FA02F101FA02F2824224
:103F10000DD108E058B9C1F1140228FA02F101FAF2
:103F200002F2424503D101F00101C1F1020756EA54
:103F30000A0124D1002C22DA002D18BF022F01D053
:103F4000012F0AD00220FCF706FC16B0BDEC0E8B48
:103F500004B0BDE8F04D00F053BE0220FCF7FBFBBF
:103F600000F04EFE51EC100B01F0EAF941EC100BA1
:103F700016B0BDEC0E8B04B0BDE8F08D18E09FEDDF
:103F8000BEAB9FEDBF8B002871D1B848804522D1D0
:103F900005F1804010F5801008BFBAF1000F07D07E
:103FA000B3450ADC002CA8BF9DED260BE0DA0DE03E
:103FB000B0EE490AF0EE690ADAE7002C06DA9DED68
:103FC000260B51EC100B01F0BBF96FE0AE487844C2
:103FD00090ED000BCCE7D8454DD1002C48DA2EB13E
:103FE00086423AD1BAF1000F42D126E0BAF1000F71
:103FF00013D00220FCF7AFFB00F036FE8DED020B74
:104000009DED240B8DED000B10EE900A039961F3EA
:104010001E0003909DED020BAAE78DED02AB9DED16
:10402000240B1AEE901A10EE900A8DED000B61F33E
:104030001E0003909DED020B9AE78DED028B9DED26
:10404000240B18EE901A10EE900A8DED000B61F320
:104050001E0003909DED020B8AE709DA9DED240B0B
:1040600051EC190B53EC102B01F064FA1EE020E028
:104070009DED240B7CE786421BDAB4F1804F0DD016
:10408000A4F10050B0F1FF5013D1002D11DB9DEDD4
:10409000240B51EC100B01F0E8F807E09DED240B28
:1040A00053EC102B51EC100B00F0C2BC41EC100B88
:1040B0005EE79DED240B51EC100B00F0FCFDBAF116
:1040C000000FCDE90E0142D19FED710B46B3A6F171
:1040D000E040B0F17F600CD05E4538D1002D00DAB1
:1040E000A7B3022F0CBF01204FF0FF3001F07AFB85
:1040F000DCE7002D01DD002C0DDA002D01DD002CA8
:104100001FDB002D16DA002C14DB012F08BF9FEDFA
:10411000620B3FF42DAFB0EE4A0AF0EE6A0A27E7D1
:10412000022F18BF002D0CD0012F0AD1002DFFF651
:104130001FAF06E0002DB8BF002C08DA012F3FF4B6
:1041400017AFB0EE480AF0EE680A11E71BE0012055
:1041500000EBE57050EA070115D0791EB0EE498AF0
:10416000F0EE698A084308BF9FED4D8B4E4800254D
:10417000804570DD4D494E48884514DDB0420DDB69
:10418000002C19DB2FE00120FCF7E5FA16B0BDEC9E
:104190000E8B04B0BDE8F04D00F056BDB34502DC17
:1041A000002C09DC1FE0864202DA002C1BDA03E057
:1041B0005E452BDD002C16DD0220FCF7CCFA00F06A
:1041C00053FD8DED020B53EC1A2B51EC180B01F043
:1041D0006FFBCDE900010399019861F31E00039084
:1041E0009DED020BC4E60220FCF7B5FA00F04CFD91
:1041F00010EE901A18EE900A8DED020B8DED008BEB
:1042000061F31E0003909DED020BB1E69DED0E0BD8
:1042100053EC192B51EC100B01F056FD9FED260BC2
:10422000CDE9080153EC102B9DED080B51EC100B60
:1042300001F03EFB9FED221B53EC112B01F06CFCB7
:104240009DED081B53EC112B01F032FB9FED1E1B63
:1042500053EC112B3CE08CE0FFFF1F00FFFF0F0031
:10426000000000000000F03F0000F03F0000F07F81
:104270000000404301FCFFFF000000000000F07F51
:1042800000000000000000005E21000000000000AF
:104290000000000000000080000000000000F0FFAF
:1042A000000000000000F0BF0000E0410000F0430B
:1042B000FFFFEF3F00000000000000000000D03FC3
:1042C000555555555555D53F000000000000E03FBD
:1042D00001F022FC9DED080B41EC1A0B53EC102B66
:1042E00051EC100B01F0E4FA53EC1A2B01F0E0FA58
:1042F00041EC1A0B9FEDFE0B53EC102B9DED080BC0
:1043000051EC100B01F0D4FA41EC1B0B9FEDFA0BB2
:1043100051EC1A0B53EC102B01F0CAFA41EC1A0BBA
:104320009FEDF70B53EC102B9DED080B51EC100B90
:1043300001F0BEFA53EC1A2B01F0C6FC41EC1A0B4B
:1043400051EC1B0B53EC1A2B01F038F80690CDE919
:1043500006519DED060B53EC1B2B51EC100B01F09D
:10436000B3FC53EC1A2B01F0D7FB41EC100B00F01F
:10437000A1B90020B6F5801F0EDA9FEDE30B53ECD8
:10438000102B9DED0E0B51EC100B01F091FACDE9C5
:104390000E016FF034000E4600EB2650A0F2FF37FE
:1043A000C6F31300DA4940F07F6646F04056884273
:1043B000D8BF002408DDD7498142C8BF012403DCEF
:1043C0000024A6F580167F1CD348784400EBC40077
:1043D0000F9690ED00CB9DED0E0B53EC1C2B51EC8A
:1043E000100B01F071FC9DED0E0B41EC1B0B53EC1F
:1043F0001C2B51EC100B00F0E1FF41EC100B51ECC9
:10440000190B53EC102B01F095F841EC1D0B51ECFE
:104410001B0B53EC1D2B01F04BFA41EC1A0BBF4860
:104420008DED10AB7844109590ED000B4FF00050DF
:1044300040EA660000EB84408DED080B00F500209B
:1044400009909DED080B53EC1C2B51EC100B01F067
:104450003BFC9DED0E1B53EC112B01F05DFB41EC81
:10446000100B53EC102B9DED100B51EC100B01F0C9
:104470001FFA9DED080B41EC1C0B53EC102B9DED2E
:10448000100B51EC100B01F013FA53EC1B2B01F045
:1044900043FB53EC1C2B01F017FC53EC1D2B01F0DC
:1044A00007FA41EC1C0B53EC1A2B51EC1A0B01F0E0
:1044B000FFF941EC1B0B9A480621B0EE4B0AF0EED7
:1044C0006B0A784400F01DFBB0EE401AF0EE601A63
:1044D000B0EE41DAF0EE61DA53EC1B2B51EC1B0B22
:1044E00001F0E6F953EC1D2B01F0E2F99DED100B04
:1044F00041EC1B0B53EC1A2B51EC100B00F05EFF40
:1045000053EC1C2B01F0D4F953EC1B2B00F056FF9D
:104510009DED100B41EC1B0B53EC102B51EC100BD1
:1045200001F0C6F941EC1D0B9FED7FEB53EC1E2B08
:1045300000F044FF53EC1B2B00F040FF0890CDE946
:1045400008519DED080B53EC1E2B51EC100B01F0A4
:10455000BBFB53EC1D2B01F0B7FB53EC1B2B01F005
:10456000DBFA9DED080B41EC1D0B53EC102B9DED80
:10457000100B51EC100B01F09BF941EC1B0B53ECB1
:104580001A2B51EC1D0B01F093F99DED080B41EC3A
:104590001A0B53EC102B51EC1C0B01F089F953EC66
:1045A0001A2B00F00BFF41EC1A0B51EC1B0B53ECD8
:1045B0001A2B00F003FF0C90CDE90C519DED0C0B74
:1045C00053EC1B2B51EC100B01F07EFB53EC1A2B20
:1045D00001F0A2FA41EC1B0B9FED550B53EC102B95
:1045E0009DED0C0B51EC100B01F062F941EC1A0B34
:1045F0009FED510B51EC1B0B53EC102B01F058F9B4
:1046000041EC1B0B9FED4E0B53EC102B9DED0C0B57
:1046100051EC100B01F04CF953EC1B2B00F0CEFECB
:1046200041EC100B4848784400EBC40090ED001BAF
:1046300051EC100B53EC112B00F0C0FE41EC1B0BA6
:10464000384601F0CFF8CDE9080153EC1B2B51ECB3
:104650001A0B00F0B3FE41EC100B3C48784400EB21
:10466000C40090ED00CB51EC100B53EC1C2B00F070
:10467000A5FE9DED081B53EC112B00F09FFE06904C
:10468000CDE906519DED080B53EC102B9DED060B6B
:1046900051EC100B01F018FB53EC1C2B01F014FB38
:1046A00053EC1A2B01F010FB53EC1B2B01F034FAE6
:1046B00041EC100B9DED261B53EC102B8DED001BD8
:1046C00000959DED260B51EC100B01F0F1F89DEDDE
:1046D000000B41EC1A0B53EC102B9DED260B51EC0B
:1046E000100B01F0F1FA9DED061B53EC112B2FE09E
:1046F000000000604715F73FFE822B654715F73F26
:1047000044DF5DF80BAE543E000000000000404363
:104710008E9803007AB60B00DA1C0000081D00001A
:10472000121C000000000000000000000000084013
:10473000000000E009C7EE3FFD033ADC09C7EE3F89
:10474000F5015B14E02F3EBE9E1A0000581A0000CF
:1047500001F0AEF853EC1A2B00F030FE9DED060B85
:1047600041EC1A0B53EC102B9DED000B51EC100B90
:1047700001F09EF8CDE90C019DED0C0B51EC1A0BEC
:1047800053EC102B00F01AFECDE902010C46AA49A9
:104790008C422FDB611A084318D19DED0C0B53ECB2
:1047A000102B9DED020B51EC100B01F08DFA41EC3A
:1047B0001B0B9FEDA30B51EC1A0B53EC102B00F0CD
:1047C000FDFD53EC1B2B01F071F92DD20220FBF7FC
:1047D000C2FF00F049FA10EE901A18EE900A8DED23
:1047E000020B8DED008B61F31E0003909DED020B1B
:1047F000FFF7BEBB944A24F00041914214D3934981
:10480000214408437FF4EFAC9DED0C0B53EC102BCF
:104810009DED020B51EC100B01F056FA53EC1A2BE4
:1048200001F044F97FF6DFAC24F000408849894A62
:10483000002601EB205182422BDA481C4FF48011F4
:1048400021FA00F02044844AC0F30A517A44A1F2CC
:10485000FF3192ED000B814A8DED080BCA4020EA32
:104860000202C0F3130040F48010C1F1140120FAD9
:1048700001F60992002CB8BF76429DED080B53EC6F
:10488000102B9DED0C0B51EC100B01F01DFACDE936
:104890000C019DED0C0B51EC1A0B53EC102B00F09E
:1048A0008DFD9FED6F0B0890CDE9085153EC102B57
:1048B0009DED080B51EC100B00F0FAFF41EC1B0BC7
:1048C0009FED690B53EC102B9DED080B51EC100B79
:1048D00000F0EEFF9DED0C0B41EC1C0B53EC102B8C
:1048E0009DED080B51EC100B01F0EEF953EC1A2B77
:1048F00001F012F99FED5E1B53EC112B00F0D8FF75
:1049000053EC1C2B00F05AFD41EC1A0B51EC1B0B25
:1049100053EC1A2B00F052FDCDE902019DED020B84
:1049200053EC1B2B51EC100B01F0CEF953EC1A2B6E
:1049300001F0F2F89DED020B41EC1A0B53EC102B39
:1049400051EC100B00F0B4FFCDE908014A489DED91
:10495000080B0521784400F0D4F89DED081B51ECBC
:10496000100B53EC112B00F0A3FF9DED021B53EC39
:10497000112B01F0D1F8CDE906019DED020B53ECAE
:104980001A2B51EC100B00F093FF53EC1A2B00F094
:1049900015FD9FED3B0B41EC1A0B53EC102B9DEDDD
:1049A000060B51EC100B01F08FF99DED060B41EC5D
:1049B0001B0B53EC102B9DED020B51EC100B00F078
:1049C00077FF53EC1B2B00F0B5FD53EC1A2B01F0D5
:1049D0007BF99DED021B53EC112B01F075F953ECA3
:1049E000192B01F099F8CDE9020101EB06500115F0
:1049F0000029C8BF039015DC9DED020B324651EC37
:104A0000100B01F0FAFAFFF7ECF9042808BF00F0E8
:104A10003BF932469DED020B51EC100B01F0EDFA23
:104A2000CDE902019DED020B51EC180B53EC102B5C
:104A300000F03EFFFFF73ABB00009040000000008E
:104A4000FE822B654715973C00CC904000346F3FA9
:104A500001FCFFFF0000E03FE0180000FFFF0F0037
:104A600000000000432EE63F396CA80C615C20BEBC
:104A7000EF39FAFE422EE63FB017000000000000BA
:104A8000000000000000004000B52DED048BB0EEEA
:104A9000409AF0EE609A83B051EC190B01F048F89F
:104AA00041EC180B18EE100A18EE901A8DED008BE1
:104AB000002818BF0120084320F00040C0F17F60AB
:104AC00000F1E040C00F14D019EE101A19EE900A50
:104AD0008DED009B002918BF0121084320F0004004
:104AE000C0F17F6000F1E040C00F04BF0120FBF780
:104AF00032FEB0EE480A03B0F0EE680ABDEC048B5B
:104B000000BD70B504462DED028B4D1E00EBC500B7
:104B1000B0EE408AF0EE608A90ED000B35F00600B2
:104B200017D053EC182B51EC100B00F0C1FE41ECE8
:104B3000100B6D1E04EBC50090ED001B51EC100B2B
:104B400053EC112B00F03AFC41EC100B35F0060051
:104B5000E7D1022D36D0042D1CD0062D1CBFBDEC94
:104B6000028B70BD53EC182B51EC100B00F0A0FE23
:104B700094ED0A1B53EC112B00F020FC53EC182B86
:104B800000F096FE94ED081B53EC112B00F016FC80
:104B900041EC100B53EC182B51EC100B00F088FE7D
:104BA00094ED061B53EC112B00F008FC53EC182B72
:104BB00000F07EFE94ED040B53EC102B00F0FEFB96
:104BC00041EC100B53EC182B51EC100B00F070FE65
:104BD00094ED021B53EC112B00F0F0FB53EC182B5F
:104BE00000F066FE94ED001B53EC112B00F0E6FB89
:104BF000BDEC028B41EC100B70BD0000000000000A
:104C00009FED070B10B553EC102B9FED070B51ECEC
:104C1000100B00F08FFC41EC100B10BD00000000E9
:104C20000000000000000000000000000000F03F55
:104C300010B553EC112B51EC100B00F0BFFB41EC05
:104C4000100B10BD000000009FED050B10B553ECDC
:104C5000102B51EC100B00F06DFC41EC100B10BD53
:104C600000000000000000009FED050B10B553ECA4
:104C7000102B51EC100B00F01BFE41EC100B10BD83
:104C800000000000000000709FED050B10B553EC14
:104C9000102B51EC100B00F00BFE41EC100B10BD73
:104CA000000000000000001030380A2801D2012066
:104CB00070470020704782B0CDE9000121F000402C
:104CC00001909DED000B02B051EC100B70470000FD
:104CD00070B5FDEEC00A04462DED048B10EE900A6F
:104CE0000D46002200EE900A2146F8EEE00A30EE72
:104CF000608A00F033F80646002D27D02E20A055FC
:104D0000284600F06FFD41EC110B9FED120BFFF7F1
:104D100093F8B0EE409AF0EE609A18EE100A01F0A7
:104D2000BDF853EC192B00F0C3FD00F015FB00EEAD
:104D3000100ABDEC048BA1192A46BDEEC00ABDE8DD
:104D4000704010EE100A491C00F008B8BDEC048B4E
:104D500070BD0000000000000000244030B50D468A
:104D600000240A2109E000BF90FBF1F301FB1303CB
:104D700090FBF1F030332B55641C0028F4D1302027
:104D8000944202DA2855641CFAE72146284600F0CE
:104D90005FFA00202855204630BD10B504460009B2
:104DA00000F09CF804F00F0000F098F8BDE8104007
:104DB000322000F091BA10B50446000900F0A4F8C2
:104DC00004F00F0000F0A0F8BDE81040322000F021
:104DD00083BA000010B5084C012204212046FDF7DB
:104DE000E8FB0A2000F078FA20460022BDE81040D7
:104DF0000421FDF7DEBB0000000C024070B50D463B
:104E00000446002201210B48FDF7D3FB5DB1012DC3
:104E10000BD0022D0BD0032D0BD1D434E0B2BDE862
:104E20007040FFF7BABF8034F8E7C034F6E7943437
:104E3000F4E770BD000C0240F0B585B001240325F5
:104E4000002603950094244FCDE901466946384673
:104E5000FDF7AAFA022003958DE85100694638460D
:104E6000FDF7A2FA042003958DE851006946384603
:104E7000FDF79AFAF02003958DE85100694638460F
:104E8000FDF792FA002202213846FDF792FB00F06E
:104E90005BF82820FFF781FF4FF47A74204600F07A
:104EA0001BFA0C20FFF779FF204600F015FA0620C8
:104EB000FFF773FF204600F00FFA0120FFF76DFFA8
:104EC0006400204600F008FA8020FFF766FF2046C5
:104ED00000F002FA05B0F0BD000C024010B5044627
:104EE000002201210748FDF764FB064814300168E1
:104EF00021F0F00141EA04110160BDE81040FFF724
:104F000069BF0000000C024010B5044601221146A2
:104F10000748FDF74EFB06481430016821F0F00108
:104F200041EA04110160BDE81040FFF753BF0000E3
:104F3000000C024010B5044602E0641CFFF73BFF82
:104F400020780028F9D110BD194810B5016841F04A
:104F5000F0010160164C0122143C11462046FDF779
:104F600028FB012204212046FDF723FB44F62060A4
:104F700000F0B2F90320FFF7B1FF43F6982000F0EC
:104F8000ABF90320FFF7AAFF41F28834204600F076
:104F9000A3F90320FFF7A2FF204600F09DF90220AD
:104FA000FFF79CFF2046BDE8104000F095B90000D7
:104FB000140C024008B5FDF70FFBFEF7D9FCFEF715
:104FC00011FCFEF799FC91480024016841F480012E
:104FD00001600068224600F48000009021463820DD
:104FE000FDF75AFB3820FDF749FB00221146392016
:104FF000FDF752FB3920FDF741FB00221146452009
:10500000FDF74AFB4520FDF739FBFEF7AFFB814872
:105010007F4901604FF41651C0E901140C21C460AE
:10502000C0E904418461C461FEF778FA08B172B640
:10503000FEE7FFF701FF77484838FDF7C3FE7548E4
:10504000022275499038FCF703FF01228021734842
:10505000FDF7AFFA7049022224396E48FEF704FBCF
:105060006D49052244316B48FEF75EFB6A4C4FF4F4
:105070009677241D04F12005A4F12806654868A14F
:10508000B038FBF78FF96420FDF75AF90021084684
:10509000FFF7B4FE5F48B038FFF74CFF6420FDF720
:1050A0004FF994ED000B5B4853EC102B5FA1B03827
:1050B000FBF778F93846FDF743F901210020FFF7A7
:1050C0009DFE5448B038FFF735FF94ED000B51ECCE
:1050D000100B00F041F900EE100A4E480221A138F1
:1050E000FFF7F6FD95ED000B4A4853EC102B52A14B
:1050F000B038FBF757F96420FDF722F902210020B0
:10510000FFF77CFE4348B038FFF714FF41484DA13C
:10511000B038B269FBF746F96420FDF711F90321B5
:105120000020FFF76BFE3B48B038FFF703FF94ED1C
:10513000000B51EC100B00F00FF900EE100A35488F
:105140000221A138FFF7C4FD95ED000B51EC100BC7
:1051500000F002F900EE100A2F480221B630FFF7E6
:10516000B7FD2D49A731A1F16300FBF727FA3749B5
:10517000A1F1BD00FBF7B0FA34494B39A1F172003F
:10518000FBF7AAFA3149A1F1BD00FBF7A5FA2149C5
:105190002148A1394430FBF79FFA2C49A1F1BD0009
:1051A000FBF79AFA29493C39A1F18100FBF794FAFF
:1051B0002649A1F1BD00FBF78FFA24492D39A1F151
:1051C0009000FBF789FA2149A1F1BD00FBF784FAB1
:1051D0001E491E39A1F19F00FBF77EFA1B49A1F180
:1051E000BD00FBF779FA19490F39A1F1AE00FBF7C1
:1051F00073FA1649A1F1BD00FBF76EFA13490F319E
:10520000A1F1CC00FBF768FA38E700003038024023
:1052100000140140884000202400002000100240BB
:10522000666972696E673A393000000056726D73B4
:105230003A25332E32660000737568753A25332E91
:105240003266000073703A256400000025010020DA
:1052500010B50022491E05E0835C445C845443542D
:10526000491E521C8A42F7DB10BD00B52DED048BA0
:1052700083B041EC190B00F05BFC41EC180B18EE0D
:10528000100A18EE901A8DED008B002818BF01202F
:10529000084320F00040C0F17F6000F1E040C00F03
:1052A00014D019EE101A19EE900A8DED009B00290A
:1052B00018BF0121084320F00040C0F17F6000F1D9
:1052C000E040C00F04BF0120FBF745FA51EC180B7A
:1052D00003B0BDEC048B00BD00EB401101EBC0102E
:1052E000401EFDD27047000010B500290AD0087892
:1052F000002807D005487844FBF786FE002801D037
:10530000002010BD0248784410BD0000F60E0000D9
:10531000EE0E000010B500290AD00878002807D04A
:1053200005487844FBF770FE002801D0002010BD2E
:105330000248784410BD0000E60E0000DE0E0000BA
:1053400081F00041704780F00040704721F000413B
:10535000704720F00040704721F00042A2F16052F7
:10536000B2F5801F01F0004328BFD2F17F6C0BD94A
:105370005FEA001C43EAC20242EB507018BF70475C
:1053800028BF20F001007047B2F5801FBCBF18464F
:1053900070474FEA410C1CF5001F02D2084600F08E
:1053A000F3BD70B500F02EFB00000089FFF7F6BFDB
:1053B0004FF00040A0F580007047000010B591EA62
:1053C000030F48BF83F0004300F18684841A71EB19
:1053D000030C05D2121943EB0C03001B61EB0C010B
:1053E000DFF824E14FEA1154A4EB135C1EEA430FEB
:1053F00018BF9EEA445F73D023EA0E03DCF1200E4F
:1054000021EA045143F4801332D322FA0CFE10EB4C
:105410000E0023FA0CFE41EB0E01CCF1200E03FA34
:105420000EFE10EB0E0051F10001B1F5801FCCF122
:10543000200E32D201EB045112FA0EF2BDE81040F8
:1054400058BF7047401C38BF5FEA420218BF704720
:10545000002814BF20F0010041F100014FEA410390
:1054600013F5001F38BF7047A1F1C04100F018BB11
:10547000012A43EB0302ACF1200CDCF11F0E32BF1A
:105480004FF0000E23FA0CF310EB030041EB045134
:10549000B4EB115FD0D0A1EB045101F580114908A4
:1054A0005FEA300001EB04510ED350F1000038BF29
:1054B00012FA0EFE08D1BDE81040C9E7401C38BF03
:1054C0005FEA4202CAD1C3E7BDE810404FEA410398
:1054D00013F5001F38BF7047A1F1C04100F0E0BADA
:1054E0009EEA445F08D011EA5E0FBDE8104004BF99
:1054F00001F0004100207047BDE8104070B500F099
:1055000081FA00BF64FBBE3E0000E0FF02494FF09D
:10551000000000F040BD00BF0000F87F491058BFF8
:10552000C1F140415B1058BFC3F140438B42EFF3E0
:10553000008070472DE9C04130B4DFF8A0C23CEADA
:10554000111418BF3CEA131400F0EC8081EA030543
:105550001CEA111444EAD57418BF1CEA131500F0B4
:10556000C780A4EB05044FF0004545EAC12145EA98
:10557000C32341EA505143EA525304F17F749942E4
:1055800004F500344FEAC0204FEAC22208BF90421F
:1055900000F09C804FEA13650FF24016765D4FEAEB
:1055A000134506FB05F7C7F1807706FB07F74FEABF
:1055B000D737A7FB03687642C8F58038A7FB06CE2D
:1055C00038BFA8F1010807FB08E64FF0000EA6FB64
:1055D000028CE6FB03CEDCF1000CCEF1004E38BFAE
:1055E000AEF1010EA6FB0C584FF000074FF000057E
:1055F000E6FB0E87A1FB08C6A0FB07CE16EB0E0646
:1056000045F10005E1FB076515F1E04E7EBFA4F50D
:1056100080345FEA46066D4116F1800745F10005CA
:105620004FEA17274FEA066647EA0567A6F1DE4606
:10563000B6F1805F4FEA15251FD9384624F0010CDA
:1056400005EBC471BCF1FE6F01EB0C1102D8F0BC8C
:10565000BDE8008124425CBF01F5801E9EEAC47F44
:1056600002D4F0BCBDE80081244238D4F0BCA1F1E2
:10567000C041BDE8004100F013BA4FEAD22242EA2D
:1056800043524FEAD323A7FB02864FEAD02040EAD9
:10569000415007FB03661EEA0E0F4FEAD12105FBBE
:1056A000026658BFA6EB0056B6EB00564FEA520E04
:1056B0004EEAC37E18EB0E0E56EB530EBDD518EB1B
:1056C00002085E417F1C55F10005B6E74FF48015D6
:1056D0004FF000074FF000064FF00008ADE7F0BCB8
:1056E0004FF0000001F1C04101F00041BDE8008130
:1056F00011EA0C1F0CEA131500D00CE013EA0C1F82
:1057000000F025804FF00000F0BC81EA030101F0B9
:105710000041BDE80081F0BCBDE8004181EA030121
:1057200000F0BEB9F0BCBDE8004170B500F06AF908
:10573000097EFC3E00F007B881EA03014FF000004B
:1057400001F00041704781EA030100F0A9B9F0BC03
:10575000BDE800414FF0000021497047FFFDFBF913
:10576000F7F5F4F2F0EEEDEBE9E8E6E4E3E1E0DE94
:10577000DDDBDAD8D7D5D4D3D1D0CFCDCCCBCAC806
:10578000C7C6C5C4C2C1C0BFBEBDBCBBBAB9B8B72D
:10579000B6B5B4B3B2B1B0AFAEADACABAAA9A8A820
:1057A000A7A6A5A4A3A3A2A1A09F9F9E9D9C9C9BEE
:1057B0009A99999897979695959493939291919099
:1057C0008F8F8E8E8D8C8C8B8B8A8989888887872A
:1057D0008685858484838382828181800000FF079F
:1057E0000000F87F10F0004248BF4042B0FA80F35A
:1057F00010FA03F10AD0C3F11D0303F580634FEAE9
:10580000415002EB035202EBD12170474FF00000F0
:105810007047B0FA80F310FA03F10AD0C3F11D0308
:1058200003F580634FEA41504FEA035202EBD12166
:1058300070474FF00000704751EA030C17D41CF575
:10584000801F58BFBCF5801F00F10680994218BF29
:10585000704708BF9042704707D711F5801F58BFA7
:1058600013F5801F19D499427047894270471CF57F
:10587000801F08D5BCF5801FF7D58B4218BF704735
:1058800008BF824270474FF4001C1CEB410F38BF29
:105890001CEB430F01D28B42704770B500F0B2F899
:1058A000922449004FF000514FF08053FFF736BE6D
:1058B000DFF848C170B51CEA111E1EBF1CEA1315A3
:1058C0009EEA0C0F95EA0C0F00F06F8081EA03044A
:1058D00023EA4C134EEAD47E21EA4C1141F48011A4
:1058E00043F48013AE44A1FB024CA0FB0365AEF170
:1058F0007F7E361955EB0C05A1FB034C4CF10003E0
:10590000A0FB021C16EB0C06654153F10003094293
:1059100018BF46F0010613F4007F0BD14FEA0331A4
:105920004FEA0530340341EA155140EA16506FF052
:1059300003020AE04FEAC3214FEAC520F40241EA1C
:10594000555140EA56506FF0020202EB2E4201EB35
:10595000025585EACE710AD05FEA440C18BF24F0E4
:10596000004450F1000041F1000120EAD47040F2FF
:10597000FE7C624500D270BDA84214BF4FF0804447
:105980004FF04044002E08BF0024BEF1806FA8BF36
:10599000A1F1C041BDE8704080F282804FF000006C
:1059A00001F1C04101F0004170479EEA0C0F0CEA82
:1059B000131518BF95EA0C0F06D04FF0000081EACE
:1059C000030E0EF0004170BD00F01CF88900013E8E
:1059D00000F007B800F009B84FEA430C5FEA5C5CDE
:1059E00008D081EA030100F05BB84FEA410C5FEA9E
:1059F0005C5CF6D14FF00000014970470000FF07E2
:105A00000000F87F0EF1020E2EF0030E5EF8046B1C
:105A1000364205D4012A43EB030515F5001F12D8C1
:105A2000012841EB010C1CF5001F0CD80ED14FEAE8
:105A3000D17C15F5001F0CEB4C0C0CF1020C08BFCF
:105A40004CEBD37C04E04FF0080C01E04FEAD37C30
:105A50000CEB4C0526FA05F606F00706B6F1040C29
:105A600006D20EEB860CBDE870404CF0010C60478E
:105A7000DFE80CF0090B02024FF000414FF000008C
:105A8000A1F5002170BD19461046012851EB010413
:105A900018BFD4F5001484BF002001F0004170BD90
:105AA0000808A0F500114FEA3101704753EA010CD4
:105AB00017D41CF5801F58BFBCF5801F00F106806D
:105AC0008B4218BF704708BF8242704707D713F553
:105AD000801F58BF11F5801F19D48B4270479B421D
