:020000040800F2
:10000000904B002095020008A139000889370008AC
:1000100085390008091A00081D3E0008000000008C
:10002000000000000000000000000000A5390008EA
:10003000D51A000800000000A3390008A7390008FD
:10004000AF020008AF020008AF020008AF020008CC
:10005000AF020008AF020008AF020008AF020008BC
:10006000D71A0008AF020008AF020008AF0200086C
:10007000AF020008AF020008AF020008AF0200089C
:10008000AF020008AF020008D5180008AF02000850
:10009000AF020008AF020008AF020008AF0200087C
:1000A0004D3A0008713A0008653A0008593A0008CC
:1000B000AF020008AF020008AF020008AF0200085C
:1000C000AF020008AF020008AF020008AF0200084C
:1000D000AF020008AF020008AF020008AF0200083C
:1000E000AF020008AF020008AF020008AF0200082C
:1000F000AF020008AF020008AF020008AF0200081C
:10010000AF020008AF020008AF020008AF0200080B
:10011000AF020008AF020008AF020008AF020008FB
:100120000D1A0008191A0008AF020008AF020008F3
:10013000AF020008AF020008AF020008AF020008DB
:10014000AF020008AF020008AF020008AF020008CB
:10015000AF020008251A0008AF020008113E00088F
:10016000AF020008AF020008AF020008AF020008AB
:10017000AF020008AF020008AF0200080000000054
:10018000AF020008AF02000800F002F800F072F8B9
:100190000AA090E8000C82448344AAF10107DA45E2
:1001A00001D100F067F8AFF2090EBAE80F0013F0C2
:1001B000010F18BFFB1A43F001031847606D0000E0
:1001C000806D00000A444FF0000C10F8013B13F062
:1001D000070408BF10F8014B1D1108BF10F8015BA0
:1001E000641E05D010F8016B641E01F8016BF9D193
:1001F00013F0080F1EBF10F8014BAD1C0C1B09D1EA
:100200006D1E58BF01F801CBFAD505E014F8016B5B
:1002100001F8016B6D1EF9D59142D6D370470000ED
:100220000023002400250026103A28BF78C1FBD8FF
:10023000520728BF30C148BF0B607047662906F0DF
:100240004E85642900F0FA80002070471FB506F043
:100250003CFD00F061FD04000020002105F000FFDE
:10026000401C60600020002105F0E4FEE0601FBD3E
:1002700010B510BD00F09CFE1146FFF7E7FF05F03A
:10028000DBF900F0C8FE03B4FFF7F2FF03BC00F097
:100290000BFF00000948804709480047FEE7FEE7DA
:1002A000FEE7FEE7FEE7FEE7FEE7FEE7FEE7FEE726
:1002B00004480549054A064B704700003D3A0008CE
:1002C0008901000890450020904B002090470020B5
:1002D0009047002053EA020C00F069802DE9F04BB2
:1002E0004FF00006002B1FBFB3FA83F503FA05F4A5
:1002F00024FA05F65E4012BF1643B2FA82F502FAFE
:1003000005F4C5F120051EBF22FA05FC44EA0C04E1
:10031000203556EA044C4FEA144418BF641C4FF0D1
:1003200000084FF00009904271EB030C39D300290B
:1003300019BFB1FA81F701FA07F6B0FA80F700FAAF
:1003400007F6C7F120071EBF20FA07FC46EA0C0695
:100350002037B6FBF4FCA7EB0507103F07F01F0B97
:10036000CBF120060CFA0BFB2CFA06F644BFB34681
:100370000026202FA4BF5E464FF0000B5BEA060C60
:1003800008BF4FF0010B19EB0B09ABFB027C48EBEC
:100390000608C01B06FB02CC0BFB03CC71EB0C0167
:1003A000C1E70B46024641464846BDE8F08B13B50F
:1003B0004FF000004FF00001AFF30080BDE81C409B
:1003C000704700000FB41CB5074B06AA7B44694672
:1003D0000090059800F043FC0020694600F052FCB4
:1003E0001CBC5DF814FB0000B508000070B50446A5
:1003F00085690068C10601D5302600E02026C007C7
:1004000007D070BDD4E9012130469047206A401CD6
:1004100020626D1EF6D570BD70B504468569007802
:10042000C00707D170BDD4E9012120209047206A80
:10043000401C20626D1EF6D570BD00002DE9F04114
:100440000646002410687529314616A510D0AFF372
:100450000080002802DA404213A507E031688A07CD
:1004600001D512A502E0490704D511A5012401E038
:10047000AFF3008000210A2206F1240709E0B0FB57
:10048000F2FCB0FBF2F302FB1C003030785418464B
:10049000491C0028F3D123462A463046BDE8F041E6
:1004A00000F06FB9000000002D0000002B000000DC
:1004B000200000002DE9F0474FF0000A894604466D
:1004C000C0F820A02046E1688847002876D025287B
:1004D00006D0D4E901219047206A401C2062F1E750
:1004E000E168204600258847C4F81CA0064600277E
:1004F000C4F818A02A2E09D0304604F0F1FB38B316
:1005000004EB8708303EC8F8186019E059F8041B5E
:10051000204604EB87029161E1688847012F064677
:1005200018D1E069002820DA25F020051DE0D8F870
:10053000180000EB800006EB40003038C8F81800C7
:100540002046E1688847064604F0CAFB0028EED141
:10055000012F0AD02E2E08D12046E16888477F1C43
:100560000646022F45F02005C4DBA069002803DA07
:10057000404245F00105A061E80701D025F01005D3
:10058000B6B1A6F14100192802D8203645F400651D
:100590004A463146204625604D46FFF74FFE58B18A
:1005A000012806D0ED1D25F0070000F1080989E7B4
:1005B00004E005F1040985E730468AE7206ABDE8D2
:1005C000F08770B5064600F0CDF804680546304661
:1005D0000A22002100F05BFB2C6070BD40EA0103A1
:1005E000024630B59B0710D14FF0013400E008C23D
:1005F00008C91D1B9D4315EAC41FF8D013F0FF0165
:1006000002F8011B0DD01B0AF8E711F8013B002B83
:1006100002F8013B05D011F8013B002B02F8013B29
:10062000F3D130BD10B5431C02E010F8011B71B1CD
:100630008107FAD14FF0013202C88C1A8C4314EAB8
:10064000C211F9D0C01A0A0603D0C01E10BDC01ACC
:1006500010BD0A0401D0801E10BD0902FCD0401E4E
:1006600010BD40EA010370B59B072ED14FF0013653
:10067000042A2AD308C810C99D1B9D43121F15EADE
:10068000C61517D0D8B2E1B2401A50EA056110D1B0
:1006900098B2A1B2401A50EA05410AD123F07F4036
:1006A00024F07F41401A50EA052102D1180EA0EB38
:1006B000146070BDA342DBD018BA21BA884201D9B8
:1006C000012070BD4FF0FF3070BD0AB9002070BD31
:1006D00010F8013B11F8014B63B1A3420AD1521E3D
:1006E00008D010F8013B11F8014B1BB1A34201D116
:1006F000521EEDD1181B70BD421E12F8013F002B97
:10070000FBD111F8013B002B02F8013BF9D17047F6
:100710004FF0000200B5134694469646203922BF9A
:10072000A0E80C50A0E80C50B1F12001BFF4F7AFE5
:10073000090728BFA0E80C5048BF0CC05DF804EBC7
:10074000890028BF40F8042B08BF704748BF20F835
:10075000022B11F0804F18BF00F8012B7047704733
:1007600070477047004870472C45002010B5FFF7D0
:10077000F9FF006810BD10B50446FFF7F3FF0460F1
:1007800010BD2DE9F0470D4699469246044600F10A
:1007900024080168880604D5E06921F01001216071
:1007A00000E00120A84201DD471B00E00027A1690D
:1007B0007A1902EB0900081AA0612078C00602D459
:1007C0002046FFF713FE002608E0D4E901211AF8BD
:1007D00006009047206A401C761C20624E45F4DBE0
:1007E0002078C0060AD52046FFF700FE06E0D4E9CF
:1007F000012130209047206A401C2062381EA7F15A
:100800000107F4DC07E0D4E9012118F8050090475E
:10081000206A401C2062281EA5F10105F3DC204659
:10082000FFF7FAFD2078000602D50220BDE8F08728
:100830000120FBE770472DE9FF4F0C461E464FF0A5
:10084000FF378BB0D2E90001DDF860800A908A465C
:10085000C1F30A5505B93D46002108464FF0000096
:10086000BAF1000F00F4400005DA00EB80004FF40D
:10087000400101EA50004FEA9059B9F1010F00DD43
:10088000B9460A9850EA4A000ED044F61050A5F234
:10089000FF3545432F14B8F1000F1ED07542291EB5
:1008A0001EDDC9F100021CE0B8F1010F4FF000009D
:1008B00001D0302103E0F24305E02154401CB04256
:1008C000FBDB30460022002121540B99C1F808803F
:1008D000C1E900200FB0BDE8F08FBD1B6D1CDEE745
:1008E0004A4600DA694206A800F0F0FA06AB93E83F
:1008F000070003AB83E8070050460A9900F0DBFBD2
:100900008DE80700A0F500501F3800900398002DD7
:100910000ADD42F21F014A460844002303A903905E
:10092000684600F044FE09E0A0F500504A461F3832
:10093000002303A90390684600F04EFE8DE80700EF
:100940000004000C03D04FF0FF30410800E01046D7
:10095000B8F1000F03D00022009215461EE0751E6C
:1009600005D400F0DDF9303262556D1EF9D5B3467D
:100970000122084302D000227F1C04E020783028A6
:1009800001D100227F1E002A099784D01DE0112D7D
:1009900007DA00F0C5F9303262556D1C50EA0102E9
:1009A000F5D1084302D00098C8B10EE00021681EBE
:1009B00005E0235C625C63542254401E491C814262
:1009C000F7DBAB46A81B401E0990002004F80B0083
:1009D0000B98099AC0F80880C0E9002B7AE7112625
:1009E0004FF0000857E72DE9F04F88460446D21D26
:1009F00022F0070191B0D1E90001CDE90A0103F02D
:100A00000EFA02460B98C00F01D02D2007E0206897
:100A1000810701D52B2002E0202101EAC000032A32
:100A2000099001D0072A05DB03464146204600F025
:100A3000BDF90BE12078800601D5E06900E00620D1
:100A4000B8F1650F814606D0B8F1660F18D0B8F13D
:100A5000670F70D131E00020B9F1110F009001DB78
:100A6000112301E009F101030AAA01A90CA8FFF76B
:100A7000E2FEDDE90C70002609F10105834647E03E
:100A800001204B4600904FF000470AAA01A90CA88C
:100A9000FFF7D1FEDDE90DB00C995D46002610B9D7
:100AA00009F101000D18B9EB050003D4C0F1FF36C0
:100AB00009F10105A5EB09002BE0B9F1010F01DAFD
:100AC0004FF001090020B9F1110F0090484601DDF7
:100AD000112300E003460AAA01A90CA8FFF7ABFE08
:100AE000DDE90C704D4600268346207800070AD4C5
:100AF000AB4500DA5D4601A8012D04DD411911F86E
:100B0000011C302907D04F4502DA17F1040F04DA2F
:100B1000012082460FE06D1EEEE7002F02DCED1B88
:100B20003E4403E0781CA84200DD7D1CB81B00F1A8
:100B3000010A4FF000472078000703D4AA4501DBE3
:100B40004FF0FF3A0021B7F1004F0DF143088DF847
:100B5000431024D002202B23002F01DA7F422D23C3
:100B60000A21021EA0F1010000DC5FB197FBF1FC3D
:100B700097FBF1F201FB1C7C17460CF1300C08F8D6
:100B800001CDEEE7A8F1010003702188090501D528
:100B9000452100E06521A0F1010800F8011C099839
:100BA0000FA9A1EB0807FF1D00B10120411901EBBE
:100BB000EA70A1693844081A401EA0612078C00676
:100BC00002D42046FFF712FC099828B1D4E901218C
:100BD0009047206A401C20622078C00622D520461B
:100BE000FFF704FC1EE0002E04DBB34502DD01A884
:100BF000805D00E03020D4E901219047206A401C4C
:100C00002062761CAAF101005FEA000A0AD100F016
:100C100083F8C0680168405CD4E901219047206AEC
:100C2000401C2062281EA5F10105DCDC07E0D4E9A8
:100C3000012118F8010B9047206A401C2062381EE1
:100C4000A7F10107F3DC2046FFF7E6FB032011B014
:100C500041E6000001694A1C02610878704700B54E
:100C60008FB0CDE901310021059105497944CDE9E5
:100C7000031011466846FFF71DFC0FB000BD0000D1
:100C8000E5FFFFFF0A6802F8010B0A6070472DE9D3
:100C9000F04791460F4680460446002614F8015B53
:100CA0002DB100F031F80068405DC007F6D12B2D62
:100CB00002D02D2D18D0641E4A463946204600F039
:100CC000B5F827B13968A14201D1C7F800804FF0CB
:100CD000020471050BD54042002803DDFFF742FDF9
:100CE0000460A007BDE8F08746F48066E4E70028CA
:100CF000F8DAFFF737FD04606FF00040F2E700001C
:100D0000004870472C45002010B500F005F8001D84
:100D100010BD00BF4D530000004870474C450020F7
:100D200030B5B0F10A024FEA900E71F100034EEABD
:100D3000817EB0EB0E0061EB91014FEA101E4EEA8E
:100D4000017E10EB0E0041EB11114FEA102E4EEA1E
:100D5000016E10EB0E0041EB11214FEA104E4EEAEE
:100D6000014E10EB0E0041EB1141401841F1000122
:100D70004FEAD00040EA41704FEAD10110EB800504
:100D80004FEA810444EA907444EB01046D1944EB8A
:100D90000404521BA3414FF0000348BF0A3200D5A0
:100DA00030BD401C41F1000130BD00002DE9F04193
:100DB0001F46044603260168072A01F4006004DB8D
:100DC00008B116A505E016A503E008B115A500E0D9
:100DD00015A521F010002060A069C01EA0610FB110
:100DE000401EA0612046FFF701FB4FB1D4E901216D
:100DF00038469047206A401C2062C01C206206E0F2
:100E0000206AFAE7D4E9012115F8010B9047761E14
:100E1000F8D22046FFF700FBBDE8F0814E414E00BE
:100E20006E616E00494E4600696E66002DE9F05F06
:100E3000824615468B4600270AF10104B946007820
:100E4000302801D09DB113E014F8010B0127782858
:100E500003D0582801D045B10AE00DB1102D07D1BB
:100E6000002714F8010B102502E0082500E00A25F0
:100E70000026B0460EE005FB080005FB06F1012741
:100E80001FFA80F801EB1046B6F5803F00D3B94653
:100E900014F8010B294600F0B0F80028EBDABBF19A
:100EA000000F05D00FB1641E00E05446CBF800409F
:100EB000B9F1000F06D0FFF755FC02210160C81EF2
:100EC000BDE8F09F48EA0640FAE700002DE9F04748
:100ED000814616468AB0354878440DC88DE80D0025
:100EE00032487844801C03AC0DC884E80D0041F6FC
:100EF0009B300844372190FBF1F290FBF1F5A5F10E
:100F0000800501FB12041B3C02D56442012000E075
:100F10000020DFF898A080460027FA44AAF1BE0A14
:100F20000EE0E0070AD03246684607EB470101238E
:100F30000AEB810100F050FB8DE8070064107F1C74
:100F4000002CEED1194F7F44AE3F19E0E80715D0D1
:100F500007EB04100DF1180A90E80E008AE80E0065
:100F6000C068F04201D1981908903246012306A9C1
:100F700003A800F031FB03AB83E807006D10641C8D
:100F8000002DE3D14FF0010332466946B8F1000F5E
:100F900003A802D000F00BFB01E000F01DFBC9E943
:100FA0000001C9F808200AB0BDE8F08728600000F9
:100FB0007546FFF7A5FEAE4605006946534620F08C
:100FC0000700854618B020B5FFF772F9BDE820404C
:100FD0004FF000064FF000074FF000084FF0000BF5
:100FE00021F00701AC46ACE8C009ACE8C009ACE8A8
:100FF000C009ACE8C0098D4670473A2800D23038A5
:1010000020F02002412A01D3A2F13700884201D307
:101010004FF0FF30704710B50446AFF30080204614
:10102000BDE81040FFF72FB94FF0013C50F8042BFA
:1010300051F8043B9A4221D1A2EB0C03934313EAEB
:10104000CC1317D150F8042B51F8043B9A4215D118
:10105000A2EB0C03934313EACC130BD150F8042BEF
:1010600051F8043B9A4209D1A2EB0C03934313EAD3
:10107000CC13DBD04FF00000704700BFD01A01BA8C
:10108000B1FA81F101F0180122FA01F0CB40C1F16F
:101090002001DBB2C0B2C01A2CFA01F3D11A91437D
:1010A00011EAC311E6D1704701491820ABBEFEE733
:1010B0002600020070475FEA400C08BF91F0000F65
:1010C0004FEA8C234FEAC12243EA51514FEA1C50A8
:1010D00018BF00F5F0404FEA300018BF41F0004162
:1010E0005FEA6C5C00F02980BCF1FF3F08BF40F074
:1010F00080407047130C06BF12044FF0100C4FF0E5
:10110000000C130E04BF12020CF1080C130F04BFE5
:1011100012010CF1040C930F04BF92000CF1020CAD
:10112000D30F04BF52000CF1010C11464FF0000226
:10113000A0F11F00A0EB0C00704711F0004F08BF9A
:10114000704731F000413FF4D5AF0B0C06BF0904E6
:101150004FF0100C4FF0000C0B0E04BF09020CF105
:10116000080C0B0F04BF09010CF1040C8B0F04BF1A
:1011700089000CF1020CCB0F04BF49000CF1010CEB
:10118000CCF12003A0EB0C0022FA03F302FA0CF2DC
:1011900041EA030100F10100704720F07F4C80EA32
:1011A000030023F07F47ACEB070303F57C5300F00B
:1011B000004003F1FF032DE980494FEA154B09B4C4
:1011C0004FEA144325EA0B4E24EA03480FF20426A3
:1011D00006EB132749083E785FEA320203FB0667F5
:1011E000C7F5000707FB06F64FEA54374FEAD64625
:1011F00006F1020607FB066CCCF1005C4FEA1C47C7
:101200002CEA074C07FB06F40CFB06F504EB15462D
:101210004FEA961634BF00204FF000404FEAD13716
:1012200006FB07FC4FEA1C4C0CFB0BF7D21B03FB25
:101230000CF761EB07010CFB0EF7B0EB074072EB0C
:1012400017420CFB08F734BFA2EB0742B2EB074290
:1012500061EB17414FEA0C444FEA910706FB07FC8C
:101260004FEA1C4C0CFB0BF7B0EBC74072EB57324C
:1012700003FB0CF734BFA2EBC742B2EBC74261EBF2
:1012800057310CFB0EF7B0EBC70072EB57720CFB3B
:1012900008F734BFA2EBC702B2EBC70261EB57718C
:1012A000039F4FEA816141EA921104EBCC044FEABB
:1012B000D1374FEA826206FB07FC42EA90124FEAFE
:1012C00080604FEA1C4C0CFB0BF7D21B03FB0CF7A6
:1012D00061EB07010CFB0EF7B0EB074072EB174216
:1012E0000CFB08F734BFA2EB0742B2EB074261EBFD
:1012F00017414FEA8C554FEA910704EB9C2406FBFB
:1013000007FC4FEA1C4C0CFB0BF7B0EBC74072EB31
:10131000573203FB0CF734BFA2EBC742B2EBC74214
:1013200061EB57310CFB0EF7B0EBC70072EB577255
:101330000CFB08F734BFA2EBC702B2EBC70261EBAC
:10134000577115EB4C254FEA816141EA92114FEA42
:1013500082624FEAD13742EA901206FB07FC44F161
:1013600000044FEA80604FEA1C4C0CFB0BF7D21BC9
:1013700003FB0CF761EB07010CFB0EF7B0EB07402A
:1013800072EB17420CFB08F734BFA2EB0742B2EB3B
:10139000074261EB174115EB1C154FEA813141EA19
:1013A00092414FEA823242EA90424FEA80304FEA5D
:1013B0000C7644F1000448EA03434EEA0B484FF030
:1013C000000EB2EB080C71EB030724BF62463946EE
:1013D0004EEB0E0E4FF0000B0018524149414BEB03
:1013E0000B0BB2EB080C71EB03077BF1000B24BF76
:1013F000624639464EEB0E0E4FF0000B001852417C
:1014000049414BEB0B0BB2EB080C71EB03077BF183
:10141000000B24BF624639464EEB0E0E51EA02071E
:1014200018BF46F0010616EB0E7655F1000254F196
:10143000000103D5BDE88901BDE80088BDE8890148
:10144000BDE80048B619524141EB0101A3F1010387
:10145000704780807F7E7D7C7B7A79787776767521
:101460007473727171706F6E6E6D6C6C6B6A6A6999
:101470006868676666656464636362616160605F33
:101480005F5E5E5D5D5C5C5B5B5A5A5959585857AC
:101490005756565555555454535352525251515014
:1014A00050504F4F4F4E4E4D4D4D4C4C4C4B4B4B67
:1014B0004A4A4A49494948484847474747464646AD
:1014C00045454544444444434343434242424241E8
:1014D0004141002B9C4630D477002BD01CB54FEAFD
:1014E000370703B44FF010004FF01001BAF1000FAE
:1014F00006D0BCF1000FDCBF40F0080040F008014E
:101500004FF000000FBCBDE810400BF1010BBBF128
:10151000010F08BF5FEA170722BF12F1010211F1A4
:1015200001014FF0004143F1000300F0004043EAA5
:1015300000007047F9D35708D0E746EA064613F192
:10154000400F4FEA16461FDD13F1200FDFBF164391
:101550000A46002120335B42BED0C3F1200746EA91
:10156000064602FA07F74FEA164646EA0706C3F1AF
:10157000200722FA03F201FA07F721FA03F14FF0EC
:10158000000342EA0702A7E746EA020646EA0646E1
:101590004FEA164646EA0106BCBF46EA0646360C46
:1015A0004FF000034FF000024FF0000194E72DE9E7
:1015B000804C9A46934670B491E8380007C831EAE7
:1015C000400C48BF34EA430C03D5FFF7E6FDFFF7B4
:1015D00080FFF0BCBDE8008C2DE9804C9A46934614
:1015E00070B491E8380007C810F0804F08BF13F0BE
:1015F000804F03D100F005F8FFF76BFFF0BCBDE8AA
:10160000008C20F07F4780EA030023F07F4C07EB3B
:101610000C03A3F57C5300F00040A3F1FE0392F00D
:10162000000F00F0B38095F0000F00F077802DE9F7
:1016300001494FEA11404FEA144621EA004800FBF5
:1016400006FC24EA064708FB06F607FB08F800FB41
:1016500007F718EB06484CEB164C4FEA124B18EB09
:1016600007484FEA15464CEB174022EA0B4E0BFB9E
:1016700006FC25EA06470EFB06F607FB0EFE0BFBF3
:1016800007F71EEB064E4CEB164C4FF000061EEB18
:10169000074E4CEB174B18EB0B0840F1000018EB12
:1016A0000E0B58EB000840F100008F1A4FF00001BC
:1016B0003CBFC943661B14BFB5EB040C00213CBF03
:1016C000C943F61B4FEA17444EEA8E0E27EA04453B
:1016D0004FEA1C4704FB07622CEA074C05FB07F79F
:1016E0000CFB05F604FB0CFC16EB074642EB17421D
:1016F00016EB0C4642EB1C421BEB060658EB0202B3
:10170000414146EA9E0601D5BDE80189B61952411C
:1017100041EB0101A3F10103BDE801894FEA144542
:101720004FEA114724EA054621EA074C05FB07F476
:1017300006FB07F70CFB06F105FB0CFC11EB074160
:1017400044EB17444FEA124711EB0C4144EB1C44A5
:1017500022EA074C05FB07F206FB07F70CFB06F62F
:1017600005FB0CFC16EB074642EB174216EB0C464A
:1017700042EB1C456A1854F1000148BF7047B61986
:10178000524141EB0101A3F10103704795F0000FB5
:1017900037D04FEA11424FEA144721EA024624EAC1
:1017A000074C02FB07F106FB07F70CFB06F402FBF4
:1017B0000CFC14EB074441EB17414FEA154714EBBF
:1017C0000C4441EB1C4125EA074C02FB07F506FBE4
:1017D00007F70CFB06F602FB0CFC16EB074645EB85
:1017E000174516EB0C4645EB1C42121951F100014E
:1017F00048BF7047B619524141EB0101A3F1010303
:1018000070474FEA14454FEA114724EA054621EA9A
:10181000074C05FB07F106FB07F70CFB06F24FF040
:10182000000605FB0CFC12EB074241EB174112EBE3
:101830000C4251EB1C4148BF7047921841EB01012B
:10184000A3F10103704710B50146806B026C12F0E2
:10185000500F05D0026CD20626D500F0EBF910BD72
:10186000016C41F40071016401688A6812F0405F04
:1018700017D1027EAAB9CA6A12F4700F02D08A6820
:1018800052050ED44A6822F020024A60016C21F40D
:1018900080710164016CC90403D4016C41F0010141
:1018A000016400F0C5F910BD806BC26CBDE810404A
:1018B0000846104710B5806B40210164416C41F02F
:1018C0000401416400F0B6F910BD10B5806B00F062
:1018D000B0F910BD014800F0AEB900003843002057
:1018E000464910B54A6822F440324A604A68436863
:1018F0001A434A6001684A6822F480724A600168AB
:101900004A68036942EA03224A6001684A6822F091
:1019100040724A6001684A6883681A434A600168F5
:101920008A6822F400628A6001688A68C3681A4380
:101930008A60816A6FF07062D14201688A6822F021
:1019400070628A6001688A680CD0836A1A438A6070
:1019500001688A6822F040528A6001688A68C36A16
:101960001A4301E022F040528A6001688A6822F03E
:1019700002028A6001688A68037E42EA43028A6042
:1019800090F82010002901684A680FD042F40062E4
:101990004A6001684A6822F460424A6001684A6805
:1019A000174C436A04EB43331A4301E022F400620C
:1019B0004A600168CA6A22F47002CA620168CA6A8F
:1019C000838B104C04EB03531A43CA6201688A6884
:1019D00022F400728A6001688A6890F8303042EA26
:1019E00043228A6001688A6822F480628A60016802
:1019F0008A68406942EA8020886010BD0023014067
:101A000000E0FFFF0000F0FFFEE70000014800F0EB
:101A100035BB00000C440020014800F02FBB000043
:101A20006C440020014800F029BB0000CC44002099
:101A300001681823CAB2103AB2FBF3F2054B6FF3F8
:101A40000901032A9B5CC36500D9091D816508460D
:101A500070470000D26D000810B5014600208B6968
:101A60008A6A4FF0C07453B1B3F5005F15D072B1FC
:101A7000012A0CD0022A0AD0032A09D104E01AB1A3
:101A8000012A06D0022A03D1C96AC90100D5012062
:101A900010BDC96AA142FAD010BD002AF7D0012AB0
:101AA000F2D0022AF3D0032AF3D010BD30B5046877
:101AB000256825F480252560046863608368402BD1
:101AC000036803D099600068C26030BD9A60006806
:101AD000C16030BD7047042000F06ABC72B6FEE7FA
:101AE0007047000078B50024009490F83C20012A4B
:101AF00019D0012280F83C200A6807230568092ACA
:101B000013D9EE680A3A02EB420293409E43EE601C
:101B10000B788A680A3B03EB43039A400368DD684D
:101B20002A43DA6010E0022078BD2E6902EB4202FF
:101B300093409E432E610B788A6803EB43039A40DF
:101B400003681D692A431A614A681F23072A13D2B2
:101B500005686E6B521E02EB820293409E436E63D9
:101B60000B790A885B1E92B203EB83039A400368E9
:101B70005D6B2A435A6327E005680D2A12D22E6B4B
:101B8000D21F02EB820293409E432E630B790A8898
:101B9000DB1F92B203EB83039A4003681D6B2A4359
:101BA0001A6311E0EE6A0D3A02EB820293409E4303
:101BB000EE620B790A880D3B92B203EB83039A40E5
:101BC0000368DD6A2A43DA62164B0568144A9D42AF
:101BD00006D10D68122D03D1556845F48005556076
:101BE00005689D4218D10B68102B01D0112B13D121
:101BF000536843F400035360096810290CD10A4963
:101C00000A4A0968B1FBF2F101EB8101490000E0E9
:101C1000491E00910029FBD180F83C40002078BD8E
:101C200000230140002001400403002040420F0037
:101C300070477047704770B5044600680168426895
:101C4000C1F34001C2F3401251B34AB3216CC9063B
:101C500003D4216C41F400712164816811F0405F6C
:101C600017D1217EA9B9C16A11F4700F02D0816821
:101C700049050ED4416821F020014160206C20F418
:101C800080702064206CC00403D4206C40F00100FC
:101C900020642046FFF7CCFF21686FF01200086037
:101CA000206801684268C1F38001C2F3C01289B3A1
:101CB00082B3216CC90603D4216C41F40051216424
:101CC000816811F4401F1ED1816B11F4401F02D0B6
:101CD0008168490517D44168490514D4816811F019
:101CE000405F10D1217E71B9416821F080014160CF
:101CF000206C20F480502064206CC00503D4206C3C
:101D000040F0010020642046FFF7EAFE21686FF0F2
:101D10000C00086020680168426811F0010FC2F3EE
:101D200080120ED06AB10068C0070AD0206C40F45F
:101D300080302064204600F046F821686FF00100F2
:101D40000860206801684268C1F34011C2F38062F4
:101D500000290DD0002A0BD0616C41F002016164B2
:101D60006FF0200505602046FFF764FF20680560DE
:101D700070BD70B504004FF0000503D0206C002644
:101D800010B107E0012070BD204600F01DF8666428
:101D900084F83C60206CC00610D4206C20F488507D
:101DA00040F0020020642046FFF79AFD6664206C34
:101DB00020F0020040F00100206400E0012584F8DA
:101DC0003C60284670BD704770B586B00646142149
:101DD0006846FEF79DFC2149306888423BD1204887
:101DE0000025016841F480710160006800F4807092
:101DF00005901B481438016841F00101016000683A
:101E0000694600F00100059003200090CDE901052E
:101E1000144800F0D9FA154C1348C4E90005001520
:101E2000A560C4E90350400060618000A0614011DA
:101E3000C4E907052046656200F0F0F908B1FFF734
:101E40004DFEB463002211461220A66300F034FC5C
:101E5000122000F023FC06B070BD000000200140FD
:101E60004438024000000240106402400C4400204C
:101E7000F8B5044600200E46009094F83C10012965
:101E800007D0012184F83C1021688B68DB0702D061
:101E900011E00220F8BD8B6843F001038B604049DC
:101EA000404B0968B1FBF3F101EB410100E0491E31
:101EB00000910029FBD121688B68DB0503D58B6875
:101EC00023F480738B6021688B68DB075DD0236C03
:101ED00040F20165AB4343F48073236449684905CC
:101EE00005D5216C21F4005141F480512164216C0D
:101EF000C90404D5616C21F00601616400E06064EE
:101F000084F83C00A16B2948274DC863A16B284881
:101F10000864A16B2748C86421686FF0220008603C
:101F20002068416841F0806141602068816841F427
:101F3000807181602168134632464C31A06B00F0FD
:101F4000D7F968681C49C006206806D0884224D1A9
:101F5000816811F0405F13D01FE08842F8D0174A23
:101F6000904203D1D1F80423D206F1D0144A904212
:101F700013D1D1F8041301F01F011029E8D30CE0AC
:101F8000816841F08041816007E0206C40F01000E2
:101F90002064606C40F0010060640020F8BD000027
:101FA0000403002040420F000023014047180008AE
:101FB000CB180008B518000800200140002101409E
:101FC000002201402DE9F0410446876D00F006FB38
:101FD000064694F835000025022806D0802060656A
:101FE00084F834500120BDE8F0812068016821F0B8
:101FF000160101602068416921F080014161206C77
:1020000008B9A06C20B12068016821F008010160C6
:102010002068016821F0010101600CE000F0DEFAA7
:10202000801B052807D920206065032084F835002F
:1020300084F83450D7E720680068C007EED194F8E0
:102040005C103F208840B860012084F8350084F897
:1020500034500020C7E790F83510022903D08021C2
:10206000416501207047052180F83510006801683E
:1020700021F0010101600020704700002DE9F843C4
:1020800004464FF00009CDF8009063484FF4165114
:10209000A56D0068B0FBF1F72E6894F85C1008207D
:1020A00000FA01F131420FD021680A6852070BD5BE
:1020B0000A6822F004020A6094F85C108840A86064
:1020C000606D40F00100606594F85C104FF001080D
:1020D00008FA01F0304208D021684969090604D5A0
:1020E000A860606D40F00200606594F85C10042008
:1020F0008840304208D021680968890704D5A86063
:10210000606D40F00400606594F85C101020884019
:10211000304218D021680968090714D5A8602068E2
:102120000168490304D50068000308D5A16C07E0E5
:102130000168C90503D4016821F008010160216C20
:1021400009B12046884794F85C102020884030422E
:1021500031D021680968C9062DD5A86094F83500EA
:1021600005282068016806D0490347D500680003A8
:102170001DD4616C1CE021F01601016020684169EA
:1021800021F080014161206C08B9A06C20B1206869
:10219000016821F00801016094F85C103F2088403C
:1021A000A86084F8358084F83490216D1FE0E16BDD
:1021B00009B120468847606D00282BD0606DC007AC
:1021C00014D0052084F835002068016821F0010151
:1021D00001600098401C0090B84203D82068006855
:1021E000C007F6D184F8358084F83490E16C00297A
:1021F00010D001B02046BDE8F04308470168C9058A
:10220000D5D4016821F01001016084F8358084F88C
:102210003490CCE7BDE8F883040300202DE9F041B9
:10222000044600F0DBF906465CB1022084F8350074
:10223000002584F834502068016821F00101016014
:102240000DE00120BDE8F08100F0C8F9801B0528F1
:1022500005D920206065032084F83500F2E7206866
:102260000068C007F0D12268116820480140D4E915
:1022700001031843D4E90336334318436369184311
:10228000A3691843E3691843236A18430843616A42
:10229000042903D1D4E90B131943084310602068C3
:1022A0004069666A20F0070130460E430127042882
:1022B0000CD1A06A0643E06A40B12046FFF7CCFB90
:1022C00020B14020606584F83570BAE72068466127
:1022D0002046FFF7ADFB94F85C203F2191408160E0
:1022E000656584F835700020ACE700003F8010F091
:1022F0002DE9F0410446866D90F834000025012850
:102300000DD0012084F8340094F835700020012F9E
:1023100007D084F8340002252846BDE8F081022069
:10232000FBE7022784F8357060652046FFF7BEFBA7
:1023300094F85C103F208840B0602068016841F04C
:1023400016010160206C20B12068016841F008018D
:1023500001602068016841F001010160DCE70000D4
:1023600070B5044600F03AF90546601C02D00448F6
:102370000078044400F032F9401BA042FAD370BD4B
:10238000F802002010B5084C0421204600F014F992
:10239000012807D100220821204600F01AF903493C
:1023A0000120C86110BD00000000024000000020B4
:1023B000044910B50A68024202D00860FFF7E2FF44
:1023C00010BD0000143C01402DE9F84FDFF8BCA11E
:1023D000002201250AF1040B03264FF00F090BF12F
:1023E000040E00BF0B6805FA02F42340A34270D12B
:1023F0000F7907F00307012F01D0022F16D187684C
:102400004FEA420806FA08FC27EA0C07D1F80CC08C
:102410000CFA08FC4CEA070CC0F808C04768A74350
:102420000C79C4F3001494403C4344600C79E443B9
:10243000A4070AD0C4684FEA420C06FA0CF7BC4362
:102440008F6807FA0CF72743C7600C7904F0030480
:10245000022C12D1D40800EB840CDCF82040570782
:10246000FF0E09FA07F824EA0804D1F8108008FAE8
:1024700007F848EA0408CCF8208004684FEA420CC8
:1024800006FA0CF7BC430F7907F0030707FA0CF7BD
:10249000274307604C6814F4403F70D03C4C2768D9
:1024A00047F480472760246822F0030704F480443F
:1024B0000094384C07EB040CDCF8084897074FEA07
:1024C000177809FA08F7BC43334FB84202D1002706
:1024D00024E054E0314FB84201D101271EE0304FD3
:1024E000B84201D1022719E02E4FB84201D103278B
:1024F00014E02D4FB84201D104270FE02B4FB84212
:1025000001D105270AE02A4FB84201D1062705E08C
:10251000284FB84201D1072700E0082707FA08F73B
:102520002743CCF80878DAF800405746D1F804C0C1
:102530009C435FEACC3C00D51C433C60DBF8004088
:102540005F46D1F804C09C435FEA8C3C00D51C4335
:102550003C60DEF800407746D1F804C09C435FEA57
:10256000CC2C00D51C433C60084F0C373C68D1F89C
:1025700004C09C435FEA8C2C00D51C433C60521C79
:10258000102AFFF42FAFBDE8F88F0000003C014097
:102590004438024000300140000002400004024084
:1025A00000080240000C02400010024000140240EB
:1025B00000180240001C02400069084000D00120C1
:1025C0007047426921EA02030A4043EA02418161FD
:1025D00070470AB1816170470904FBE701488068D0
:1025E00070470000F8020020024881680278114418
:1025F00081607047F80200200B4810B5016841F473
:1026000000710160016841F480610160016841F47A
:1026100080710160032000F06FF80F2000F006F8D1
:1026200000F024F8002010BD003C024070B50D4DB4
:1026300004464FF47A712878B1FBF0F00A49096832
:10264000B1FBF0F000F00CFB48B9102C07D20022CF
:102650002146501E00F030F800206C6070BD012053
:1026600070BD0000F8020020040300200A4808B5ED
:10267000016841F480410160006800F480400090EE
:102680000548001F016841F080510160006800F0BA
:102690008050009008BD000044380240002809DB4B
:1026A00000F01F02012191404009800000F1E0206C
:1026B000C0F8001170470000F0B40E4B1B680C46C8
:1026C000C3F30223C3F10705042D00D90425191D06
:1026D000072901D2002300E0DB1E012606FA05F1DE
:1026E000491E214099409E40761E16403143F0BC61
:1026F00001F0ADBB0CED00E0064900F007020868F0
:102700004FF6FF03184040EA0220034A10430860D6
:10271000704700000CED00E00000FA052DE9F047DD
:102720000E46050065D0DFF81481D8F80000F7B236
:1027300000F00700B04207D288F80070D8F8000017
:1027400000F00700B04254D128683D4C810712D5F3
:10275000400703D5206840F4E05020602878000747
:1027600003D5206840F4604020602068A96820F00C
:10277000F000084320602878C0072DD030496868F1
:102780000839012812D0022813D0032811D0096873
:10279000890700292DDA216821F003010143216016
:1027A000FFF71CFF814641F2883A0EE00968890371
:1027B000EFE709688901ECE7FFF710FFA0EB0901DB
:1027C000514502D90320BDE8F0872068696800F010
:1027D0000C00B0EB810FEFD1D8F80010404601F0AB
:1027E0000701B14207D90770006800F00700B04246
:1027F00001D00120E7E72878400705D52068E9687F
:1028000020F4E050084320602878000706D52068AF
:10281000296920F4604040EAC100206000F038F8E7
:102820002168084AC1F30311515CC8400649086099
:1028300006480068FFF7FAFE0020C4E7003C0240AB
:1028400008380240DA6D000804030020FC02002072
:102850000448054900680968044AC1F38221515CB3
:10286000C84070470403002008380240EA6D0008A1
:102870000448054900680968044AC1F34231515CC3
:10288000C84070470403002008380240EA6D000881
:10289000154810B5006810F00C02144813D0144904
:1028A000042A0FD0082A0ED10F4C241F2268236857
:1028B00002F03F025B0207D52068C0F38810A0FB3E
:1028C000010106E0084610BD2168C1F38811A1FB93
:1028D00000010023FDF7FEFC2168C1F30141491C02
:1028E0004900B0FBF1F010BD083802400024F400AC
:1028F00040787D012DE9F84F04006ED02078DFF894
:102900004C93C007A9F104054AD009F104000168FD
:10291000C1F38101012908D00068C0F381000228B9
:102920000AD1D9F80000400206D52868800337D5BF
:1029300060680028E1D033E06068B0F5803F10D0D7
:10294000B0F5A02F286810D020F4803028602868C7
:1029500020F4802028606068A8B1FFF73FFE06469B
:102960000DE0286840F48030F4E740F480202860CF
:10297000F7E700BFFFF732FE801B642873D8286892
:102980008003F7D50CE0FFF729FE064605E000BFFF
:10299000FFF724FE801B6428F0D828688003F7D452
:1029A0002078DFF8AC8280074FF0000A3ED5A748B8
:1029B000001D016811F00C0F08D00068C0F3810001
:1029C00002280BD1D9F80000400207D428688007FC
:1029D00016D5E068012800D112E033E1E068B8B113
:1029E0000120C8F80000FFF7F9FD064605E000BF2A
:1029F000FFF7F4FD801B0228C0D828688007F7D5B0
:102A00002868216920F0F80040EAC10028600DE044
:102A1000C8F800A0FFF7E2FD064604E0FFF7DEFD80
:102A2000801B02281FD828688007F7D42078000769
:102A300022D5864F87486169703771B101210160E5
:102A4000FFF7CCFD064604E0FFF7C8FD801B022817
:102A500009D838688007F7D50EE0C0F800A0FFF766
:102A6000BDFD064605E082E0FFF7B8FD801B0228A9
:102A70007DD838688007F7D42078400768D5DFF81C
:102A8000CCB100270BF13C0BDBF80000C0000BD4ED
:102A9000DBF8001041F08051CBF80010DBF80000AB
:102AA000012700F0805000906B4E3068C00510D4B4
:102AB000306840F480703060FFF790FD009005E0D2
:102AC000FFF78CFD0099401A022850D83068C005E5
:102AD000F6D55E4EA0686C3601280FD00528306808
:102AE00010D020F001003060306820F00400306029
:102AF000A068B8B1FFF772FD00900FE0306840F0B9
:102B00000100F4E740F004003060F7E7FFF766FDEE
:102B10000099411A41F28830814266D830688007B6
:102B2000F4D50EE0FFF75AFD009007E0FFF756FDE1
:102B30000099411A41F28830814256D830688007A6
:102B4000F4D42FB1DBF8001021F08051CBF8001045
:102B5000A069C8B33D49091D0968C1F38101022973
:102B60004AD00228504607D0C8F8600000E03CE098
:102B7000FFF734FD04463BE04746C8F86000FFF726
:102B80002DFD064605E000BFFFF728FD801B02284B
:102B90002BD828688001F7D4D4E907010843A16A3B
:102BA0002E4A490802EB0141626A41EA8211084358
:102BB00094F82C1040EA0161C9F800100120386631
:102BC000FFF70CFD044606E03EE000BFFFF706FD00
:102BD000001B022809D828688001F7D534E000BF1F
:102BE000FFF7FCFC001B022802D90320BDE8F88F88
:102BF00028688001F4D427E00128F7D0D9F8000034
:102C0000E26900F4800191421CD1226A00F03F0188
:102C1000914217D147F6C071626A0140B1EB821F41
:102C200010D1A26A4FF0FF3300F4403103EB52029F
:102C3000B1EB024F06D194F82C1000F07060B0EBAD
:102C4000016F01D00120D1E70020CFE70438024016
:102C500000004742800E4742007000400000FFFF26
:102C600010B5401EB0F1807F01D3012010BD4FF0A0
:102C7000E02460610F21601701F0E9F80020A061F5
:102C800007202061002010BD7047704770B590F894
:102C90003C20012A32D0012480F83C40022280F8F6
:102CA0003D2003685A689D6822F070060A68324326
:102CB0005A60134B02689A4214D0B2F1804F11D07F
:102CC000104B9A420ED0104B9A420BD00F4B9A42A7
:102CD00008D00F4B9A4205D00E4B9A4202D00E4BB1
:102CE0009A4204D1496825F080031943916080F825
:102CF0003D40002180F83C10084670BD022070BDA8
:102D0000000001400004004000080040000C0040AA
:102D100000040140004001400018004010B50400CC
:102D200003D094F83D0010B107E0012010BD002051
:102D300084F83C00204600F01FF8022084F83D0093
:102D4000211D206800F09AFE012084F8460084F8D6
:102D50003E0084F83F0084F8400084F8410084F885
:102D6000420084F8430084F8440084F8450084F865
:102D70003D00002010BD000008B5006817498842DA
:102D80002AD11748016841F0010101600068002262
:102D900000F00100009011461820FFF78DFC18206C
:102DA000FFF77CFC002211461920FFF785FC192053
:102DB000FFF774FC002211461A20FFF77DFC1A2051
:102DC000FFF76CFC002211461B20FFF775FCBDE8E5
:102DD00008401B20FFF762BC08BD00000000014056
:102DE0004438024090F83D10012901D0012070477D
:102DF000022180F83D100168CA6842F00102CA60F1
:102E000000681149884214D0B0F1804F11D00F49A9
:102E100088420ED00E4988420BD00E49884208D015
:102E20000D49884205D00D49884202D00C4988429C
:102E300004D1816801F00701062903D0016841F03F
:102E400001010160002070470000014000040040C3
:102E500000080040000C0040000401400040014018
:102E60000018004070B5044690F83C000025012889
:102E700017D0012684F83C60022084F83D002068C9
:102E8000826822F0770222F47F428260086850282C
:102E900038D00DDC20284FD005DC90B3102811D19C
:102EA0004AE0022070BD302846D040280AD13BE0DD
:102EB00060282FD070280DD0B0F5805F03D0B0F51A
:102EC000005F12D0012584F83D60002084F83C00AA
:102ED000284670BDCB68D1E90121206800F032FEA0
:102EE0002068816841F0770109E0CB68D1E90121D0
:102EF000206800F027FE2068816841F480418160ED
:102F0000E1E719E0CA684968206800F02DFE502109
:102F1000206806E0CA684968206800F036FE602133
:102F2000206800F019FECEE7CA684968206800F002
:102F30001BFE40212068F4E7226801461046F0E7B6
:102F4000704770B50446006801694FF00005C94339
:102F5000890715D4C168C943890711D4E91E0161E5
:102F600001202077206880698007204602D0FFF783
:102F7000E7FF04E000F098F8204600F096F8257787
:102F800020680169C943490717D4C168C943490783
:102F900013D46FF00401016102202077206880695A
:102FA00010F4407F204602D0FFF7CAFF04E000F093
:102FB0007BF8204600F079F8257720680169C9433D
:102FC000090716D4C168C943090712D46FF0080174
:102FD0000161042020772068C0698007204602D064
:102FE000FFF7AEFF04E000F05FF8204600F05DF868
:102FF000257720680169C943C90617D4C168C94348
:10300000C90613D46FF010010161082020772068F1
:10301000C06910F4407F204602D0FFF791FF04E022
:1030200000F042F8204600F040F82577206801695A
:10303000C943C90708D1C168C943C90704D1891E5A
:103040000161204600F032F820680169C943090691
:1030500009D4C168C943090605D46FF08001016134
:103060002046FFF711FE20680169C943490609D4CB
:10307000C168C943490605D46FF04001016120468B
:1030800000F024F920680169C94389060BD4C1689E
:10309000C943890607D46FF0200101612046BDE8CD
:1030A0007040FFF7F2BD70BD704770472DE9F041E9
:1030B00070492DED048B88427DD16F4C40F2145045
:1030C0002061206A401C2062E068401CE060E169E9
:1030D000012902D1A168491CA160684900258842E4
:1030E0000ED36748FDF79EFA82B2624864494830C1
:1030F00000F02AFB4FF480516248FFF762FAE56066
:10310000616AA068884206D3012208215E48E56111
:10311000FFF75FFAA560206A14284CDBDFF86081B6
:10312000A8F15C08B8F80000A0F2F16003F000FA22
:1031300041EC180B08F1340008F12C0780ED008BEE
:103140005248616897ED001B00EBC10651EC110B72
:1031500096ED000B53EC102B03F05CFC41EC190BCB
:1031600053EC182B51EC180B03F048FA41EC100B00
:1031700051EC190B86ED000B53EC102B02F0C4FF41
:1031800041EC100B87ED000B9FED418B53EC182B9E
:1031900003F076F841EC100B01F092FCA7F1080067
:1031A0009FED3D1B80ED000B53EC112B51EC100BF0
:1031B00003F024FA00E058E09FED391B53EC112B8B
:1031C00002F0A2FFA7F11002C2E90001B8F8020064
:1031D00003F0C5F941EC100B07F12800A0F1080637
:1031E00080ED000B96ED001B53EC102B51EC110BF6
:1031F00002F08AFF41EC100B86ED000B6068401C6A
:103200006060B0F57A7F2FDB53EC182B51EC100B7C
:10321000656003F035F841EC100BA6F108009FED56
:10322000221B80ED000B53EC112B51EC100B03F023
:1032300027F89FED1F1B53EC112B03F0DFF941EC36
:10324000100B1D489FED1D1B80ED000B53EC112B47
:1032500051EC100B03F0D2F9A6F110029FED190BFF
:10326000C2E9000186ED000B2562BDEC048BBDE8D0
:10327000F08100008043002000000020400D03008A
:1032800048010020000C024000000240080300201A
:103290000000000000408F40992A1895D409D43FBF
:1032A000C217265305A3C23F0000000000FCAF4038
:1032B000000000000000084048220020000000003C
:1032C00000005940000000000000000070477047F7
:1032D00070470000F8B5016804460868CA684B6981
:1032E00010F00F0F4FF0000559D003F0010602F463
:1032F0009077374365D0C10705D0D10503D5216C40
:1033000041F001012164410705D5D90703D0216CA3
:1033100041F002012164810705D5D90703D0216C52
:1033200041F004012164010707D502F02001314377
:1033300003D0216C41F008012164216C00293AD0AE
:10334000800604D5900602D5204600F05FFC206878
:103350004069216CC0F38010090700D460B3204697
:1033600000F02DFC20684069400621D5206814300B
:1033700050E8001F21F0400140E80012002AF5D17A
:10338000A06BA8B16C490165A06BFEF764FE002834
:1033900011D0A06B016D01B0BDE8F0400847830675
:1033A0000FD593060DD52046BDE8F84000F02EBCA1
:1033B0002046FFF78DFFF8BD2046FFF789FF256403
:1033C000F8BD266B2023012E79D1C60677D5D60607
:1033D00075D50868486800904869400640D5A16BDB
:1033E000086840680004000CEAD0A28D8242E7D948
:1033F000E085C869B0F5807F2DD020680C3050E89A
:10340000001F21F4807140E80012002AF5D12068E5
:10341000143050E8001F21F0010140E80012002A9A
:10342000F5D12068143050E8001F21F0400140E839
:103430000012002AF5D184F83E30256320680C3054
:1034400050E8001F21F0100140E80012002AF5D1D9
:10345000A06BFEF7B7FDA08DE18D401A81B229E087
:10346000A08DE18D401A81B2E08D0028A8D00029FE
:10347000A6D020680C3050E8002F22F4907240E86B
:103480000026002EF5D12068143050E8002F22F0DD
:10349000010240E80026002EF5D184F83E30256375
:1034A00020680C3050E8002F22F0100240E8002382
:1034B000002BF5D12046FFF70AFFF8BDFFE7050610
:1034C0002BD5150629D594F83D002128F5D1A06803
:1034D000B0F5805F01D12069B0B1206A411C216242
:1034E000216800784860E08C401E0004000CE084F5
:1034F000E3D12068C16821F08001C1602068C16803
:1035000041F04001C160D8E7206A0088C0F308009C
:103510004860206A801C2062E5E74006CDD5500651
:10352000CBD5CA68204622F04002CA6084F83D30FC
:1035300000F029F9C1E70000AF3B000870B50400B6
:1035400004D094F83D00002510B106E0012070BDC4
:1035500084F83C50204600F023F8242084F83D00F5
:103560002068C16821F40051C160204600F0AEFB24
:103570002068016921F4904101612068416921F0CE
:103580002A0141612068C16841F40051C16025648D
:10359000202084F83D0084F83E00002070BD00002B
:1035A0002DE9F04186B0064614216846FDF7B0F8D3
:1035B0002F493068884257D12E480024016841F0D5
:1035C00020010160006800F02000059029481438AF
:1035D000016841F0040101600068694600F00400E0
:1035E0000590C02000900220CDE901040320039043
:1035F000082004902048FEF7E7FE214D1F484FF4B5
:10360000806887052860C5E90174C5E903486C61D5
:103610004FF44030AC61C5E9074028466C62FEF7C4
:10362000FDFD08B1FEF75AFAB563AE631348154DB8
:103630007830E5E802074020A5E81101114845F877
:103640001449AC61EC612C626C62FEF7E7FD08B1D5
:10365000FEF744FA7563002211464720AE63FFF778
:103660002BF84720FFF71AF806B0BDE8F0810000FC
:10367000001401404438024000080240286402401F
:103680006C440020CC44002090F83E30202B0ED11A
:1036900059B152B190F83C30012B08D0012380F889
:1036A0003C300023036300F097BB012070470220E9
:1036B0007047000070B51E48FCF7B4FF022836D8EA
:1036C00002221B491B48FFF7DFFF1948FCF7AAFF3E
:1036D000024619A11648FCF7C4FF1548FCF771FF14
:1036E0000025134C28280FD032280DD03D280BD0B0
:1036F0000121134B0A2809D00B280AD0114B14289A
:103700000BD015280CD011E0A0610FE001226161FF
:1037100001E000226561102105E00122616101E004
:103720000022656180211846FEF753FF257070BDA9
:1037300000000020C84300206C6F6E746F6E67003D
:10374000000002400010024090F83D30202B18D1BC
:10375000A9B1A2B190F83C30012B12D00162828451
:10376000C28400210164212280F83D2080F83C10B1
:103770000068C16841F08001C160002070470120ED
:103780007047022070477047FEE700007FB50025B4
:103790001A48009501950295174903950160012487
:1037A0004FF440310461C0E90115047680F82050DF
:1037B0001349C0E90A150226C661C56080F8304089
:1037C0004461FEF7D6FA08B172B6FEE7072000950D
:1037D000CDE9014069460948FEF784F908B172B69F
:1037E000FEE7CDE9004669460448FEF77BF900286C
:1037F00001D072B6FEE77FBD0020014038430020B3
:103800000100000F2DE9F04387B014216846FCF752
:103810007FFF3C480024016841F08001016001689D
:1038200001F080010591016841F00101016001682A
:1038300001F001010591016841F01001016001688A
:1038400001F010010591016841F008010160016873
:1038500001F008010591016841F004010160006870
:10386000294F00F004000590002218213846FEF789
:10387000B0FEDFF89880002280214046FEF7A9FEC6
:10388000DFF88C9044F2FF06002231464846FEF7EE
:10389000A0FE042000904FF48810CDE90104694691
:1038A0003846FEF791FD182000900125CDE901541E
:1038B000694638460394FEF787FD80200090CDE9E5
:1038C0000154694640460394FEF77EFD0096CDE91B
:1038D0000154694648460394FEF776FD4FF4407064
:1038E000CDE9000469460B480294FEF76DFD002205
:1038F00011460820FEF7E0FE0820FEF7CFFE07B0D5
:10390000BDE8F08330380240000002400010024061
:10391000000C02400008024010B586B00024184890
:103920000094019402940394049414490594016052
:103930002921C0E901140921C0E903148021C0E94B
:103940000541FFF7EBF908B172B6FEE74FF480507E
:10395000009069460A48FFF785FA08B172B6FEE79B
:103960002020CDE9040404A90548FFF78FF90028B9
:1039700001D072B6FEE706B010BD000000000140A5
:1039800080430020FEE7B4EEE00AF1EE10FA06D321
:10399000F4EEC00AF1EE10FA01D2B0EE600A704700
:1039A000FEE770477047FEF71FBE000030B593B0CA
:1039B00030216846FCF7ACFE14210CA8FCF7A8FEE9
:1039C0001C480025016841F080510160006800F04A
:1039D000805011901848016841F4804101600068EE
:1039E000022400F4804011900120039010200490E4
:1039F000009406940820CDE907505420CDE909042D
:103A000004200B906846FEF775FF08B172B6FEE71A
:103A10000CA90F2081E831004FF480500F901090D6
:103A200002210CA8FEF77AFE002801D072B6FEE74C
:103A300013B030BD403802400070004002480168B9
:103A400041F470010160704788ED00E00148FFF724
:103A500078BA0000804300200148FFF772BA0000E6
:103A6000804300200148FFF76CBA0000804300202B
:103A70000148FFF766BA000080430020F0B50268F5
:103A8000254C264D264E274F274B4FF0804CA04209
:103A900009D0604507D0A84205D0B04203D0B84253
:103AA00001D0984204D122F0700E4A6842EA0E0218
:103AB000A0421BD0604519D0A84217D0B04215D003
:103AC000B84213D0984211D0184DA8420ED0184DCC
:103AD000A8420BD0174DA84208D0174DA84205D0D8
:103AE000164DA84202D0164DA84203D122F44075CB
:103AF000CA682A434D6922F080022A4302608A681C
:103B0000C2620A688262A04201D0984201D109696A
:103B1000016301214161F0BD00000140000400404B
:103B200000080040000C004000040140004001403B
:103B3000004401400048014000180040001C0040C3
:103B40000020004010B5846842EA032224F47F4438
:103B50000A432243826010BD826822F070020A4349
:103B600042F007018160704710B5036A046A24F0CF
:103B700001040462846924F0F00444EA021423F08E
:103B80000A020A438461026210BD10B5036A23F081
:103B9000100303628369046A23F4704343EA023228
:103BA00024F0A00343EA01118261016210BD10B547
:103BB000806B0021C185C184FFF78AFB10BD0168BD
:103BC0000C3151E8002F22F4907241E80023002BC1
:103BD000F5D10168143151E8002F22F0010241E8CB
:103BE0000023002BF5D1016B012909D101680C31AB
:103BF00051E8002F22F0100241E80023002BF5D1FC
:103C0000202180F83E1000210163704708B590F82C
:103C10003E10222901D0022008BD82684FF4805353
:103C20009A4201D1016921B1816A9A421BD04AB1FD
:103C30000AE00268816A5268C2F308020A80816A57
:103C4000891C08E0026972B10268526802F07F02C2
:103C50000A70816A491C8162C18D491E0904090CE0
:103C6000C18503D019E002685268F1E70168CA68AB
:103C700022F02002CA600168CA6822F48072CA6019
:103C800001684A6922F001024A61202180F83E1051
:103C9000016B012903D0FFF70DFD002008BD0021B5
:103CA000016301680C3151E8002F22F0100241E855
:103CB0000023002BF5D101680A68D20602D50A68F4
:103CC00049680091818DFFF702FBE6E770B5044675
:103CD00000680169E26821F44051114301612169E2
:103CE000A068E26908436169114308432168CA6812
:103CF00049F20C639A430243CA6020684169A26991
:103D000021F440711143416131492068884202D059
:103D10003049884202D1FEF7ABFD01E0FEF798FD85
:103D2000E2690023192164253226B2F5004F62684A
:103D300028D0A0FB0101930F9200FCF7CBFA0146BB
:103D4000B0FBF5F06FF01802504301EB800006EB7A
:103D50000010B0FBF5F000F0F002B1FBF5F002EB63
:103D60000012B1FBF5F06FF01803584301EB80002F
:103D700006EB0010B0FBF5F000F00F0021681044D6
:103D8000886070BDA0FB010192185B41FCF7A2FAAC
:103D90000146B0FBF5F00201B1FBF5F06FF018033E
:103DA000584301EB800006EBC000B0FBF5F000F0DB
:103DB000F80002EB4002B1FBF5F0584301EB800044
:103DC00006EBC000B0FBF5F000F00700D6E70000FE
:103DD000001001400014014081628285C2850021EB
:103DE0000164222280F83E2080F83C100168CA68F5
:103DF00042F48072CA6001684A6942F001024A6175
:103E00000068C16841F02001C160002070470000D7
:103E10000148FFF75FBA0000C8430020FEE703B483
:103E200001984100009850EAC12018BF04204A0DB3
:103E300018BF40F0010040F2FF72B2EB515F08BFC3
:103E400040F00200012808BF052002B070470907B2
:103E5000090E002804DB00F1E02080F80014704710
:103E600000F00F0000F1E02080F8141D7047000002
:103E70002DE9F04D2DED040B2DED0E8B96B0DDE907
:103E80002550279CDDF890A025F0004624F000483E
:103E9000BAF1000F14BF0121002101EB4502FC49DA
:103EA00053184A1093422AD3002814BF0123002339
:103EB00003EB44030B44F7498B4220D358EA00013B
:103EC0009FEDF59B76D0DFF8D8B35D4503D1BAF10D
:103ED000000F05D188E0BAF1000F08BF002100D023
:103EE000012101EB450111F5001F08D8002814BF7E
:103EF0000121002101EB440111F5001F0BD99DEDBB
:103F0000261B9DED240B16B0BDEC0E8B04B0BDE856
:103F1000F04D00F0A9BE0027002DBCBFE149884547
:103F200021DAE1498845A8BF02271CDAC3451ADC1B
:103F3000DE4901EB2851142908DDC1F1340220FAD1
:103F400002F101FA02F282420DD108E058B9C1F142
:103F5000140228FA02F101FA02F2424503D101F0FB
:103F60000101C1F1020756EA0A0124D1002C22DA2C
:103F7000002D18BF022F01D0012F0AD00220FCF71C
:103F8000FAFB16B0BDEC0E8B04B0BDE8F04D00F0AE
:103F900053BE0220FCF7EFFB00F04EFE51EC100B7D
:103FA00002F074F841EC100B16B0BDEC0E8B04B0AF
:103FB000BDE8F08D18E09FEDBEAB9FEDBF8B0028F4
:103FC00071D1B848804522D105F1804010F58010AC
:103FD00008BFBAF1000F07D0B3450ADC002CA8BF18
:103FE0009DED260BE0DA0DE0B0EE490AF0EE690A2D
:103FF000DAE7002C06DA9DED260B51EC100B02F0EF
:1040000045F86FE0AE48784490ED000BCCE7D8451A
:104010004DD1002C48DA2EB186423AD1BAF1000FC8
:1040200042D126E0BAF1000F13D00220FCF7A3FB27
:1040300000F036FE8DED020B9DED240B8DED000B97
:1040400010EE900A039961F31E0003909DED020BA0
:10405000AAE78DED02AB9DED240B1AEE901A10EE3F
:10406000900A8DED000B61F31E0003909DED020B95
:104070009AE78DED028B9DED240B18EE901A10EE51
:10408000900A8DED000B61F31E0003909DED020B75
:104090008AE709DA9DED240B51EC190B53EC102B38
:1040A00002F0EEF81EE020E09DED240B7CE7864256
:1040B0001BDAB4F1804F0DD0A4F10050B0F1FF50E5
:1040C00013D1002D11DB9DED240B51EC100B01F0F1
:1040D00072FF07E09DED240B53EC102B51EC100BFD
:1040E00000F0C2BC41EC100B5EE79DED240B51ECDF
:1040F000100B00F02FFEBAF1000FCDE90E0142D1F6
:104100009FED710B46B3A6F1E040B0F17F600CD09B
:104110005E4538D1002D00DAA7B3022F0CBF012075
:104120004FF0FF3002F004FADCE7002D01DD002C37
:104130000DDA002D01DD002C1FDB002D16DA002C1E
:1041400014DB012F08BF9FED620B3FF42DAFB0EEE3
:104150004A0AF0EE6A0A27E7022F18BF002D0CD09A
:10416000012F0AD1002DFFF61FAF06E0002DB8BFCA
:10417000002C08DA012F3FF417AFB0EE480AF0EE3A
:10418000680A11E71BE0012000EBE57050EA070127
:1041900015D0791EB0EE498AF0EE698A084308BF4F
:1041A0009FED4D8B4E480025804570DD4D494E48B2
:1041B000884514DDB0420DDB002C19DB2FE0012017
:1041C000FCF7D9FA16B0BDEC0E8B04B0BDE8F04D8B
:1041D00000F056BDB34502DC002C09DC1FE086422E
:1041E00002DA002C1BDA03E05E452BDD002C16DD25
:1041F0000220FCF7C0FA00F053FD8DED020B53ECEA
:104200001A2B51EC180B02F0F9F9CDE900010399D2
:10421000019861F31E0003909DED020BC4E602209D
:10422000FCF7A9FA00F04CFD10EE901A18EE900A77
:104230008DED020B8DED008B61F31E0003909DED63
:10424000020BB1E69DED0E0B53EC192B51EC100B4C
:1042500002F0E0FB9FED260BCDE9080153EC102B9B
:104260009DED080B51EC100B02F0C8F99FED221BDD
:1042700053EC112B02F0F6FA9DED081B53EC112BB9
:1042800002F0BCF99FED1E1B53EC112B3CE08CE0BF
:10429000FFFF1F00FFFF0F00000000000000F03FC5
:1042A0000000F03F0000F07F0000404301FCFFFFF2
:1042B000000000000000F07F00000000000000008F
:1042C000762E0000000000000000000000000080CA
:1042D000000000000000F0FF000000000000F0BF40
:1042E0000000E0410000F043FFFFEF3F000000004E
:1042F000000000000000D03F555555555555D53F9D
:10430000000000000000E03F02F0ACFA9DED080B59
:1043100041EC1A0B53EC102B51EC100B02F06EF920
:1043200053EC1A2B02F06AF941EC1A0B9FEDFE0BCD
:1043300053EC102B9DED080B51EC100B02F05EF9C5
:1043400041EC1B0B9FEDFA0B51EC1A0B53EC102BAD
:1043500002F054F941EC1A0B9FEDF70B53EC102BC4
:104360009DED080B51EC100B02F048F953EC1A2BA1
:1043700002F050FB41EC1A0B51EC1B0B53EC1A2BC7
:1043800001F0C2FE0690CDE906519DED060B53ECFF
:104390001B2B51EC100B02F03DFB53EC1A2B02F0DF
:1043A00061FA41EC100B00F0A1B90020B6F5801FB6
:1043B0000EDA9FEDE30B53EC102B9DED0E0B51EC41
:1043C000100B02F01BF9CDE90E016FF034000E4620
:1043D00000EB2650A0F2FF37C6F31300DA4940F095
:1043E0007F6646F040568842D8BF002408DDD74992
:1043F0008142C8BF012403DC0024A6F580167F1C7F
:10440000D348784400EBC4000F9690ED00CB9DEDAF
:104410000E0B53EC1C2B51EC100B02F0FBFA9DED34
:104420000E0B41EC1B0B53EC1C2B51EC100B01F051
:104430006BFE41EC100B51EC190B53EC102B01F0FF
:104440001FFF41EC1D0B51EC1B0B53EC1D2B02F01D
:10445000D5F841EC1A0BBF488DED10AB78441095A0
:1044600090ED000B4FF0005040EA660000EB8440F6
:104470008DED080B00F5002009909DED080B53EC25
:104480001C2B51EC100B02F0C5FA9DED0E1B53ECEA
:10449000112B02F0E7F941EC100B53EC102B9DEDC2
:1044A000100B51EC100B02F0A9F89DED080B41EC3C
:1044B0001C0B53EC102B9DED100B51EC100B02F06C
:1044C0009DF853EC1B2B02F0CDF953EC1C2B02F0A2
:1044D000A1FA53EC1D2B02F091F841EC1C0B53ECAC
:1044E0001A2B51EC1A0B02F089F841EC1B0B9A487D
:1044F0000621B0EE4B0AF0EE6B0A784400F01DFB8B
:10450000B0EE401AF0EE601AB0EE41DAF0EE61DA89
:1045100053EC1B2B51EC1B0B02F070F853EC1D2BD2
:1045200002F06CF89DED100B41EC1B0B53EC1A2BB9
:1045300051EC100B01F0E8FD53EC1C2B02F05EF87F
:1045400053EC1B2B01F0E0FD9DED100B41EC1B0B20
:1045500053EC102B51EC100B02F050F841EC1D0BFA
:104560009FED7FEB53EC1E2B01F0CEFD53EC1B2B8C
:1045700001F0CAFD0890CDE908519DED080B53EC00
:104580001E2B51EC100B02F045FA53EC1D2B02F0E0
:1045900041FA53EC1B2B02F065F99DED080B41EC41
:1045A0001D0B53EC102B9DED100B51EC100B02F07A
:1045B00025F841EC1B0B53EC1A2B51EC1D0B02F0B0
:1045C0001DF89DED080B41EC1A0B53EC102B51EC30
:1045D0001C0B02F013F853EC1A2B01F095FD41EC83
:1045E0001A0B51EC1B0B53EC1A2B01F08DFD0C90A8
:1045F000CDE90C519DED0C0B53EC1B2B51EC100B2A
:1046000002F008FA53EC1A2B02F02CF941EC1B0BC8
:104610009FED550B53EC102B9DED0C0B51EC100B3B
:1046200001F0ECFF41EC1A0B9FED510B51EC1B0B11
:1046300053EC102B01F0E2FF41EC1B0B9FED4E0BF6
:1046400053EC102B9DED0C0B51EC100B01F0D6FF31
:1046500053EC1B2B01F058FD41EC100B48487844FB
:1046600000EBC40090ED001B51EC100B53EC112B30
:1046700001F04AFD41EC1B0B384601F059FFCDE932
:10468000080153EC1B2B51EC1A0B01F03DFD41ECE2
:10469000100B3C48784400EBC40090ED00CB51EC8B
:1046A000100B53EC1C2B01F02FFD9DED081B53EC60
:1046B000112B01F029FD0690CDE906519DED080B67
:1046C00053EC102B9DED060B51EC100B02F0A2F9F0
:1046D00053EC1C2B02F09EF953EC1A2B02F09AF9C2
:1046E00053EC1B2B02F0BEF841EC100B9DED261B8A
:1046F00053EC102B8DED001B00959DED260B51EC1E
:10470000100B01F07BFF9DED000B41EC1A0B53ECFD
:10471000102B9DED260B51EC100B02F07BF99DED5B
:10472000061B53EC112B2FE0000000604715F73FEC
:10473000FE822B654715F73F44DF5DF80BAE543E14
:1047400000000000000040438E9803007AB60B0082
:10475000F2290000202A00002A29000000000000A1
:104760000000000000000840000000E009C7EE3F24
:10477000FD033ADC09C7EE3FF5015B14E02F3EBEB6
:10478000B62700007027000001F038FF53EC1A2B09
:1047900001F0BAFC9DED060B41EC1A0B53EC102B0B
:1047A0009DED000B51EC100B01F028FFCDE90C0141
:1047B0009DED0C0B51EC1A0B53EC102B01F0A4FCEB
:1047C000CDE902010C46AA498C422FDB611A08434D
:1047D00018D19DED0C0B53EC102B9DED020B51EC01
:1047E000100B02F017F941EC1B0B9FEDA30B51ECE2
:1047F0001A0B53EC102B01F087FC53EC1B2B01F030
:10480000FBFF2DD20220FBF7B6FF00F049FA10EEB5
:10481000901A18EE900A8DED020B8DED008B61F36E
:104820001E0003909DED020BFFF7BEBB944A24F0DF
:104830000041914214D39349214408437FF4EFACE3
:104840009DED0C0B53EC102B9DED020B51EC100B5E
:1048500002F0E0F853EC1A2B01F0CEFF7FF6DFAC4C
:1048600024F000408849894A002601EB2051824209
:104870002BDA481C4FF4801121FA00F02044844ABE
:10488000C0F30A517A44A1F2FF3192ED000B814A44
:104890008DED080BCA4020EA0202C0F3130040F479
:1048A0008010C1F1140120FA01F60992002CB8BF62
:1048B00076429DED080B53EC102B9DED0C0B51EC4B
:1048C000100B02F0A7F8CDE90C019DED0C0B51EC9B
:1048D0001A0B53EC102B01F017FC9FED6F0B089097
:1048E000CDE9085153EC102B9DED080B51EC100B4A
:1048F00001F084FE41EC1B0B9FED690B53EC102B78
:104900009DED080B51EC100B01F078FE9DED0C0BAA
:1049100041EC1C0B53EC102B9DED080B51EC100BD4
:1049200002F078F853EC1A2B01F09CFF9FED5E1B10
:1049300053EC112B01F062FE53EC1C2B01F0E4FB55
:1049400041EC1A0B51EC1B0B53EC1A2B01F0DCFB66
:10495000CDE902019DED020B53EC1B2B51EC100B2A
:1049600002F058F853EC1A2B01F07CFF9DED020B7E
:1049700041EC1A0B53EC102B51EC100B01F03EFEE6
:10498000CDE908014A489DED080B0521784400F067
:10499000D4F89DED081B51EC100B53EC112B01F0DA
:1049A0002DFE9DED021B53EC112B01F05BFFCDE9B9
:1049B00006019DED020B53EC1A2B51EC100B01F08C
:1049C0001DFE53EC1A2B01F09FFB9FED3B0B41ECBE
:1049D0001A0B53EC102B9DED060B51EC100B02F053
:1049E00019F89DED060B41EC1B0B53EC102B9DEDC4
:1049F000020B51EC100B01F001FE53EC1B2B01F0EC
:104A00003FFC53EC1A2B02F005F89DED021B53EC12
:104A1000112B01F0FFFF53EC192B01F023FFCDE91F
:104A2000020101EB065001150029C8BF039015DCF7
:104A30009DED020B324651EC100B02F084F9FFF7AA
:104A4000EEF9042808BF00F03BF932469DED020B59
:104A500051EC100B02F077F9CDE902019DED020B4C
:104A600051EC180B53EC102B01F0C8FDFFF73ABBCB
:104A70000000904000000000FE822B654715973C27
:104A800000CC904000346F3F01FCFFFF0000E03F8E
:104A9000F8250000FFFF0F0000000000432EE63F56
:104AA000396CA80C615C20BEEF39FAFE422EE63F5D
:104AB000C8240000000000000000000000000040CA
:104AC00000B52DED048BB0EE409AF0EE609A83B005
:104AD00051EC190B01F0D2FE41EC180B18EE100A44
:104AE00018EE901A8DED008B002818BF01200843A6
:104AF00020F00040C0F17F6000F1E040C00F14D012
:104B000019EE101A19EE900A8DED009B002918BFBE
:104B10000121084320F00040C0F17F6000F1E04037
:104B2000C00F04BF0120FBF726FEB0EE480A03B019
:104B3000F0EE680ABDEC048B00BD70B504462DEDA7
:104B4000028B4D1E00EBC500B0EE408AF0EE608A8D
:104B500090ED000B35F0060017D053EC182B51ECFC
:104B6000100B01F04BFD41EC100B6D1E04EBC5006A
:104B700090ED001B51EC100B53EC112B01F0C4FA1B
:104B800041EC100B35F00600E7D1022D36D0042D94
:104B90001CD0062D1CBFBDEC028B70BD53EC182B36
:104BA00051EC100B01F02AFD94ED0A1B53EC112B74
:104BB00001F0AAFA53EC182B01F020FD94ED081B2C
:104BC00053EC112B01F0A0FA41EC100B53EC182B15
:104BD00051EC100B01F012FD94ED061B53EC112B60
:104BE00001F092FA53EC182B01F008FD94ED040B40
:104BF00053EC102B01F088FA41EC100B53EC182BFE
:104C000051EC100B01F0FAFC94ED021B53EC112B4C
:104C100001F07AFA53EC182B01F0F0FC94ED001B34
:104C200053EC112B01F070FABDEC028B41EC100B30
:104C300070BD0000000000009FED070B10B553ECA5
:104C4000102B9FED070B51EC100B01F019FB41EC01
:104C5000100B10BD0000000000000000000000006C
:104C6000000000000000F03F10B553EC112B51EC98
:104C7000100B01F049FA41EC100B10BD00000000D0
:104C80009FED050B10B553EC102B51EC100B01F000
:104C9000F7FA41EC100B10BD00000000000000000E
:104CA0009FED050B10B553EC102B51EC100B01F0E0
:104CB000A5FC41EC100B10BD0000000000000070CE
:104CC0009FED050B10B553EC102B51EC100B01F0C0
:104CD00095FC41EC100B10BD00000000000000101E
:104CE00030380A2801D201207047002070470000A8
:104CF00010B500F043FE15499FED130A144B81EDEA
:104D0000000A81ED010A0120A3F1C80203EB80042F
:104D1000D1ED000A94ED001A02EB8004401C94EDE2
:104D2000000A312841EE000AC1ED000AD1ED010A66
:104D300030EE200A81ED010AE8DDD1ED000AB0EE87
:104D4000401A80EE810A10BD000000000001002022
:104D50007042002082B0CDE9000121F000400190B6
:104D60009DED000B02B051EC100B7047154890ED13
:104D7000011AA0F5E870D0ED1E0AB4EEE01AF1EECB
:104D800010FA02DDB7EE000A70470E48B4EEE01AE2
:104D900090ED020AF1EE10FA0BD8B4EEE00AF1EE53
:104DA00010FA06DB30EE411A70EE600A80EE810ADE
:104DB0007047B4EEE00AF1EE10FAF9D29FED020A64
:104DC0007047000050020020000000001B489FEDCB
:104DD0001C0A90ED001AA0F5EE70D0ED1E0AB4EE9C
:104DE000E01AF1EE10FA28DC1448B4EEE01AD0ED27
:104DF000011AF1EE10FA09D8F4EEE01AF1EE10FA09
:104E000004DB71EEC11A70EEC10A14E00B480C38D5
:104E100090ED012A0C3090ED021AB4EEE02AF1EE8A
:104E200010FA0AD8B4EEE01AF1EE10FA05DB71EED2
:104E3000611A71EE600A80EEA10A70475C020020E0
:104E40000000000019489FED1A0AD0ED001AA0F5E5
:104E5000F470D0ED1E0AF4EEE01AF1EE10FA24DC44
:104E60001248F4EEE01A90ED011AF1EE10FA09D8AA
:104E7000B4EEE01AF1EE10FA04DB31EE611A70EED6
:104E8000E10A10E00948B4EEE01AD0ED021AF1EEA2
:104E900010FA0AD8F4EEE01AF1EE10FA05DB31EE62
:104EA000C11A71EEE00A80EE810A704768020020A4
:104EB0000000000019489FED1A0AD0ED001AA0F575
:104EC000FA70D0ED1E0AF4EEE01AF1EE10FA24DCCE
:104ED0001248F4EEE01A90ED011AF1EE10FA09D83A
:104EE000B4EEE01AF1EE10FA04DB31EE611A70EE66
:104EF000E10A10E00948B4EEE01AD0ED021AF1EE32
:104F000010FA0AD8F4EEE01AF1EE10FA05DB31EEF1
:104F1000C11A71EEE00A80EE810A70477402002027
:104F20000000000019489FED1A0AD0ED001AA0F504
:104F30000070D0ED1E0AF4EEE01AF1EE10FA24DC57
:104F40001248F4EEE01A90ED011AF1EE10FA09D8C9
:104F5000B4EEE01AF1EE10FA04DB31EE611A70EEF5
:104F6000E10A10E00948B4EEE01AD0ED021AF1EEC1
:104F700010FA0AD8F4EEE01AF1EE10FA05DB31EE81
:104F8000C11A71EEE00A80EE810A704780020020AB
:104F90000000000019489FED1A0AD0ED001AA0F594
:104FA0000370D0ED1E0AF4EEE01AF1EE10FA24DCE4
:104FB0001248F4EEE01A90ED011AF1EE10FA09D859
:104FC000B4EEE01AF1EE10FA04DB31EE611A70EE85
:104FD000E10A10E00948B4EEE01AD0ED021AF1EE51
:104FE00010FA0AD8F4EEE01AF1EE10FA05DB31EE11
:104FF000C11A71EEE00A80EE810A70478C0200202F
:1050000000000000154890ED001AA0F5067090ED24
:105010001E0AB4EEC01AF1EE10FA02DD9FED100A7E
:1050200070470E48B4EEC01AD0ED010AF1EE10FA46
:105030000BD8F4EEC00AF1EE10FA06DB70EEC10AEE
:1050400030EE411A81EE200A7047F4EEC00AF1EE0C
:1050500010FAF9D2B7EE000A70470000980200205B
:1050600000000000154890ED011AA0F50970D0ED80
:105070001F0AB4EEE01AF1EE10FA02DDB7EE000AF4
:1050800070470E48B4EEE01A90ED020AF1EE10FA05
:105090000BD8B4EEE00AF1EE10FA06DB30EE411A5E
:1050A00070EE600A80EE810A7047B4EEE00AF1EE1D
:1050B00010FAF9D29FED020A70470000A402002006
:1050C0000000000019489FED1A0AD0ED001AA0F563
:1050D0000C70D0ED1F0AF4EEE01AF1EE10FA24DCA9
:1050E0001248F4EEE01A90ED011AF1EE10FA09D828
:1050F000B4EEE01AF1EE10FA04DB31EE611A70EE54
:10510000E10A10E00948B4EEE01AD0ED021AF1EE1F
:1051100010FA0AD8F4EEE01AF1EE10FA05DB31EEDF
:10512000C11A71EEE00A80EE810A7047B0020020D9
:105130000000000019489FED1A0AD0ED001AA0F5F2
:105140000F70D0ED1F0AF4EEE01AF1EE10FA24DC35
:105150001248F4EEE01A90ED011AF1EE10FA09D8B7
:10516000B4EEE01AF1EE10FA04DB31EE611A70EEE3
:10517000E10A10E00948B4EEE01AD0ED021AF1EEAF
:1051800010FA0AD8F4EEE01AF1EE10FA05DB31EE6F
:10519000C11A71EEE00A80EE810A7047BC0200205D
:1051A0000000000019489FED1A0AD0ED001AA0F582
:1051B0001270D0ED1F0AF4EEE01AF1EE10FA24DCC2
:1051C0001248F4EEE01A90ED011AF1EE10FA09D847
:1051D000B4EEE01AF1EE10FA04DB31EE611A70EE73
:1051E000E10A10E00948B4EEE01AD0ED021AF1EE3F
:1051F00010FA0AD8F4EEE01AF1EE10FA05DB31EEFF
:10520000C11A71EEE00A80EE810A7047C8020020E0
:105210000000000019489FED1A0AD0ED001AA0F511
:105220001570D0ED1F0AF4EEE01AF1EE10FA24DC4E
:105230001248F4EEE01A90ED011AF1EE10FA09D8D6
:10524000B4EEE01AF1EE10FA04DB31EE611A70EE02
:10525000E10A10E00948B4EEE01AD0ED021AF1EECE
:1052600010FA0AD8F4EEE01AF1EE10FA05DB31EE8E
:10527000C11A71EEE00A80EE810A7047D402002064
:105280000000000019489FED1A0AD0ED001AA0F5A1
:105290001870D0ED1F0AF4EEE01AF1EE10FA24DCDB
:1052A0001248F4EEE01A90ED011AF1EE10FA09D866
:1052B000B4EEE01AF1EE10FA04DB31EE611A70EE92
:1052C000E10A10E00948B4EEE01AD0ED021AF1EE5E
:1052D00010FA0AD8F4EEE01AF1EE10FA05DB31EE1E
:1052E000C11A71EEE00A80EE810A7047E0020020E8
:1052F00000000000154890ED001AA0F51B7090ED1D
:105300001F0AB4EEC01AF1EE10FA02DD9FED100A8A
:1053100070470E48B4EEC01AD0ED010AF1EE10FA53
:105320000BD8F4EEC00AF1EE10FA06DB70EEC10AFB
:1053300030EE411A81EE200A7047F4EEC00AF1EE19
:1053400010FAF9D2B7EE000A70470000EC02002014
:105350000000000070B5FDEEC00A04462DED048B80
:1053600010EE900A0D46002200EE900A2146F8EE5B
:10537000E00A30EE608A00F033F80646002D27D0B0
:105380002E20A055284601F0D3F841EC110B9FEDDB
:10539000120BFEF76DFDB0EE409AF0EE609A18EE3B
:1053A000100A01F021FC53EC192B01F027F900F051
:1053B00079FE00EE100ABDEC048BA1192A46BDEE61
:1053C000C00ABDE8704010EE100A491C00F008B891
:1053D000BDEC048B70BD0000000000000000244004
:1053E00030B50D4600240A2109E000BF90FBF1F31F
:1053F00001FB130390FBF1F030332B55641C0028A4
:10540000F4D13020944202DA2855641CFAE7214690
:10541000284600F0A5FA00202855204630BD10B5DA
:105420000446000900F09CF804F00F0000F098F822
:10543000BDE81040322000F0F5BD10B5044600096B
:1054400000F0A4F804F00F0000F0A0F8BDE8104050
:10545000322000F0E7BD000010B5084C0122042105
:105460002046FDF7B6F80A2000F0DCFD20460022B9
:10547000BDE810400421FDF7ACB80000000C02406C
:1054800070B50D460446002201210B48FDF7A1F836
:105490005DB1012D0BD0022D0BD0032D0BD1D434D7
:1054A000E0B2BDE87040FFF7BABF8034F8E7C0341F
:1054B000F6E79434F4E770BD000C0240F0B585B017
:1054C00001240325002603950094244FCDE90146CD
:1054D00069463846FCF778FF022003958DE85100B5
:1054E00069463846FCF770FF042003958DE85100AB
:1054F00069463846FCF768FFF02003958DE85100B7
:1055000069463846FCF760FF002202213846FDF765
:1055100060F800F05BF82820FFF781FF4FF47A7401
:10552000204600F07FFD0C20FFF779FF204600F0B9
:1055300079FD0620FFF773FF204600F073FD012080
:10554000FFF76DFF6400204600F06CFD8020FFF740
:1055500066FF204600F066FD05B0F0BD000C02407D
:1055600010B50446002201210748FDF732F806482D
:105570001430016821F0F00141EA04110160BDE836
:105580001040FFF769BF0000000C024010B5044650
:10559000012211460748FDF71CF80648143001683F
:1055A00021F0F00141EA04110160BDE81040FFF76D
:1055B00053BF0000000C024010B5044602E0641C1A
:1055C000FFF73BFF20780028F9D110BD194810B52E
:1055D000016841F0F0010160164C0122143C1146B3
:1055E0002046FCF7F6FF012204212046FCF7F1FFDC
:1055F00044F6206000F016FD0320FFF7B1FF43F6EC
:10560000982000F00FFD0320FFF7AAFF41F2883435
:10561000204600F007FD0320FFF7A2FF204600F020
:1056200001FD0220FFF79CFF2046BDE8104000F07E
:10563000F9BC0000140C02402DED028B82B0FCF787
:10564000DBFFFEF7B3F9FEF7DDF8FEF765F9AB48CF
:105650000024016841F4800101600068224600F4E2
:105660008000009021463820FDF726F83820FDF70D
:1056700015F8002211463920FDF71EF83920FDF7F4
:105680000DF8002211464520FDF716F84520FDF7DC
:1056900005F8FEF77BF89B48994901604FF41651D5
:1056A000C0E901140C21C460C0E904418461C461F3
:1056B000FDF744FF08B172B6FEE7FFF7FFFE914821
:1056C0004838FDF78FFB8F4802228F499038FCF74E
:1056D000CFFB012280218D48FCF77BFF8A49022203
:1056E000EC398848FDF7D0FF874905225C318548B1
:1056F000FEF72AF8844FB3EE0B8A6C3FDFED848A05
:10570000844D4FF480784FF40079A7F1800400BFF6
:1057100087ED1E8AC7ED1F8A464641462846FCF79C
:105720004BFF012811D016E0626A7BA1521C7D4814
:105730006262FAF747FE3220FCF712FE03210020D6
:10574000FFF79EFE7748FFF737FF31462846FCF704
:1057500033FF0128E8D04E4649462846FCF72CFF87
:10576000012811D016E0626A6BA1521E6D48626278
:10577000FAF728FE3220FCF7F3FD03210020FFF7A3
:105780007FFE6848FFF718FF31462846FCF714FFF4
:105790000128E8D064A16348FAF714FE0021084606
:1057A000FFF76EFE63A0FFF707FF574E66A11C369A
:1057B0005C4896ED000B53EC102BFAF703FE4FF408
:1057C0009670FCF7CDFD01210020FFF759FE5548EA
:1057D000FFF7F2FE96ED000B51EC100B00F062FCAF
:1057E00000EE100A4F4802210F30FFF7B3FDFFF71C
:1057F0007FFA10EE100A01F0F7F941EC100B55A1F9
:1058000053EC102B4748FAF7DDFD02210020FFF78B
:1058100037FE4448FFF7D0FE3FA14248626AFAF7DC
:10582000D1FD03210020FFF72BFE3E48FFF7C4FE09
:1058300096ED000B51EC100B00F034FC00EE100A5A
:10584000384802210F30FFF785FD06F1200090ED6A
:10585000000B51EC100B00F025FC00EE100A0221A9
:1058600006F1B200FFF776FD06F1A301A1F1630096
:10587000FAF7B4FE06F1DF01A1F19F00FAF73CFF51
:1058800006F1B201A1F17200FAF736FF06F1DF016D
:10589000A1F19F00FAF730FF224906F140000F31D5
:1058A000FAF72AFF06F1DF01A1F19F00FAF724FFC2
:1058B00006F1C101A1F18100FAF71EFF06F1DF0137
:1058C000A1F19F00FAF718FF06F1DF01A1F19F0097
:1058D000FAF712FF06F1D001A1F19000FAF70CFFE0
:1058E00006F1DF01A1F19F00FAF706FF06F1EE01D4
:1058F000A1F1AE00FAF700FF0AE7000030380240DD
:1059000000140140C8430020EC00002000100240B9
:105910009E5EA93D00080240636F756E7465723A21
:105920002534640088410020666972696E673A39DF
:105930003000000050656E67756A69616E205365BE
:105940006E736F720000000056726D733A25332E2D
:1059500032660000737568753A25332E356600008F
:1059600010B50022491E05E0835C445C8454435416
:10597000491E521C8A42F7DB10BD000000B5FFF73C
:1059800071FBF0EE401AFFF7F1F9F0EE610AFDF756
:10599000FAFFFE49FE4B01F1C80281ED010A93EDC9
:1059A0000A0A82ED010AFFF78DFBF0EE401AFFF7BD
:1059B000DDF9F0EE610AFDF7E6FF81ED020A93EDF5
:1059C0000B0A82ED020AFFF7B5FBF0EE401AFFF773
:1059D000CDF9F0EE610AFDF7D6FF81ED030A93EDF4
:1059E0000C0A82ED030AFFF7DDFBF0EE401AFFF729
:1059F000BDF9F0EE610AFDF7C6FF81ED040A93EDF3
:105A00000D0A82ED040AFFF705FCF0EE401AFFF7DD
:105A1000ADF9F0EE610AFDF7B6FF81ED050A93EDF1
:105A20000E0A82ED050AFFF72DFCF0EE401AFFF793
:105A30009DF9F0EE610AFDF7A6FF81ED060A93EDF0
:105A40000F0A82ED060AFFF755FCF0EE401AFFF749
:105A50008DF9F0EE610AFDF796FF81ED070A93EDEF
:105A6000100A82ED070AFFF7FDFAF0EE402AFFF771
:105A7000ADF9F0EE620AFDF786FF81ED080A93EDBD
:105A8000110A82ED080AFFF71DFBF0EE402AFFF72E
:105A90009DF9F0EE620AFDF776FF81ED090A93EDBC
:105AA000120A82ED090AFFF745FBF0EE402AFFF7E4
:105AB0008DF9F0EE620AFDF766FF81ED0A0A93EDBB
:105AC000130A82ED0A0AFFF76DFBF0EE402AFFF79A
:105AD0007DF9F0EE620AFDF756FF81ED0B0A93EDBA
