:020000040800F2
:10000000E04C002095020008933A0008953800085B
:10001000913A0008091A00080D3F0008000000008E
:10002000000000000000000000000000973A0008F7
:10003000D51A000800000000953A0008993A000817
:10004000AF020008AF020008AF020008AF020008CC
:10005000AF020008AF020008AF020008AF020008BC
:10006000D71A0008AF020008AF020008AF0200086C
:10007000AF020008AF020008AF020008AF0200089C
:10008000AF020008AF020008D5180008AF02000850
:10009000AF020008AF020008AF020008AF0200087C
:1000A0003D3B0008613B0008553B0008493B000808
:1000B000AF020008AF020008AF020008AF0200085C
:1000C000AF020008AF020008AF020008AF0200084C
:1000D000AF020008AF020008AF020008AF0200083C
:1000E000AF020008AF020008AF020008AF0200082C
:1000F000AF020008AF020008AF020008AF0200081C
:10010000AF020008AF020008AF020008AF0200080B
:10011000AF020008AF020008AF020008AF020008FB
:100120000D1A0008191A0008AF020008AF020008F3
:10013000AF020008AF020008AF020008AF020008DB
:10014000AF020008AF020008AF020008AF020008CB
:10015000AF020008251A0008AF020008013F00089E
:10016000AF020008AF020008AF020008AF020008AB
:10017000AF020008AF020008AF0200080000000054
:10018000AF020008AF02000800F002F800F072F8B9
:100190000AA090E8000C82448344AAF10107DA45E2
:1001A00001D100F067F8AFF2090EBAE80F0013F0C2
:1001B000010F18BFFB1A43F001031847F862000053
:1001C000186300000A444FF0000C10F8013B13F0D4
:1001D000070408BF10F8014B1D1108BF10F8015BA0
:1001E000641E05D010F8016B641E01F8016BF9D193
:1001F00013F0080F1EBF10F8014BAD1C0C1B09D1EA
:100200006D1E58BF01F801CBFAD505E014F8016B5B
:1002100001F8016B6D1EF9D59142D6D370470000ED
:100220000023002400250026103A28BF78C1FBD8FF
:10023000520728BF30C148BF0B607047662906F0DF
:100240001C80642900F0FA80002070471FB506F07A
:100250000AF800F061FD04000020002105F0CEF94D
:10026000401C60600020002105F0B2F9E0601FBD75
:1002700010B510BD00F09CFE1146FFF7E7FF04F03B
:1002800085FF00F0C8FE03B4FFF7F2FF03BC00F0E7
:100290000BFF00000948804709480047FEE7FEE7DA
:1002A000FEE7FEE7FEE7FEE7FEE7FEE7FEE7FEE726
:1002B00004480549054A064B704700002D3B0008DD
:1002C00089010008E0460020E04C0020E0480020C2
:1002D000E048002053EA020C00F069802DE9F04B61
:1002E0004FF00006002B1FBFB3FA83F503FA05F4A5
:1002F00024FA05F65E4012BF1643B2FA82F502FAFE
:1003000005F4C5F120051EBF22FA05FC44EA0C04E1
:10031000203556EA044C4FEA144418BF641C4FF0D1
:1003200000084FF00009904271EB030C39D300290B
:1003300019BFB1FA81F701FA07F6B0FA80F700FAAF
:1003400007F6C7F120071EBF20FA07FC46EA0C0695
:100350002037B6FBF4FCA7EB0507103F07F01F0B97
:10036000CBF120060CFA0BFB2CFA06F644BFB34681
:100370000026202FA4BF5E464FF0000B5BEA060C60
:1003800008BF4FF0010B19EB0B09ABFB027C48EBEC
:100390000608C01B06FB02CC0BFB03CC71EB0C0167
:1003A000C1E70B46024641464846BDE8F08B13B50F
:1003B0004FF000004FF00001AFF30080BDE81C409B
:1003C000704700000FB41CB5074B06AA7B44694672
:1003D0000090059800F043FC0020694600F052FCB4
:1003E0001CBC5DF814FB0000B508000070B50446A5
:1003F00085690068C10601D5302600E02026C007C7
:1004000007D070BDD4E9012130469047206A401CD6
:1004100020626D1EF6D570BD70B504468569007802
:10042000C00707D170BDD4E9012120209047206A80
:10043000401C20626D1EF6D570BD00002DE9F04114
:100440000646002410687529314616A510D0AFF372
:100450000080002802DA404213A507E031688A07CD
:1004600001D512A502E0490704D511A5012401E038
:10047000AFF3008000210A2206F1240709E0B0FB57
:10048000F2FCB0FBF2F302FB1C003030785418464B
:10049000491C0028F3D123462A463046BDE8F041E6
:1004A00000F06FB9000000002D0000002B000000DC
:1004B000200000002DE9F0474FF0000A894604466D
:1004C000C0F820A02046E1688847002876D025287B
:1004D00006D0D4E901219047206A401C2062F1E750
:1004E000E168204600258847C4F81CA0064600277E
:1004F000C4F818A02A2E09D0304604F069FC38B39D
:1005000004EB8708303EC8F8186019E059F8041B5E
:10051000204604EB87029161E1688847012F064677
:1005200018D1E069002820DA25F020051DE0D8F870
:10053000180000EB800006EB40003038C8F81800C7
:100540002046E1688847064604F042FC0028EED1C8
:10055000012F0AD02E2E08D12046E16888477F1C43
:100560000646022F45F02005C4DBA069002803DA07
:10057000404245F00105A061E80701D025F01005D3
:10058000B6B1A6F14100192802D8203645F400651D
:100590004A463146204625604D46FFF74FFE58B18A
:1005A000012806D0ED1D25F0070000F1080989E7B4
:1005B00004E005F1040985E730468AE7206ABDE8D2
:1005C000F08770B5064600F0CDF804680546304661
:1005D0000A22002100F05BFB2C6070BD40EA0103A1
:1005E000024630B59B0710D14FF0013400E008C23D
:1005F00008C91D1B9D4315EAC41FF8D013F0FF0165
:1006000002F8011B0DD01B0AF8E711F8013B002B83
:1006100002F8013B05D011F8013B002B02F8013B29
:10062000F3D130BD10B5431C02E010F8011B71B1CD
:100630008107FAD14FF0013202C88C1A8C4314EAB8
:10064000C211F9D0C01A0A0603D0C01E10BDC01ACC
:1006500010BD0A0401D0801E10BD0902FCD0401E4E
:1006600010BD40EA010370B59B072ED14FF0013653
:10067000042A2AD308C810C99D1B9D43121F15EADE
:10068000C61517D0D8B2E1B2401A50EA056110D1B0
:1006900098B2A1B2401A50EA05410AD123F07F4036
:1006A00024F07F41401A50EA052102D1180EA0EB38
:1006B000146070BDA342DBD018BA21BA884201D9B8
:1006C000012070BD4FF0FF3070BD0AB9002070BD31
:1006D00010F8013B11F8014B63B1A3420AD1521E3D
:1006E00008D010F8013B11F8014B1BB1A34201D116
:1006F000521EEDD1181B70BD421E12F8013F002B97
:10070000FBD111F8013B002B02F8013BF9D17047F6
:100710004FF0000200B5134694469646203922BF9A
:10072000A0E80C50A0E80C50B1F12001BFF4F7AFE5
:10073000090728BFA0E80C5048BF0CC05DF804EBC7
:10074000890028BF40F8042B08BF704748BF20F835
:10075000022B11F0804F18BF00F8012B7047704733
:1007600070477047004870477C46002010B5FFF77F
:10077000F9FF006810BD10B50446FFF7F3FF0460F1
:1007800010BD2DE9F0470D4699469246044600F10A
:1007900024080168880604D5E06921F01001216071
:1007A00000E00120A84201DD471B00E00027A1690D
:1007B0007A1902EB0900081AA0612078C00602D459
:1007C0002046FFF713FE002608E0D4E901211AF8BD
:1007D00006009047206A401C761C20624E45F4DBE0
:1007E0002078C0060AD52046FFF700FE06E0D4E9CF
:1007F000012130209047206A401C2062381EA7F15A
:100800000107F4DC07E0D4E9012118F8050090475E
:10081000206A401C2062281EA5F10105F3DC204659
:10082000FFF7FAFD2078000602D50220BDE8F08728
:100830000120FBE770472DE9FF4F0C461E464FF0A5
:10084000FF378BB0D2E90001DDF860800A908A465C
:10085000C1F30A5505B93D46002108464FF0000096
:10086000BAF1000F00F4400005DA00EB80004FF40D
:10087000400101EA50004FEA9059B9F1010F00DD43
:10088000B9460A9850EA4A000ED044F61050A5F234
:10089000FF3545432F14B8F1000F1ED07542291EB5
:1008A0001EDDC9F100021CE0B8F1010F4FF000009D
:1008B00001D0302103E0F24305E02154401CB04256
:1008C000FBDB30460022002121540B99C1F808803F
:1008D000C1E900200FB0BDE8F08FBD1B6D1CDEE745
:1008E0004A4600DA694206A800F0F0FA06AB93E83F
:1008F000070003AB83E8070050460A9900F0DBFBD2
:100900008DE80700A0F500501F3800900398002DD7
:100910000ADD42F21F014A460844002303A903905E
:10092000684600F044FE09E0A0F500504A461F3832
:10093000002303A90390684600F04EFE8DE80700EF
:100940000004000C03D04FF0FF30410800E01046D7
:10095000B8F1000F03D00022009215461EE0751E6C
:1009600005D400F0DDF9303262556D1EF9D5B3467D
:100970000122084302D000227F1C04E020783028A6
:1009800001D100227F1E002A099784D01DE0112D7D
:1009900007DA00F0C5F9303262556D1C50EA0102E9
:1009A000F5D1084302D00098C8B10EE00021681EBE
:1009B00005E0235C625C63542254401E491C814262
:1009C000F7DBAB46A81B401E0990002004F80B0083
:1009D0000B98099AC0F80880C0E9002B7AE7112625
:1009E0004FF0000857E72DE9F04F88460446D21D26
:1009F00022F0070191B0D1E90001CDE90A0103F02D
:100A000086FA02460B98C00F01D02D2007E020681F
:100A1000810701D52B2002E0202101EAC000032A32
:100A2000099001D0072A05DB03464146204600F025
:100A3000BDF90BE12078800601D5E06900E00620D1
:100A4000B8F1650F814606D0B8F1660F18D0B8F13D
:100A5000670F70D131E00020B9F1110F009001DB78
:100A6000112301E009F101030AAA01A90CA8FFF76B
:100A7000E2FEDDE90C70002609F10105834647E03E
:100A800001204B4600904FF000470AAA01A90CA88C
:100A9000FFF7D1FEDDE90DB00C995D46002610B9D7
:100AA00009F101000D18B9EB050003D4C0F1FF36C0
:100AB00009F10105A5EB09002BE0B9F1010F01DAFD
:100AC0004FF001090020B9F1110F0090484601DDF7
:100AD000112300E003460AAA01A90CA8FFF7ABFE08
:100AE000DDE90C704D4600268346207800070AD4C5
:100AF000AB4500DA5D4601A8012D04DD411911F86E
:100B0000011C302907D04F4502DA17F1040F04DA2F
:100B1000012082460FE06D1EEEE7002F02DCED1B88
:100B20003E4403E0781CA84200DD7D1CB81B00F1A8
:100B3000010A4FF000472078000703D4AA4501DBE3
:100B40004FF0FF3A0021B7F1004F0DF143088DF847
:100B5000431024D002202B23002F01DA7F422D23C3
:100B60000A21021EA0F1010000DC5FB197FBF1FC3D
:100B700097FBF1F201FB1C7C17460CF1300C08F8D6
:100B800001CDEEE7A8F1010003702188090501D528
:100B9000452100E06521A0F1010800F8011C099839
:100BA0000FA9A1EB0807FF1D00B10120411901EBBE
:100BB000EA70A1693844081A401EA0612078C00676
:100BC00002D42046FFF712FC099828B1D4E901218C
:100BD0009047206A401C20622078C00622D520461B
:100BE000FFF704FC1EE0002E04DBB34502DD01A884
:100BF000805D00E03020D4E901219047206A401C4C
:100C00002062761CAAF101005FEA000A0AD100F016
:100C100083F8C0680168405CD4E901219047206AEC
:100C2000401C2062281EA5F10105DCDC07E0D4E9A8
:100C3000012118F8010B9047206A401C2062381EE1
:100C4000A7F10107F3DC2046FFF7E6FB032011B014
:100C500041E6000001694A1C02610878704700B54E
:100C60008FB0CDE901310021059105497944CDE9E5
:100C7000031011466846FFF71DFC0FB000BD0000D1
:100C8000E5FFFFFF0A6802F8010B0A6070472DE9D3
:100C9000F04791460F4680460446002614F8015B53
:100CA0002DB100F031F80068405DC007F6D12B2D62
:100CB00002D02D2D18D0641E4A463946204600F039
:100CC000B5F827B13968A14201D1C7F800804FF0CB
:100CD000020471050BD54042002803DDFFF742FDF9
:100CE0000460A007BDE8F08746F48066E4E70028CA
:100CF000F8DAFFF737FD04606FF00040F2E700001C
:100D0000004870477C46002010B500F005F8001D33
:100D100010BD00BFE9480000004870479C46002015
:100D200030B5B0F10A024FEA900E71F100034EEABD
:100D3000817EB0EB0E0061EB91014FEA101E4EEA8E
:100D4000017E10EB0E0041EB11114FEA102E4EEA1E
:100D5000016E10EB0E0041EB11214FEA104E4EEAEE
:100D6000014E10EB0E0041EB1141401841F1000122
:100D70004FEAD00040EA41704FEAD10110EB800504
:100D80004FEA810444EA907444EB01046D1944EB8A
:100D90000404521BA3414FF0000348BF0A3200D5A0
:100DA00030BD401C41F1000130BD00002DE9F04193
:100DB0001F46044603260168072A01F4006004DB8D
:100DC00008B116A505E016A503E008B115A500E0D9
:100DD00015A521F010002060A069C01EA0610FB110
:100DE000401EA0612046FFF701FB4FB1D4E901216D
:100DF00038469047206A401C2062C01C206206E0F2
:100E0000206AFAE7D4E9012115F8010B9047761E14
:100E1000F8D22046FFF700FBBDE8F0814E414E00BE
:100E20006E616E00494E4600696E66002DE9F05F06
:100E3000824615468B4600270AF10104B946007820
:100E4000302801D09DB113E014F8010B0127782858
:100E500003D0582801D045B10AE00DB1102D07D1BB
:100E6000002714F8010B102502E0082500E00A25F0
:100E70000026B0460EE005FB080005FB06F1012741
:100E80001FFA80F801EB1046B6F5803F00D3B94653
:100E900014F8010B294600F0B0F80028EBDABBF19A
:100EA000000F05D00FB1641E00E05446CBF800409F
:100EB000B9F1000F06D0FFF755FC02210160C81EF2
:100EC000BDE8F09F48EA0640FAE700002DE9F04748
:100ED000814616468AB0354878440DC88DE80D0025
:100EE00032487844801C03AC0DC884E80D0041F6FC
:100EF0009B300844372190FBF1F290FBF1F5A5F10E
:100F0000800501FB12041B3C02D56442012000E075
:100F10000020DFF898A080460027FA44AAF1BE0A14
:100F20000EE0E0070AD03246684607EB470101238E
:100F30000AEB810100F050FB8DE8070064107F1C74
:100F4000002CEED1194F7F44AE3F19E0E80715D0D1
:100F500007EB04100DF1180A90E80E008AE80E0065
:100F6000C068F04201D1981908903246012306A9C1
:100F700003A800F031FB03AB83E807006D10641C8D
:100F8000002DE3D14FF0010332466946B8F1000F5E
:100F900003A802D000F00BFB01E000F01DFBC9E943
:100FA0000001C9F808200AB0BDE8F087C05500006C
:100FB0007546FFF7A5FEAE4605006946534620F08C
:100FC0000700854618B020B5FFF772F9BDE820404C
:100FD0004FF000064FF000074FF000084FF0000BF5
:100FE00021F00701AC46ACE8C009ACE8C009ACE8A8
:100FF000C009ACE8C0098D4670473A2800D23038A5
:1010000020F02002412A01D3A2F13700884201D307
:101010004FF0FF30704710B50446AFF30080204614
:10102000BDE81040FFF72FB94FF0013C50F8042BFA
:1010300051F8043B9A4221D1A2EB0C03934313EAEB
:10104000CC1317D150F8042B51F8043B9A4215D118
:10105000A2EB0C03934313EACC130BD150F8042BEF
:1010600051F8043B9A4209D1A2EB0C03934313EAD3
:10107000CC13DBD04FF00000704700BFD01A01BA8C
:10108000B1FA81F101F0180122FA01F0CB40C1F16F
:101090002001DBB2C0B2C01A2CFA01F3D11A91437D
:1010A00011EAC311E6D1704701491820ABBEFEE733
:1010B0002600020070475FEA400C08BF91F0000F65
:1010C0004FEA8C234FEAC12243EA51514FEA1C50A8
:1010D00018BF00F5F0404FEA300018BF41F0004162
:1010E0005FEA6C5C00F02980BCF1FF3F08BF40F074
:1010F00080407047130C06BF12044FF0100C4FF0E5
:10110000000C130E04BF12020CF1080C130F04BFE5
:1011100012010CF1040C930F04BF92000CF1020CAD
:10112000D30F04BF52000CF1010C11464FF0000226
:10113000A0F11F00A0EB0C00704711F0004F08BF9A
:10114000704731F000413FF4D5AF0B0C06BF0904E6
:101150004FF0100C4FF0000C0B0E04BF09020CF105
:10116000080C0B0F04BF09010CF1040C8B0F04BF1A
:1011700089000CF1020CCB0F04BF49000CF1010CEB
:10118000CCF12003A0EB0C0022FA03F302FA0CF2DC
:1011900041EA030100F10100704720F07F4C80EA32
:1011A000030023F07F47ACEB070303F57C5300F00B
:1011B000004003F1FF032DE980494FEA154B09B4C4
:1011C0004FEA144325EA0B4E24EA03480FF20426A3
:1011D00006EB132749083E785FEA320203FB0667F5
:1011E000C7F5000707FB06F64FEA54374FEAD64625
:1011F00006F1020607FB066CCCF1005C4FEA1C47C7
:101200002CEA074C07FB06F40CFB06F504EB15462D
:101210004FEA961634BF00204FF000404FEAD13716
:1012200006FB07FC4FEA1C4C0CFB0BF7D21B03FB25
:101230000CF761EB07010CFB0EF7B0EB074072EB0C
:1012400017420CFB08F734BFA2EB0742B2EB074290
:1012500061EB17414FEA0C444FEA910706FB07FC8C
:101260004FEA1C4C0CFB0BF7B0EBC74072EB57324C
:1012700003FB0CF734BFA2EBC742B2EBC74261EBF2
:1012800057310CFB0EF7B0EBC70072EB57720CFB3B
:1012900008F734BFA2EBC702B2EBC70261EB57718C
:1012A000039F4FEA816141EA921104EBCC044FEABB
:1012B000D1374FEA826206FB07FC42EA90124FEAFE
:1012C00080604FEA1C4C0CFB0BF7D21B03FB0CF7A6
:1012D00061EB07010CFB0EF7B0EB074072EB174216
:1012E0000CFB08F734BFA2EB0742B2EB074261EBFD
:1012F00017414FEA8C554FEA910704EB9C2406FBFB
:1013000007FC4FEA1C4C0CFB0BF7B0EBC74072EB31
:10131000573203FB0CF734BFA2EBC742B2EBC74214
:1013200061EB57310CFB0EF7B0EBC70072EB577255
:101330000CFB08F734BFA2EBC702B2EBC70261EBAC
:10134000577115EB4C254FEA816141EA92114FEA42
:1013500082624FEAD13742EA901206FB07FC44F161
:1013600000044FEA80604FEA1C4C0CFB0BF7D21BC9
:1013700003FB0CF761EB07010CFB0EF7B0EB07402A
:1013800072EB17420CFB08F734BFA2EB0742B2EB3B
:10139000074261EB174115EB1C154FEA813141EA19
:1013A00092414FEA823242EA90424FEA80304FEA5D
:1013B0000C7644F1000448EA03434EEA0B484FF030
:1013C000000EB2EB080C71EB030724BF62463946EE
:1013D0004EEB0E0E4FF0000B0018524149414BEB03
:1013E0000B0BB2EB080C71EB03077BF1000B24BF76
:1013F000624639464EEB0E0E4FF0000B001852417C
:1014000049414BEB0B0BB2EB080C71EB03077BF183
:10141000000B24BF624639464EEB0E0E51EA02071E
:1014200018BF46F0010616EB0E7655F1000254F196
:10143000000103D5BDE88901BDE80088BDE8890148
:10144000BDE80048B619524141EB0101A3F1010387
:10145000704780807F7E7D7C7B7A79787776767521
:101460007473727171706F6E6E6D6C6C6B6A6A6999
:101470006868676666656464636362616160605F33
:101480005F5E5E5D5D5C5C5B5B5A5A5959585857AC
:101490005756565555555454535352525251515014
:1014A00050504F4F4F4E4E4D4D4D4C4C4C4B4B4B67
:1014B0004A4A4A49494948484847474747464646AD
:1014C00045454544444444434343434242424241E8
:1014D0004141002B9C4630D477002BD01CB54FEAFD
:1014E000370703B44FF010004FF01001BAF1000FAE
:1014F00006D0BCF1000FDCBF40F0080040F008014E
:101500004FF000000FBCBDE810400BF1010BBBF128
:10151000010F08BF5FEA170722BF12F1010211F1A4
:1015200001014FF0004143F1000300F0004043EAA5
:1015300000007047F9D35708D0E746EA064613F192
:10154000400F4FEA16461FDD13F1200FDFBF164391
:101550000A46002120335B42BED0C3F1200746EA91
:10156000064602FA07F74FEA164646EA0706C3F1AF
:10157000200722FA03F201FA07F721FA03F14FF0EC
:10158000000342EA0702A7E746EA020646EA0646E1
:101590004FEA164646EA0106BCBF46EA0646360C46
:1015A0004FF000034FF000024FF0000194E72DE9E7
:1015B000804C9A46934670B491E8380007C831EAE7
:1015C000400C48BF34EA430C03D5FFF7E6FDFFF7B4
:1015D00080FFF0BCBDE8008C2DE9804C9A46934614
:1015E00070B491E8380007C810F0804F08BF13F0BE
:1015F000804F03D100F005F8FFF76BFFF0BCBDE8AA
:10160000008C20F07F4780EA030023F07F4C07EB3B
:101610000C03A3F57C5300F00040A3F1FE0392F00D
:10162000000F00F0B38095F0000F00F077802DE9F7
:1016300001494FEA11404FEA144621EA004800FBF5
:1016400006FC24EA064708FB06F607FB08F800FB41
:1016500007F718EB06484CEB164C4FEA124B18EB09
:1016600007484FEA15464CEB174022EA0B4E0BFB9E
:1016700006FC25EA06470EFB06F607FB0EFE0BFBF3
:1016800007F71EEB064E4CEB164C4FF000061EEB18
:10169000074E4CEB174B18EB0B0840F1000018EB12
:1016A0000E0B58EB000840F100008F1A4FF00001BC
:1016B0003CBFC943661B14BFB5EB040C00213CBF03
:1016C000C943F61B4FEA17444EEA8E0E27EA04453B
:1016D0004FEA1C4704FB07622CEA074C05FB07F79F
:1016E0000CFB05F604FB0CFC16EB074642EB17421D
:1016F00016EB0C4642EB1C421BEB060658EB0202B3
:10170000414146EA9E0601D5BDE80189B61952411C
:1017100041EB0101A3F10103BDE801894FEA144542
:101720004FEA114724EA054621EA074C05FB07F476
:1017300006FB07F70CFB06F105FB0CFC11EB074160
:1017400044EB17444FEA124711EB0C4144EB1C44A5
:1017500022EA074C05FB07F206FB07F70CFB06F62F
:1017600005FB0CFC16EB074642EB174216EB0C464A
:1017700042EB1C456A1854F1000148BF7047B61986
:10178000524141EB0101A3F10103704795F0000FB5
:1017900037D04FEA11424FEA144721EA024624EAC1
:1017A000074C02FB07F106FB07F70CFB06F402FBF4
:1017B0000CFC14EB074441EB17414FEA154714EBBF
:1017C0000C4441EB1C4125EA074C02FB07F506FBE4
:1017D00007F70CFB06F602FB0CFC16EB074645EB85
:1017E000174516EB0C4645EB1C42121951F100014E
:1017F00048BF7047B619524141EB0101A3F1010303
:1018000070474FEA14454FEA114724EA054621EA9A
:10181000074C05FB07F106FB07F70CFB06F24FF040
:10182000000605FB0CFC12EB074241EB174112EBE3
:101830000C4251EB1C4148BF7047921841EB01012B
:10184000A3F10103704710B50146806B026C12F0E2
:10185000500F05D0026CD20626D500F0EBF910BD72
:10186000016C41F40071016401688A6812F0405F04
:1018700017D1027EAAB9CA6A12F4700F02D08A6820
:1018800052050ED44A6822F020024A60016C21F40D
:1018900080710164016CC90403D4016C41F0010141
:1018A000016400F0C5F910BD806BC26CBDE810404A
:1018B0000846104710B5806B40210164416C41F02F
:1018C0000401416400F0B6F910BD10B5806B00F062
:1018D000B0F910BD014800F0AEB900008844002006
:1018E000464910B54A6822F440324A604A68436863
:1018F0001A434A6001684A6822F480724A600168AB
:101900004A68036942EA03224A6001684A6822F091
:1019100040724A6001684A6883681A434A600168F5
:101920008A6822F400628A6001688A68C3681A4380
:101930008A60816A6FF07062D14201688A6822F021
:1019400070628A6001688A680CD0836A1A438A6070
:1019500001688A6822F040528A6001688A68C36A16
:101960001A4301E022F040528A6001688A6822F03E
:1019700002028A6001688A68037E42EA43028A6042
:1019800090F82010002901684A680FD042F40062E4
:101990004A6001684A6822F460424A6001684A6805
:1019A000174C436A04EB43331A4301E022F400620C
:1019B0004A600168CA6A22F47002CA620168CA6A8F
:1019C000838B104C04EB03531A43CA6201688A6884
:1019D00022F400728A6001688A6890F8303042EA26
:1019E00043228A6001688A6822F480628A60016802
:1019F0008A68406942EA8020886010BD0023014067
:101A000000E0FFFF0000F0FFFEE70000014800F0EB
:101A100035BB00005C450020014800F02FBB0000F2
:101A2000BC450020014800F029BB00001C460020F6
:101A300001681823CAB2103AB2FBF3F2054B6FF3F8
:101A40000901032A9B5CC36500D9091D816508460D
:101A5000704700006E63000810B5014600208B69D6
:101A60008A6A4FF0C07453B1B3F5005F15D072B1FC
:101A7000012A0CD0022A0AD0032A09D104E01AB1A3
:101A8000012A06D0022A03D1C96AC90100D5012062
:101A900010BDC96AA142FAD010BD002AF7D0012AB0
:101AA000F2D0022AF3D0032AF3D010BD30B5046877
:101AB000256825F480252560046863608368402BD1
:101AC000036803D099600068C26030BD9A60006806
:101AD000C16030BD7047042000F06ABC72B6FEE7FA
:101AE0007047000078B50024009490F83C20012A4B
:101AF00019D0012280F83C200A6807230568092ACA
:101B000013D9EE680A3A02EB420293409E43EE601C
:101B10000B788A680A3B03EB43039A400368DD684D
:101B20002A43DA6010E0022078BD2E6902EB4202FF
:101B300093409E432E610B788A6803EB43039A40DF
:101B400003681D692A431A614A681F23072A13D2B2
:101B500005686E6B521E02EB820293409E436E63D9
:101B60000B790A885B1E92B203EB83039A400368E9
:101B70005D6B2A435A6327E005680D2A12D22E6B4B
:101B8000D21F02EB820293409E432E630B790A8898
:101B9000DB1F92B203EB83039A4003681D6B2A4359
:101BA0001A6311E0EE6A0D3A02EB820293409E4303
:101BB000EE620B790A880D3B92B203EB83039A40E5
:101BC0000368DD6A2A43DA62164B0568144A9D42AF
:101BD00006D10D68122D03D1556845F48005556076
:101BE00005689D4218D10B68102B01D0112B13D121
:101BF000536843F400035360096810290CD10A4963
:101C00000A4A0968B1FBF2F101EB8101490000E0E9
:101C1000491E00910029FBD180F83C40002078BD8E
:101C20000023014000200140FC03002040420F003F
:101C300070477047704770B5044600680168426895
:101C4000C1F34001C2F3401251B34AB3216CC9063B
:101C500003D4216C41F400712164816811F0405F6C
:101C600017D1217EA9B9C16A11F4700F02D0816821
:101C700049050ED4416821F020014160206C20F418
:101C800080702064206CC00403D4206C40F00100FC
:101C900020642046FFF7CCFF21686FF01200086037
:101CA000206801684268C1F38001C2F3C01289B3A1
:101CB00082B3216CC90603D4216C41F40051216424
:101CC000816811F4401F1ED1816B11F4401F02D0B6
:101CD0008168490517D44168490514D4816811F019
:101CE000405F10D1217E71B9416821F080014160CF
:101CF000206C20F480502064206CC00503D4206C3C
:101D000040F0010020642046FFF7EAFE21686FF0F2
:101D10000C00086020680168426811F0010FC2F3EE
:101D200080120ED06AB10068C0070AD0206C40F45F
:101D300080302064204600F046F821686FF00100F2
:101D40000860206801684268C1F34011C2F38062F4
:101D500000290DD0002A0BD0616C41F002016164B2
:101D60006FF0200505602046FFF764FF20680560DE
:101D700070BD70B504004FF0000503D0206C002644
:101D800010B107E0012070BD204600F01DF8666428
:101D900084F83C60206CC00610D4206C20F488507D
:101DA00040F0020020642046FFF79AFD6664206C34
:101DB00020F0020040F00100206400E0012584F8DA
:101DC0003C60284670BD704770B586B00646142149
:101DD0006846FEF79DFC2149306888423BD1204887
:101DE0000025016841F480710160006800F4807092
:101DF00005901B481438016841F00101016000683A
:101E0000694600F00100059003200090CDE901052E
:101E1000144800F0D9FA154C1348C4E90005001520
:101E2000A560C4E90350400060618000A0614011DA
:101E3000C4E907052046656200F0F0F908B1FFF734
:101E40004DFEB463002211461220A66300F034FC5C
:101E5000122000F023FC06B070BD000000200140FD
:101E60004438024000000240106402405C450020FB
:101E7000F8B5044600200E46009094F83C10012965
:101E800007D0012184F83C1021688B68DB0702D061
:101E900011E00220F8BD8B6843F001038B604049DC
:101EA000404B0968B1FBF3F101EB410100E0491E31
:101EB00000910029FBD121688B68DB0503D58B6875
:101EC00023F480738B6021688B68DB075DD0236C03
:101ED00040F20165AB4343F48073236449684905CC
:101EE00005D5216C21F4005141F480512164216C0D
:101EF000C90404D5616C21F00601616400E06064EE
:101F000084F83C00A16B2948274DC863A16B284881
:101F10000864A16B2748C86421686FF0220008603C
:101F20002068416841F0806141602068816841F427
:101F3000807181602168134632464C31A06B00F0FD
:101F4000D7F968681C49C006206806D0884224D1A9
:101F5000816811F0405F13D01FE08842F8D0174A23
:101F6000904203D1D1F80423D206F1D0144A904212
:101F700013D1D1F8041301F01F011029E8D30CE0AC
:101F8000816841F08041816007E0206C40F01000E2
:101F90002064606C40F0010060640020F8BD000027
:101FA000FC03002040420F000023014047180008B6
:101FB000CB180008B518000800200140002101409E
:101FC000002201402DE9F0410446876D00F006FB38
:101FD000064694F835000025022806D0802060656A
:101FE00084F834500120BDE8F0812068016821F0B8
:101FF000160101602068416921F080014161206C77
:1020000008B9A06C20B12068016821F008010160C6
:102010002068016821F0010101600CE000F0DEFAA7
:10202000801B052807D920206065032084F835002F
:1020300084F83450D7E720680068C007EED194F8E0
:102040005C103F208840B860012084F8350084F897
:1020500034500020C7E790F83510022903D08021C2
:10206000416501207047052180F83510006801683E
:1020700021F0010101600020704700002DE9F843C4
:1020800004464FF00009CDF8009063484FF4165114
:10209000A56D0068B0FBF1F72E6894F85C1008207D
:1020A00000FA01F131420FD021680A6852070BD5BE
:1020B0000A6822F004020A6094F85C108840A86064
:1020C000606D40F00100606594F85C104FF001080D
:1020D00008FA01F0304208D021684969090604D5A0
:1020E000A860606D40F00200606594F85C10042008
:1020F0008840304208D021680968890704D5A86063
:10210000606D40F00400606594F85C101020884019
:10211000304218D021680968090714D5A8602068E2
:102120000168490304D50068000308D5A16C07E0E5
:102130000168C90503D4016821F008010160216C20
:1021400009B12046884794F85C102020884030422E
:1021500031D021680968C9062DD5A86094F83500EA
:1021600005282068016806D0490347D500680003A8
:102170001DD4616C1CE021F01601016020684169EA
:1021800021F080014161206C08B9A06C20B1206869
:10219000016821F00801016094F85C103F2088403C
:1021A000A86084F8358084F83490216D1FE0E16BDD
:1021B00009B120468847606D00282BD0606DC007AC
:1021C00014D0052084F835002068016821F0010151
:1021D00001600098401C0090B84203D82068006855
:1021E000C007F6D184F8358084F83490E16C00297A
:1021F00010D001B02046BDE8F04308470168C9058A
:10220000D5D4016821F01001016084F8358084F88C
:102210003490CCE7BDE8F883FC0300202DE9F041C1
:10222000044600F0DBF906465CB1022084F8350074
:10223000002584F834502068016821F00101016014
:102240000DE00120BDE8F08100F0C8F9801B0528F1
:1022500005D920206065032084F83500F2E7206866
:102260000068C007F0D12268116820480140D4E915
:1022700001031843D4E90336334318436369184311
:10228000A3691843E3691843236A18430843616A42
:10229000042903D1D4E90B131943084310602068C3
:1022A0004069666A20F0070130460E430127042882
:1022B0000CD1A06A0643E06A40B12046FFF7CCFB90
:1022C00020B14020606584F83570BAE72068466127
:1022D0002046FFF7ADFB94F85C203F2191408160E0
:1022E000656584F835700020ACE700003F8010F091
:1022F0002DE9F0410446866D90F834000025012850
:102300000DD0012084F8340094F835700020012F9E
:1023100007D084F8340002252846BDE8F081022069
:10232000FBE7022784F8357060652046FFF7BEFBA7
:1023300094F85C103F208840B0602068016841F04C
:1023400016010160206C20B12068016841F008018D
:1023500001602068016841F001010160DCE70000D4
:1023600070B5044600F03AF90546601C02D00448F6
:102370000078044400F032F9401BA042FAD370BD4B
:10238000F003002010B5084C0421204600F014F999
:10239000012807D100220821204600F01AF903493C
:1023A0000120486310BD0000000002400000002032
:1023B000044910B50A68024202D00860FFF7E2FF44
:1023C00010BD0000143C01402DE9F84FDFF8BCA11E
:1023D000002201250AF1040B03264FF00F090BF12F
:1023E000040E00BF0B6805FA02F42340A34270D12B
:1023F0000F7907F00307012F01D0022F16D187684C
:102400004FEA420806FA08FC27EA0C07D1F80CC08C
:102410000CFA08FC4CEA070CC0F808C04768A74350
:102420000C79C4F3001494403C4344600C79E443B9
:10243000A4070AD0C4684FEA420C06FA0CF7BC4362
:102440008F6807FA0CF72743C7600C7904F0030480
:10245000022C12D1D40800EB840CDCF82040570782
:10246000FF0E09FA07F824EA0804D1F8108008FAE8
:1024700007F848EA0408CCF8208004684FEA420CC8
:1024800006FA0CF7BC430F7907F0030707FA0CF7BD
:10249000274307604C6814F4403F70D03C4C2768D9
:1024A00047F480472760246822F0030704F480443F
:1024B0000094384C07EB040CDCF8084897074FEA07
:1024C000177809FA08F7BC43334FB84202D1002706
:1024D00024E054E0314FB84201D101271EE0304FD3
:1024E000B84201D1022719E02E4FB84201D103278B
:1024F00014E02D4FB84201D104270FE02B4FB84212
:1025000001D105270AE02A4FB84201D1062705E08C
:10251000284FB84201D1072700E0082707FA08F73B
:102520002743CCF80878DAF800405746D1F804C0C1
:102530009C435FEACC3C00D51C433C60DBF8004088
:102540005F46D1F804C09C435FEA8C3C00D51C4335
:102550003C60DEF800407746D1F804C09C435FEA57
:10256000CC2C00D51C433C60084F0C373C68D1F89C
:1025700004C09C435FEA8C2C00D51C433C60521C79
:10258000102AFFF42FAFBDE8F88F0000003C014097
:102590004438024000300140000002400004024084
:1025A00000080240000C02400010024000140240EB
:1025B00000180240001C02400069084000D00120C1
:1025C0007047426921EA02030A4043EA02418161FD
:1025D00070470AB1816170470904FBE701488068D0
:1025E00070470000F003002002488168027811441F
:1025F00081607047F00300200B4810B5016841F47A
:1026000000710160016841F480610160016841F47A
:1026100080710160032000F06FF80F2000F006F8D1
:1026200000F024F8002010BD003C024070B50D4DB4
:1026300004464FF47A712878B1FBF0F00A49096832
:10264000B1FBF0F000F00CFB48B9102C07D20022CF
:102650002146501E00F030F800206C6070BD012053
:1026600070BD0000F0030020FC0300200A4808B5FC
:10267000016841F480410160006800F480400090EE
:102680000548001F016841F080510160006800F0BA
:102690008050009008BD000044380240002809DB4B
:1026A00000F01F02012191404009800000F1E0206C
:1026B000C0F8001170470000F0B40E4B1B680C46C8
:1026C000C3F30223C3F10705042D00D90425191D06
:1026D000072901D2002300E0DB1E012606FA05F1DE
:1026E000491E214099409E40761E16403143F0BC61
:1026F00001F025BC0CED00E0064900F00702086877
:102700004FF6FF03184040EA0220034A10430860D6
:10271000704700000CED00E00000FA052DE9F047DD
:102720000E46050065D0DFF81481D8F80000F7B236
:1027300000F00700B04207D288F80070D8F8000017
:1027400000F00700B04254D128683D4C810712D5F3
:10275000400703D5206840F4E05020602878000747
:1027600003D5206840F4604020602068A96820F00C
:10277000F000084320602878C0072DD030496868F1
:102780000839012812D0022813D0032811D0096873
:10279000890700292DDA216821F003010143216016
:1027A000FFF71CFF814641F2883A0EE00968890371
:1027B000EFE709688901ECE7FFF710FFA0EB0901DB
:1027C000514502D90320BDE8F0872068696800F010
:1027D0000C00B0EB810FEFD1D8F80010404601F0AB
:1027E0000701B14207D90770006800F00700B04246
:1027F00001D00120E7E72878400705D52068E9687F
:1028000020F4E050084320602878000706D52068AF
:10281000296920F4604040EAC100206000F038F8E7
:102820002168084AC1F30311515CC8400649086099
:1028300006480068FFF7FAFE0020C4E7003C0240AB
:102840000838024076630008FC030020F4030020EF
:102850000448054900680968044AC1F38221515CB3
:10286000C8407047FC030020083802408663000817
:102870000448054900680968044AC1F34231515CC3
:10288000C8407047FC0300200838024086630008F7
:10289000154810B5006810F00C02144813D0144904
:1028A000042A0FD0082A0ED10F4C241F2268236857
:1028B00002F03F025B0207D52068C0F38810A0FB3E
:1028C000010106E0084610BD2168C1F38811A1FB93
:1028D00000010023FDF7FEFC2168C1F30141491C02
:1028E0004900B0FBF1F010BD083802400024F400AC
:1028F00040787D012DE9F84F04006ED02078DFF894
:102900004C93C007A9F104054AD009F104000168FD
:10291000C1F38101012908D00068C0F381000228B9
:102920000AD1D9F80000400206D52868800337D5BF
:1029300060680028E1D033E06068B0F5803F10D0D7
:10294000B0F5A02F286810D020F4803028602868C7
:1029500020F4802028606068A8B1FFF73FFE06469B
:102960000DE0286840F48030F4E740F480202860CF
:10297000F7E700BFFFF732FE801B642873D8286892
:102980008003F7D50CE0FFF729FE064605E000BFFF
:10299000FFF724FE801B6428F0D828688003F7D452
:1029A0002078DFF8AC8280074FF0000A3ED5A748B8
:1029B000001D016811F00C0F08D00068C0F3810001
:1029C00002280BD1D9F80000400207D428688007FC
:1029D00016D5E068012800D112E033E1E068B8B113
:1029E0000120C8F80000FFF7F9FD064605E000BF2A
:1029F000FFF7F4FD801B0228C0D828688007F7D5B0
:102A00002868216920F0F80040EAC10028600DE044
:102A1000C8F800A0FFF7E2FD064604E0FFF7DEFD80
:102A2000801B02281FD828688007F7D42078000769
:102A300022D5864F87486169703771B101210160E5
:102A4000FFF7CCFD064604E0FFF7C8FD801B022817
:102A500009D838688007F7D50EE0C0F800A0FFF766
:102A6000BDFD064605E082E0FFF7B8FD801B0228A9
:102A70007DD838688007F7D42078400768D5DFF81C
:102A8000CCB100270BF13C0BDBF80000C0000BD4ED
:102A9000DBF8001041F08051CBF80010DBF80000AB
:102AA000012700F0805000906B4E3068C00510D4B4
:102AB000306840F480703060FFF790FD009005E0D2
:102AC000FFF78CFD0099401A022850D83068C005E5
:102AD000F6D55E4EA0686C3601280FD00528306808
:102AE00010D020F001003060306820F00400306029
:102AF000A068B8B1FFF772FD00900FE0306840F0B9
:102B00000100F4E740F004003060F7E7FFF766FDEE
:102B10000099411A41F28830814266D830688007B6
:102B2000F4D50EE0FFF75AFD009007E0FFF756FDE1
:102B30000099411A41F28830814256D830688007A6
:102B4000F4D42FB1DBF8001021F08051CBF8001045
:102B5000A069C8B33D49091D0968C1F38101022973
:102B60004AD00228504607D0C8F8600000E03CE098
:102B7000FFF734FD04463BE04746C8F86000FFF726
:102B80002DFD064605E000BFFFF728FD801B02284B
:102B90002BD828688001F7D4D4E907010843A16A3B
:102BA0002E4A490802EB0141626A41EA8211084358
:102BB00094F82C1040EA0161C9F800100120386631
:102BC000FFF70CFD044606E03EE000BFFFF706FD00
:102BD000001B022809D828688001F7D534E000BF1F
:102BE000FFF7FCFC001B022802D90320BDE8F88F88
:102BF00028688001F4D427E00128F7D0D9F8000034
:102C0000E26900F4800191421CD1226A00F03F0188
:102C1000914217D147F6C071626A0140B1EB821F41
:102C200010D1A26A4FF0FF3300F4403103EB52029F
:102C3000B1EB024F06D194F82C1000F07060B0EBAD
:102C4000016F01D00120D1E70020CFE70438024016
:102C500000004742800E4742007000400000FFFF26
:102C600010B5401EB0F1807F01D3012010BD4FF0A0
:102C7000E02460610F21601701F061F90020A0617C
:102C800007202061002010BD7047704770B590F894
:102C90003C20012A32D0012480F83C40022280F8F6
:102CA0003D2003685A689D6822F070060A68324326
:102CB0005A60134B02689A4214D0B2F1804F11D07F
:102CC000104B9A420ED0104B9A420BD00F4B9A42A7
:102CD00008D00F4B9A4205D00E4B9A4202D00E4BB1
:102CE0009A4204D1496825F080031943916080F825
:102CF0003D40002180F83C10084670BD022070BDA8
:102D0000000001400004004000080040000C0040AA
:102D100000040140004001400018004010B50400CC
:102D200003D094F83D0010B107E0012010BD002051
:102D300084F83C00204600F01FF8022084F83D0093
:102D4000211D206800F012FF012084F8460084F85D
:102D50003E0084F83F0084F8400084F8410084F885
:102D6000420084F8430084F8440084F8450084F865
:102D70003D00002010BD000008B5006817498842DA
:102D80002AD11748016841F0010101600068002262
:102D900000F00100009011461820FFF78DFC18206C
:102DA000FFF77CFC002211461920FFF785FC192053
:102DB000FFF774FC002211461A20FFF77DFC1A2051
:102DC000FFF76CFC002211461B20FFF775FCBDE8E5
:102DD00008401B20FFF762BC08BD00000000014056
:102DE0004438024090F83D10012901D0012070477D
:102DF000022180F83D100168CA6842F00102CA60F1
:102E000000681149884214D0B0F1804F11D00F49A9
:102E100088420ED00E4988420BD00E49884208D015
:102E20000D49884205D00D49884202D00C4988429C
:102E300004D1816801F00701062903D0016841F03F
:102E400001010160002070470000014000040040C3
:102E500000080040000C0040000401400040014018
:102E60000018004070B5044690F83C000025012889
:102E700017D0012684F83C60022084F83D002068C9
:102E8000826822F0770222F47F428260086850282C
:102E900038D00DDC20284FD005DC90B3102811D19C
:102EA0004AE0022070BD302846D040280AD13BE0DD
:102EB00060282FD070280DD0B0F5805F03D0B0F51A
:102EC000005F12D0012584F83D60002084F83C00AA
:102ED000284670BDCB68D1E90121206800F0AAFE28
:102EE0002068816841F0770109E0CB68D1E90121D0
:102EF000206800F09FFE2068816841F48041816075
:102F0000E1E719E0CA684968206800F0A5FE502191
:102F1000206806E0CA684968206800F0AEFE6021BB
:102F2000206800F091FECEE7CA684968206800F08A
:102F300093FE40212068F4E7226801461046F0E73E
:102F4000704770B50446006801694FF00005C94339
:102F5000890715D4C168C943890711D4E91E0161E5
:102F600001202077206880698007204602D0FFF783
:102F7000E7FF04E000F098F8204600F096F8257787
:102F800020680169C943490717D4C168C943490783
:102F900013D46FF00401016102202077206880695A
:102FA00010F4407F204602D0FFF7CAFF04E000F093
:102FB0007BF8204600F079F8257720680169C9433D
:102FC000090716D4C168C943090712D46FF0080174
:102FD0000161042020772068C0698007204602D064
:102FE000FFF7AEFF04E000F05FF8204600F05DF868
:102FF000257720680169C943C90617D4C168C94348
:10300000C90613D46FF010010161082020772068F1
:10301000C06910F4407F204602D0FFF791FF04E022
:1030200000F042F8204600F040F82577206801695A
:10303000C943C90708D1C168C943C90704D1891E5A
:103040000161204600F032F820680169C943090691
:1030500009D4C168C943090605D46FF08001016134
:103060002046FFF711FE20680169C943490609D4CB
:10307000C168C943490605D46FF04001016120468B
:1030800000F09AF920680169C94389060BD4C16828
:10309000C943890607D46FF0200101612046BDE8CD
:1030A0007040FFF7F2BD70BD704770472DE9F04FDB
:1030B000A9492DED048B81B088427DD1A74C40F207
:1030C0001450A062A06B401CA063606A401C606248
:1030D000616B012902D1216A491C2162A0490027A4
:1030E00088420ED39F48FDF79DFA82B29A489D49C7
:1030F000483000F0AFFB4FF480519B48FFF761FA76
:103100006762E16B206A884206D301220821974852
:103110006763FFF75EFA2762A06B14284CDBDFF8C9
:103120004482A8F15808B8F80000A0F2F16002F05B
:10313000CDFC41EC180B08F1300008F1280680EDB9
:10314000008B8B48616896ED000B00EBC10551ECDC
:10315000100B95ED001B53EC112B02F029FF41ECF5
:10316000190B53EC182B51EC180B02F015FD41EC28
:10317000100B51EC190B85ED000B53EC102B02F0EA
:1031800091FA41EC100B86ED000B9FED7A8B53EC1E
:10319000182B02F043FB41EC100B01F009FDA6F1E6
:1031A000080080ED000B9FED751B51EC100B53ECEC
:1031B000112B02F0F1FC00E0C9E09FED721B53EC13
:1031C000112B02F06FFAA6F11002C2E90001B8F863
:1031D000020002F092FC41EC100B06F12800A0F175
:1031E000080580ED000B95ED001B53EC102B51EC06
:1031F000110B02F057FA41EC100B85ED000B6068E3
:10320000401C6060B0F57A7F7DDBAA4653EC182B3A
:1032100051EC100B676002F001FB41EC100BA5F1C3
:10322000080080ED000B9FED591B51EC100B53EC87
:10323000112B02F0F3FA9FED571B53EC112B02F008
:10324000ABFC41EC100B55484FF0010980ED000B31
:103250009FED531BE068DFF85081002853EC112BE1
:1032600051EC100B08F12C054FF0000614D002F0C1
:1032700093FC83460091009941EC10BB51EC100B7C
:1032800002F0DEF9A862012E24DB05EB860090ED4A
:10329000010A80ED000A21E002F07EFC83460091E5
:1032A000009941EC10BB51EC100B02F0C9F948F841
:1032B0002600009941EC10BB51EC100B02F0C0F954
:1032C00045F82600761C0A2EEADD0B20C4F80C9087
:1032D000606137E095ED010A85ED000A761C0A2E43
:1032E000C9DD31482C3001F07BFD10EE100A2F496A
:1032F00084ED040A88424FF00000414615DA00BF11
:1033000005EB800200E021E092ED000A01EB800273
:10331000401C82ED000A0A28F2DD686A02F032FFE2
:10332000104A203AC2E900010CE001EB800292ED64
:10333000000A05EB8002401C82ED000A0A28F4DD39
:10334000C4F808909FED1A0B8AED000BA76301B03B
:10335000BDEC048BBDE8F08FD044002000000020BD
:10336000400D030060010020000C024000000240FC
:10337000000400200000000000408F40992A1895AA
:10338000D409D43FC217265305A3C23F0000000052
:1033900000FCAF4000000000000008404023002077
:1033A000000000000000594080420020CDCCCC3D00
:1033B00000000000000000007047704770470000E8
:1033C000F8B5016804460868CA684B6910F00F0F29
:1033D0004FF0000559D003F0010602F4907737430F
:1033E00065D0C10705D0D10503D5216C41F001019D
:1033F0002164410705D5D90703D0216C41F00201B2
:103400002164810705D5D90703D0216C41F004015F
:103410002164010707D502F02001314303D0216C5C
:1034200041F008012164216C00293AD0800604D5BE
:10343000900602D5204600F061FC20684069216CAE
:10344000C0F38010090700D460B3204600F02FFCC1
:1034500020684069400621D52068143050E8001FDC
:1034600021F0400140E80012002AF5D1A06BA8B17C
:103470006C490165A06BFEF7EEFD002811D0A06B32
:10348000016D01B0BDE8F040084783060FD59306F3
:103490000DD52046BDE8F84000F030BC2046FFF7CF
:1034A0008DFFF8BD2046FFF789FF2564F8BD266B28
:1034B0002023012E79D1C60677D5D60675D50868A2
:1034C000486800904869400640D5A16B086840688C
:1034D0000004000CEAD0A28D8242E7D9E085C869D9
:1034E000B0F5807F2DD020680C3050E8001F21F40B
:1034F000807140E80012002AF5D12068143050E8AD
:10350000001F21F0010140E80012002AF5D12068D7
:10351000143050E8001F21F0400140E80012002A5A
:10352000F5D184F83E30256320680C3050E8001F48
:1035300021F0100140E80012002AF5D1A06BFEF73F
:1035400041FDA08DE18D401A81B229E0A08DE18D71
:10355000401A81B2E08D0028A8D00029A6D02068AA
:103560000C3050E8002F22F4907240E80026002E24
:10357000F5D12068143050E8002F22F0010240E815
:103580000026002EF5D184F83E30256320680C30EB
:1035900050E8002F22F0100240E80023002BF5D164
:1035A0002046FFF70AFFF8BDFFE705062BD51506F5
:1035B00029D594F83D002128F5D1A068B0F5805FA9
:1035C00001D12069B0B1206A411C216221680078D4
:1035D0004860E08C401E0004000CE084E3D12068C9
:1035E000C16821F08001C1602068C16841F04001DC
:1035F000C160D8E7206A0088C0F308004860206AEC
:10360000801C2062E5E74006CDD55006CBD5CA68C0
:10361000204622F04002CA6084F83D3000F039F9BB
:10362000C1E700009F3C000870B5040004D094F886
:103630003D00002510B106E0012070BD84F83C502B
:10364000204600F023F8242084F83D002068C1685B
:1036500021F40051C160204600F0B0FB20680169F0
:1036600021F4904101612068416921F02A01416102
:103670002068C16841F40051C1602564202084F8AD
:103680003D0084F83E00002070BD00002DE9F041AF
:1036900086B0064614216846FDF73AF82F4930688F
:1036A000884257D12E480024016841F02001016072
:1036B000006800F02000059029481438016841F0A6
:1036C000040101600068694600F004000590C02014
:1036D00000900220CDE9010403200390082004900B
:1036E0002048FEF771FE214D1F484FF48068870582
:1036F0002860C5E90174C5E903486C614FF44030A6
:10370000AC61C5E9074028466C62FEF787FD08B149
:10371000FEF7E4F9B563AE631348154D7830E5E87C
:1037200002074020A5E81101114845F81449AC6191
:10373000EC612C626C62FEF771FD08B1FEF7CEF908
:103740007563002211464720AE63FEF7B5FF4720A0
:10375000FEF7A4FF06B0BDE8F081000000140140B0
:10376000443802400008024028640240BC45002062
:103770001C46002090F83E30202B0ED159B152B19A
:1037800090F83C30012B08D0012380F83C30002316
:10379000036300F099BB01207047022070470000CE
:1037A00070B52348FCF73EFF02283FD8022220498B
:1037B0002048FFF7DFFF1E48FCF734FF02461EA13A
:1037C0001B48FCF74EFF1A48FCF7FBFE0025184C7F
:1037D00028280FD0322810D03D2811D00121184BB5
:1037E0000A2812D00B2813D0164B142814D01528F1
:1037F00015D01AE09FED140A04E09FED140A01E0D1
:103800009FED130A84ED0C0A0FE00122E16201E052
:103810000022E562102105E00122E16201E00022C0
:10382000E56280211846FEF7D4FE257070BD0000C9
:1038300000000020184500206C6F6E746F6E6700EA
:1038400000000240001002400000204200004842F8
:103850000000744290F83D30202B18D1A9B1A2B1DC
:1038600090F83C30012B12D001628284C284002186
:103870000164212280F83D2080F83C100068C16876
:1038800041F08001C1600020704701207047022094
:1038900070477047FEE700007FB500251A48009585
:1038A0000195029517490395016001244FF44031B9
:1038B0000461C0E90115047680F820501349C0E97D
:1038C0000A150226C661C56080F830404461FEF7E3
:1038D00050FA08B172B6FEE707200095CDE9014025
:1038E00069460948FEF7FEF808B172B6FEE7CDE971
:1038F000004669460448FEF7F5F8002801D072B684
:10390000FEE77FBD00200140884400200100000F39
:103910002DE9F04387B014216846FCF7F9FE3C48D6
:103920000024016841F080010160016801F080011C
:103930000591016841F001010160016801F0010198
:103940000591016841F010010160016801F010016A
:103950000591016841F008010160016801F008016A
:103960000591016841F0040101600068294F00F0F1
:1039700004000590002218213846FEF72AFEDFF8E1
:103980009880002280214046FEF723FEDFF88C90CD
:1039900044F2FF06002231464846FEF71AFE042094
:1039A00000904FF48810CDE9010469463846FEF7CF
:1039B0000BFD182000900125CDE9015469463846D9
:1039C0000394FEF701FD80200090CDE90154694683
:1039D00040460394FEF7F8FC0096CDE90154694691
:1039E00048460394FEF7F0FC4FF44070CDE9000424
:1039F00069460B480294FEF7E7FC002211460820B6
:103A0000FEF75AFE0820FEF749FE07B0BDE8F08336
:103A1000303802400000024000100240000C02401A
:103A20000008024010B586B00024184800940194A4
:103A30000294039404941449059401602921C0E977
:103A400001140921C0E903148021C0E90541FFF7F1
:103A500065F908B172B6FEE74FF4805000906946F0
:103A60000A48FFF7FFF908B172B6FEE72020CDE95A
:103A7000040404A90548FFF709F9002801D072B62B
:103A8000FEE706B010BD000000000140D044002059
:103A9000FEE7FEE770477047FEF7A6BD30B593B06E
:103AA00030216846FCF734FE14210CA8FCF730FEE8
:103AB0001C480025016841F080510160006800F059
:103AC000805011901848016841F4804101600068FD
:103AD000022400F4804011900120039010200490F3
:103AE000009406940820CDE907505420CDE909043C
:103AF00004200B906846FEF7FDFE08B172B6FEE7A3
:103B00000CA90F2081E831004FF480500F901090E5
:103B100002210CA8FEF702FE002801D072B6FEE7D3
:103B200013B030BD403802400070004002480168C8
:103B300041F470010160704788ED00E00148FFF733
:103B400000BA0000D04400200148FFF7FAB9000095
:103B5000D04400200148FFF7F4B90000D044002011
:103B60000148FFF7EEB90000D0440020F0B502682C
:103B7000254C264D264E274F274B4FF0804CA04218
:103B800009D0604507D0A84205D0B04203D0B84262
:103B900001D0984204D122F0700E4A6842EA0E0227
:103BA000A0421BD0604519D0A84217D0B04215D012
:103BB000B84213D0984211D0184DA8420ED0184DDB
:103BC000A8420BD0174DA84208D0174DA84205D0E7
:103BD000164DA84202D0164DA84203D122F44075DA
:103BE000CA682A434D6922F080022A4302608A682B
:103BF000C2620A688262A04201D0984201D109697A
:103C0000016301214161F0BD00000140000400405A
:103C100000080040000C004000040140004001404A
:103C2000004401400048014000180040001C0040D2
:103C30000020004010B5846842EA032224F47F4447
:103C40000A432243826010BD826822F070020A4358
:103C500042F007018160704710B5036A046A24F0DE
:103C600001040462846924F0F00444EA021423F09D
:103C70000A020A438461026210BD10B5036A23F090
:103C8000100303628369046A23F4704343EA023237
:103C900024F0A00343EA01118261016210BD10B556
:103CA000806B0021C185C184FFF788FB10BD0168CE
:103CB0000C3151E8002F22F4907241E80023002BD0
:103CC000F5D10168143151E8002F22F0010241E8DA
:103CD0000023002BF5D1016B012909D101680C31BA
:103CE00051E8002F22F0100241E80023002BF5D10B
:103CF000202180F83E1000210163704708B590F83C
:103D00003E10222901D0022008BD82684FF4805362
:103D10009A4201D1016921B1816A9A421BD04AB10C
:103D20000AE00268816A5268C2F308020A80816A66
:103D3000891C08E0026972B10268526802F07F02D1
:103D40000A70816A491C8162C18D491E0904090CEF
:103D5000C18503D019E002685268F1E70168CA68BA
:103D600022F02002CA600168CA6822F48072CA6028
:103D700001684A6922F001024A61202180F83E1060
:103D8000016B012903D0FFF70BFD002008BD0021C6
:103D9000016301680C3151E8002F22F0100241E864
:103DA0000023002BF5D101680A68D20602D50A6803
:103DB00049680091818DFFF700FBE6E770B5044686
:103DC00000680169E26821F44051114301612169F1
:103DD000A068E26908436169114308432168CA6821
:103DE00049F20C639A430243CA6020684169A269A0
:103DF00021F440711143416131492068884202D069
:103E00003049884202D1FEF733FD01E0FEF720FD84
:103E1000E2690023192164253226B2F5004F626859
:103E200028D0A0FB0101930F9200FCF753FA014642
:103E3000B0FBF5F06FF01802504301EB800006EB89
:103E40000010B0FBF5F000F0F002B1FBF5F002EB72
:103E50000012B1FBF5F06FF01803584301EB80003E
:103E600006EB0010B0FBF5F000F00F0021681044E5
:103E7000886070BDA0FB010192185B41FCF72AFA33
:103E80000146B0FBF5F00201B1FBF5F06FF018034D
:103E9000584301EB800006EBC000B0FBF5F000F0EA
:103EA000F80002EB4002B1FBF5F0584301EB800053
:103EB00006EBC000B0FBF5F000F00700D6E700000D
:103EC000001001400014014081628285C2850021FA
:103ED0000164222280F83E2080F83C100168CA6804
:103EE00042F48072CA6001684A6942F001024A6184
:103EF0000068C16841F02001C160002070470000E7
:103F00000148FFF75DBA000018450020FEE703B442
:103F100001984100009850EAC12018BF04204A0DC2
:103F200018BF40F0010040F2FF72B2EB515F08BFD2
:103F300040F00200012808BF052002B070470907C1
:103F4000090E002804DB00F1E02080F8001470471F
:103F500000F00F0000F1E02080F8141D7047000011
:103F60002DE9F04D2DED040B2DED0E8B96B0DDE916
:103F70002550279CDDF890A025F0004624F000484D
:103F8000BAF1000F14BF0121002101EB4502FC49E9
:103F900053184A1093422AD3002814BF0123002348
:103FA00003EB44030B44F7498B4220D358EA00014A
:103FB0009FEDF59B76D0DFF8D8B35D4503D1BAF11C
:103FC000000F05D188E0BAF1000F08BF002100D032
:103FD000012101EB450111F5001F08D8002814BF8D
:103FE0000121002101EB440111F5001F0BD99DEDCA
:103FF000261B9DED240B16B0BDEC0E8B04B0BDE866
:10400000F04D00F0A9BE0027002DBCBFE149884556
:1040100021DAE1498845A8BF02271CDAC3451ADC2A
:10402000DE4901EB2851142908DDC1F1340220FAE0
:1040300002F101FA02F282420DD108E058B9C1F151
:10404000140228FA02F101FA02F2424503D101F00A
:104050000101C1F1020756EA0A0124D1002C22DA3B
:10406000002D18BF022F01D0012F0AD00220FCF72B
:1040700082FB16B0BDEC0E8B04B0BDE8F04D00F035
:1040800053BE0220FCF777FB00F04EFE51EC100B04
:1040900001F0CAFA41EC100B16B0BDEC0E8B04B067
:1040A000BDE8F08D18E09FEDBEAB9FEDBF8B002803
:1040B00071D1B848804522D105F1804010F58010BB
:1040C00008BFBAF1000F07D0B3450ADC002CA8BF27
:1040D0009DED260BE0DA0DE0B0EE490AF0EE690A3C
:1040E000DAE7002C06DA9DED260B51EC100B01F0FF
:1040F0009BFA6FE0AE48784490ED000BCCE7D845D2
:104100004DD1002C48DA2EB186423AD1BAF1000FD7
:1041100042D126E0BAF1000F13D00220FCF72BFBAE
:1041200000F036FE8DED020B9DED240B8DED000BA6
:1041300010EE900A039961F31E0003909DED020BAF
:10414000AAE78DED02AB9DED240B1AEE901A10EE4E
:10415000900A8DED000B61F31E0003909DED020BA4
:104160009AE78DED028B9DED240B18EE901A10EE60
:10417000900A8DED000B61F31E0003909DED020B84
:104180008AE709DA9DED240B51EC190B53EC102B47
:1041900001F044FB1EE020E09DED240B7CE786420D
:1041A0001BDAB4F1804F0DD0A4F10050B0F1FF50F4
:1041B00013D1002D11DB9DED240B51EC100B01F000
:1041C000C8F907E09DED240B53EC102B51EC100BBC
:1041D00000F0C2BC41EC100B5EE79DED240B51ECEE
:1041E000100B00F055FEBAF1000FCDE90E0142D1DF
:1041F0009FED710B46B3A6F1E040B0F17F600CD0AB
:104200005E4538D1002D00DAA7B3022F0CBF012084
:104210004FF0FF3001F05AFCDCE7002D01DD002CEF
:104220000DDA002D01DD002C1FDB002D16DA002C2D
:1042300014DB012F08BF9FED620B3FF42DAFB0EEF2
:104240004A0AF0EE6A0A27E7022F18BF002D0CD0A9
:10425000012F0AD1002DFFF61FAF06E0002DB8BFD9
:10426000002C08DA012F3FF417AFB0EE480AF0EE49
:10427000680A11E71BE0012000EBE57050EA070136
:1042800015D0791EB0EE498AF0EE698A084308BF5E
:104290009FED4D8B4E480025804570DD4D494E48C1
:1042A000884514DDB0420DDB002C19DB2FE0012026
:1042B000FCF761FA16B0BDEC0E8B04B0BDE8F04D12
:1042C00000F056BDB34502DC002C09DC1FE086423D
:1042D00002DA002C1BDA03E05E452BDD002C16DD34
:1042E0000220FCF748FA00F053FD8DED020B53EC71
:1042F0001A2B51EC180B01F04FFCCDE9000103998A
:10430000019861F31E0003909DED020BC4E60220AC
:10431000FCF731FA00F04CFD10EE901A18EE900AFE
:104320008DED020B8DED008B61F31E0003909DED72
:10433000020BB1E69DED0E0B53EC192B51EC100B5B
:1043400001F036FE9FED260BCDE9080153EC102B52
:104350009DED080B51EC100B01F01EFC9FED221B94
:1043600053EC112B01F04CFD9DED081B53EC112B70
:1043700001F012FC9FED1E1B53EC112B3CE08CE076
:10438000FFFF1F00FFFF0F00000000000000F03FD4
:104390000000F03F0000F07F0000404301FCFFFF01
:1043A000000000000000F07F00000000000000009E
:1043B0001E2300000000000000000000000000803C
:1043C000000000000000F0FF000000000000F0BF4F
:1043D0000000E0410000F043FFFFEF3F000000005D
:1043E000000000000000D03F555555555555D53FAC
:1043F000000000000000E03F01F002FD9DED080B11
:1044000041EC1A0B53EC102B51EC100B01F0C4FBD8
:1044100053EC1A2B01F0C0FB41EC1A0B9FEDFE0B85
:1044200053EC102B9DED080B51EC100B01F0B4FB7D
:1044300041EC1B0B9FEDFA0B51EC1A0B53EC102BBC
:1044400001F0AAFB41EC1A0B9FEDF70B53EC102B7C
:104450009DED080B51EC100B01F09EFB53EC1A2B59
:1044600001F0A6FD41EC1A0B51EC1B0B53EC1A2B7F
:1044700001F018F90690CDE906519DED060B53ECBD
:104480001B2B51EC100B01F093FD53EC1A2B01F098
:10449000B7FC41EC100B00F0A1B90020B6F5801F6D
:1044A0000EDA9FEDE30B53EC102B9DED0E0B51EC50
:1044B000100B01F071FBCDE90E016FF034000E46D8
:1044C00000EB2650A0F2FF37C6F31300DA4940F0A4
:1044D0007F6646F040568842D8BF002408DDD749A1
:1044E0008142C8BF012403DC0024A6F580167F1C8E
:1044F000D348784400EBC4000F9690ED00CB9DEDBF
:104500000E0B53EC1C2B51EC100B01F051FD9DEDEB
:104510000E0B41EC1B0B53EC1C2B51EC100B01F060
:10452000C1F841EC100B51EC190B53EC102B01F0BE
:1045300075F941EC1D0B51EC1B0B53EC1D2B01F0DD
:104540002BFB41EC1A0BBF488DED10AB7844109556
:1045500090ED000B4FF0005040EA660000EB844005
:104560008DED080B00F5002009909DED080B53EC34
:104570001C2B51EC100B01F01BFD9DED0E1B53ECA1
:10458000112B01F03DFC41EC100B53EC102B9DED79
:10459000100B51EC100B01F0FFFA9DED080B41ECF4
:1045A0001C0B53EC102B9DED100B51EC100B01F07C
:1045B000F3FA53EC1B2B01F023FC53EC1C2B01F002
:1045C000F7FC53EC1D2B01F0E7FA41EC1C0B53EC0C
:1045D0001A2B51EC1A0B01F0DFFA41EC1B0B9A4835
:1045E0000621B0EE4B0AF0EE6B0A784400F01DFB9A
:1045F000B0EE401AF0EE601AB0EE41DAF0EE61DA99
:1046000053EC1B2B51EC1B0B01F0C6FA53EC1D2B8A
:1046100001F0C2FA9DED100B41EC1B0B53EC1A2B71
:1046200051EC100B01F03EF853EC1C2B01F0B4FAE6
:1046300053EC1B2B01F036F89DED100B41EC1B0BDE
:1046400053EC102B51EC100B01F0A6FA41EC1D0BB2
:104650009FED7FEB53EC1E2B01F024F853EC1B2B4A
:1046600001F020F80890CDE908519DED080B53ECBE
:104670001E2B51EC100B01F09BFC53EC1D2B01F099
:1046800097FC53EC1B2B01F0BBFB9DED080B41ECA1
:104690001D0B53EC102B9DED100B51EC100B01F08A
:1046A0007BFA41EC1B0B53EC1A2B51EC1D0B01F068
:1046B00073FA9DED080B41EC1A0B53EC102B51ECE7
:1046C0001C0B01F069FA53EC1A2B00F0EBFF41ECE4
:1046D0001A0B51EC1B0B53EC1A2B00F0E3FF0C9060
:1046E000CDE90C519DED0C0B53EC1B2B51EC100B39
:1046F00001F05EFC53EC1A2B01F082FB41EC1B0B2A
:104700009FED550B53EC102B9DED0C0B51EC100B4A
:1047100001F042FA41EC1A0B9FED510B51EC1B0BCF
:1047200053EC102B01F038FA41EC1B0B9FED4E0BB4
:1047300053EC102B9DED0C0B51EC100B01F02CFAEF
:1047400053EC1B2B00F0AEFF41EC100B48487844B3
:1047500000EBC40090ED001B51EC100B53EC112B3F
:1047600000F0A0FF41EC1B0B384601F0AFF9CDE99A
:10477000080153EC1B2B51EC1A0B00F093FF41EC9A
:10478000100B3C48784400EBC40090ED00CB51EC9A
:10479000100B53EC1C2B00F085FF9DED081B53EC18
:1047A000112B00F07FFF0690CDE906519DED080B1F
:1047B00053EC102B9DED060B51EC100B01F0F8FBA8
:1047C00053EC1C2B01F0F4FB53EC1A2B01F0F0FB23
:1047D00053EC1B2B01F014FB41EC100B9DED261B41
:1047E00053EC102B8DED001B00959DED260B51EC2D
:1047F000100B01F0D1F99DED000B41EC1A0B53ECBD
:10480000102B9DED260B51EC100B01F0D1FB9DED13
:10481000061B53EC112B2FE0000000604715F73FFB
:10482000FE822B654715F73F44DF5DF80BAE543E23
:1048300000000000000040438E9803007AB60B0091
:104840009A1E0000C81E0000D21D000000000000DB
:104850000000000000000840000000E009C7EE3F33
:10486000FD033ADC09C7EE3FF5015B14E02F3EBEC5
:104870005E1C0000181C000001F08EF953EC1A2B8E
:1048800000F010FF9DED060B41EC1A0B53EC102BC2
:104890009DED000B51EC100B01F07EF9CDE90C0100
:1048A0009DED0C0B51EC1A0B53EC102B00F0FAFEA3
:1048B000CDE902010C46AA498C422FDB611A08435C
:1048C00018D19DED0C0B53EC102B9DED020B51EC10
:1048D000100B01F06DFB41EC1B0B9FEDA30B51EC9A
:1048E0001A0B53EC102B00F0DDFE53EC1B2B01F0E8
:1048F00051FA2DD20220FBF73EFF00F049FA10EEEC
:10490000901A18EE900A8DED020B8DED008B61F37D
:104910001E0003909DED020BFFF7BEBB944A24F0EE
:104920000041914214D39349214408437FF4EFACF2
:104930009DED0C0B53EC102B9DED020B51EC100B6D
:1049400001F036FB53EC1A2B01F024FA7FF6DFACB2
:1049500024F000408849894A002601EB2051824218
:104960002BDA481C4FF4801121FA00F02044844ACD
:10497000C0F30A517A44A1F2FF3192ED000B814A53
:104980008DED080BCA4020EA0202C0F3130040F488
:104990008010C1F1140120FA01F60992002CB8BF71
:1049A00076429DED080B53EC102B9DED0C0B51EC5A
:1049B000100B01F0FDFACDE90C019DED0C0B51EC53
:1049C0001A0B53EC102B00F06DFE9FED6F0B08904F
:1049D000CDE9085153EC102B9DED080B51EC100B59
:1049E00001F0DAF841EC1B0B9FED690B53EC102B37
:1049F0009DED080B51EC100B01F0CEF89DED0C0B6A
:104A000041EC1C0B53EC102B9DED080B51EC100BE3
:104A100001F0CEFA53EC1A2B01F0F2F99FED5E1B78
:104A200053EC112B01F0B8F853EC1C2B00F03AFEBC
:104A300041EC1A0B51EC1B0B53EC1A2B00F032FE1D
:104A4000CDE902019DED020B53EC1B2B51EC100B39
:104A500001F0AEFA53EC1A2B01F0D2F99DED020BE6
:104A600041EC1A0B53EC102B51EC100B01F094F8A5
:104A7000CDE908014A489DED080B0521784400F076
:104A8000D4F89DED081B51EC100B53EC112B01F0E9
:104A900083F89DED021B53EC112B01F0B1F9CDE928
:104AA00006019DED020B53EC1A2B51EC100B01F09B
:104AB00073F853EC1A2B00F0F5FD9FED3B0B41EC26
:104AC0001A0B53EC102B9DED060B51EC100B01F063
:104AD0006FFA9DED060B41EC1B0B53EC102B9DED7B
:104AE000020B51EC100B01F057F853EC1B2B00F0AC
:104AF00095FE53EC1A2B01F05BFA9DED021B53EC73
:104B0000112B01F055FA53EC192B01F079F9CDE98D
:104B1000020101EB065001150029C8BF039015DC06
:104B20009DED020B324651EC100B01F0DAFBFFF762
:104B3000EEF9042808BF00F03BF932469DED020B68
:104B400051EC100B01F0CDFBCDE902019DED020B04
:104B500051EC180B53EC102B01F01EF8FFF73ABB89
:104B60000000904000000000FE822B654715973C36
:104B700000CC904000346F3F01FCFFFF0000E03F9D
:104B8000A01A0000FFFF0F0000000000432EE63FC8
:104B9000396CA80C615C20BEEF39FAFE422EE63F6C
:104BA000701900000000000000000000000000403C
:104BB00000B52DED048BB0EE409AF0EE609A83B014
:104BC00051EC190B01F028F941EC180B18EE100A02
:104BD00018EE901A8DED008B002818BF01200843B5
:104BE00020F00040C0F17F6000F1E040C00F14D021
:104BF00019EE101A19EE900A8DED009B002918BFCE
:104C00000121084320F00040C0F17F6000F1E04046
:104C1000C00F04BF0120FBF7AEFDB0EE480A03B0A1
:104C2000F0EE680ABDEC048B00BD70B504462DEDB6
:104C3000028B4D1E00EBC500B0EE408AF0EE608A9C
:104C400090ED000B35F0060017D053EC182B51EC0B
:104C5000100B00F0A1FF41EC100B6D1E04EBC50022
:104C600090ED001B51EC100B53EC112B00F01AFDD2
:104C700041EC100B35F00600E7D1022D36D0042DA3
:104C80001CD0062D1CBFBDEC028B70BD53EC182B45
:104C900051EC100B00F080FF94ED0A1B53EC112B2C
:104CA00000F000FD53EC182B00F076FF94ED081B8C
:104CB00053EC112B00F0F6FC41EC100B53EC182BCD
:104CC00051EC100B00F068FF94ED061B53EC112B18
:104CD00000F0E8FC53EC182B00F05EFF94ED040BA1
:104CE00053EC102B00F0DEFC41EC100B53EC182BB6
:104CF00051EC100B00F050FF94ED021B53EC112B04
:104D000000F0D0FC53EC182B00F046FF94ED001B94
:104D100053EC112B00F0C6FCBDEC028B41EC100BE8
:104D200070BD0000000000009FED070B10B553ECB4
:104D3000102B9FED070B51EC100B00F06FFD41ECB9
:104D4000100B10BD0000000000000000000000007B
:104D5000000000000000F03F10B553EC112B51ECA7
:104D6000100B00F09FFC41EC100B10BD0000000088
:104D70009FED050B10B553EC102B51EC100B00F010
:104D80004DFD41EC100B10BD0000000000000000C4
:104D90009FED050B10B553EC102B51EC100B00F0F0
:104DA000FBFE41EC100B10BD000000000000007085
:104DB0009FED050B10B553EC102B51EC100B00F0D0
:104DC000EBFE41EC100B10BD0000000000000010D5
:104DD00030380A2801D201207047002070470000B7
:104DE00070B59FED280A05462DED088BB0EE408A80
:104DF0005FF0000105EB8100491CD0ED000A0A2993
:104E000030EE800AF6DBF2EE048A9FED1F9B80EE07
:104E100028AA002405EB840090ED000A30EE4A0A2F
:104E200010EE100A01F0AEF941EC100BB0EE491A89
:104E3000F0EE691AFFF794F8B0EE40BAF0EE60BAFF
:104E400018EE100A01F09EF953EC1B2B00F02AFC1F
:104E500000F0F6FB08EE100A641C0A2CDADB88EE80
:104E6000280A10EE100A01F08DF941EC100BFFF743
:104E70009FFE51EC100B00F0E3FBBDEC088B00EE45
:104E8000100A70BD0000000000000000000000409B
:104E900082B0CDE9000121F0004001909DED000BB2
:104EA00002B051EC100B704770B5FDEEC00A04461D
:104EB0002DED048B10EE900A0D46002200EE900AB4
:104EC0002146F8EEE00A30EE608A00F033F806463C
:104ED000002D27D02E20A055284600F0F7FD41ECEC
:104EE000110B9FED120BFFF73BF8B0EE409AF0EE7E
:104EF000609A18EE100A01F045F953EC192B00F0F6
:104F00004BFE00F09DFB00EE100ABDEC048BA119D6
:104F10002A46BDEEC00ABDE8704010EE100A491CDA
:104F200000F008B8BDEC048B70BD0000000000006C
:104F30000000244030B50D4600240A2109E000BFDE
:104F400090FBF1F301FB130390FBF1F030332B5591
:104F5000641C0028F4D13020944202DA2855641CE5
:104F6000FAE72146284600F0E7FA002028552046B7
:104F700030BD10B50446000900F09CF804F00F00A5
:104F800000F098F8BDE81040322000F019BB10B5D1
:104F90000446000900F0A4F804F00F0000F0A0F8A7
:104FA000BDE81040322000F00BBB000010B5084CEB
:104FB000012204212046FDF70CFB0A2000F000FB33
:104FC00020460022BDE810400421FDF702BB00008E
:104FD000000C024070B50D460446002201210B482A
:104FE000FDF7F7FA5DB1012D0BD0022D0BD0032D8B
:104FF0000BD1D434E0B2BDE87040FFF7BABF8034C3
:10500000F8E7C034F6E79434F4E770BD000C0240D2
:10501000F0B585B001240325002603950094244FA4
:10502000CDE9014669463846FDF7CEF902200395E1
:105030008DE8510069463846FDF7C6F9042003950E
:105040008DE8510069463846FDF7BEF9F02003951A
:105050008DE8510069463846FDF7B6F90022022175
:105060003846FDF7B6FA00F05BF82820FFF781FF1D
:105070004FF47A74204600F0A3FA0C20FFF779FF72
:10508000204600F09DFA0620FFF773FF204600F04F
:1050900097FA0120FFF76DFF6400204600F090FAB8
:1050A0008020FFF766FF204600F08AFA05B0F0BDC9
:1050B000000C024010B50446002201210748FDF70C
:1050C00088FA06481430016821F0F00141EA041121
:1050D0000160BDE81040FFF769BF0000000C02400E
:1050E00010B50446012211460748FDF772FA06483A
:1050F0001430016821F0F00141EA04110160BDE8BB
:105100001040FFF753BF0000000C024010B50446EA
:1051100002E0641CFFF73BFF20780028F9D110BDA6
:10512000194810B5016841F0F0010160164C0122E8
:10513000143C11462046FDF74CFA0122042120467A
:10514000FDF747FA44F6206000F03AFA0320FFF733
:10515000B1FF43F6982000F033FA0320FFF7AAFFCF
:1051600041F28834204600F02BFA0320FFF7A2FF1B
:10517000204600F025FA0220FFF79CFF2046BDE8FC
:10518000104000F01DBA0000140C024008B5FDF7F5
:1051900033FAFEF783FCFEF7BBFBFEF743FCCD487A
:1051A0000024016841F4800101600068224600F497
:1051B0008000009021463820FDF77EFA3820FDF768
:1051C0006DFA002211463920FDF776FA3920FDF7F5
:1051D00065FA002211464520FDF76EFA4520FDF7DD
:1051E0005DFAFEF759FBBD48BB4901604FF416510B
:1051F000C0E901140C21C460C0E904418461C461A8
:10520000FEF712FA08B172B6FEE7FFF701FFB348E6
:105210004838FDF7E7FDB1480222B1499038FCF764
:1052200027FE01228021AF48FDF7D3F90222AE49C3
:10523000AA48FEF79FFAAA4905225831A748FEF767
:1052400009FBA94CDFF8A4924FF4807A4FF4007B5D
:1052500004F5A07804F58075574651464E464846F9
:10526000FDF7AAF9012811D016E0E26BA0A1521CAB
:10527000A248E263FBF7A6F83220FDF771F803219C
:105280000020FFF7A7FE9D48FFF740FF3946304654
:10529000FDF792F90128E8D05F4659463046FDF700
:1052A0008BF9012811D016E0E26B91A1521E9348B0
:1052B000E263FBF787F83220FDF752F80321002064
:1052C000FFF788FE8D48FFF721FF39463046FDF78E
:1052D00073F90128E8D0E0690028206B7DD000F048
:1052E00051FF98ED001B53EC112B00F061FE00F014
:1052F000A7F9686194ED040A84ED100A286180A181
:105300007E48FBF75FF800210846FFF763FE7FA0A9
:10531000FFF7FCFE724E82A11836784896ED000B1E
:1053200053EC102BFBF74EF84FF49670FDF718F87E
:1053300001210020FFF74EFE7048FFF7E7FE96EDD3
:10534000000B51EC100B00F07BF900EE100A6B48DB
:1053500002210F30FFF7A8FD98ED000B474653ECF4
:10536000102B72A16548FBF72DF802210020FFF7F2
:1053700031FE6248FFF7CAFE5DA16048E26BFBF7B1
:1053800021F803210020FFF725FE5C48FFF7BEFE51
:1053900096ED000B51EC100B00F052F900EE100AE4
:1053A000022106F1C100FFF77FFD97ED000B51ECE4
:1053B000100B00F045F900EE100A022106F1B200D0
:1053C000FFF772FD022106F1D00094ED060AFFF707
:1053D0006BFD022106F1DF0000E06CE095ED040AB0
:1053E000FFF762FD042106F5A17094ED100AFFF7A6
:1053F0005BFD022106F2A51095ED030AFFF754FDAF
:1054000006F1A301A1F16300FBF7E8F806F50271CC
:10541000A1F5E470FBF770F906F1B201A1F1720099
:10542000FBF76AF906F50271A1F5E470FBF764F980
:1054300006F1C101A1F18100FBF75EF906F50271E9
:10544000A1F5E470FBF758F906F1D001A1F1900045
:10545000FBF752F906F50271A1F5E470FBF74CF980
:1054600006F1DF01A1F19F00FBF746F906F5027195
:10547000A1F5E470FBF740F906F5A171A1F5817083
:10548000FBF73AF906F50271A1F5E470FBF734F980
:1054900006F2A511A1F26510FBF72EF906F50271CF
:1054A000A1F5E470FBF728F906F21721A1F2D71055
:1054B000FBF722F9D0E600F065FE98ED001B53ECF7
:1054C000112B00F075FD00F0BBF828610120E061B0
:1054D00015E7000030380240001401401845002054
:1054E00008010020001002400000002000080240D7
:1054F000636F756E7465723A25346400D84200207B
:10550000666972696E673A3930000000756A692011
:10551000506572686974756E67616E204649530004
:1055200056726D733A25332E3566000053756875D3
:105530003A25332E3566000010B50022491E05E0DD
:10554000835C445C84544354491E521C8A42F7DBFA
:1055500010BD00B52DED048B83B041EC190B00F0AC
:105560005BFC41EC180B18EE100A18EE901A8DED4A
:10557000008B002818BF0120084320F00040C0F134
:105580007F6000F1E040C00F14D019EE101A19EE40
:10559000900A8DED009B002918BF0121084320F0DF
:1055A0000040C0F17F6000F1E040C00F04BF012067
:1055B000FBF7E1F851EC180B03B0BDEC048B00BD18
:1055C00000EB401101EBC010401EFDD270470000FF
:1055D00010B500290AD00878002807D0054878447B
:1055E000FBF722FD002801D0002010BD02487844BE
:1055F00010BD0000F60E0000EE0E000010B50029F0
:105600000AD00878002807D005487844FBF70CFD3D
:10561000002801D0002010BD0248784410BD0000D1
:10562000E60E0000DE0E000081F00041704780F0C1
:105630000040704721F00041704720F00040704763
:1056400021F00042A2F16052B2F5801F01F0004348
:1056500028BFD2F17F6C0BD95FEA001C43EAC2027B
:1056600042EB507018BF704728BF20F00100704710
:10567000B2F5801FBCBF184670474FEA410C1CF5BD
:10568000001F02D2084600F0F3BD70B500F02EFBFB
:1056900000000089FFF7F6BF4FF00040A0F5800042
:1056A0007047000010B591EA030F48BF83F0004334
:1056B00000F18684841A71EB030C05D2121943EBB6
:1056C0000C03001B61EB0C01DFF824E14FEA1154DD
:1056D000A4EB135C1EEA430F18BF9EEA445F73D02D
:1056E00023EA0E03DCF1200E21EA045143F4801377
:1056F00032D322FA0CFE10EB0E0023FA0CFE41EB23
:105700000E01CCF1200E03FA0EFE10EB0E0051F14B
:105710000001B1F5801FCCF1200E32D201EB045113
:1057200012FA0EF2BDE8104058BF7047401C38BF57
:105730005FEA420218BF7047002814BF20F0010042
:1057400041F100014FEA410313F5001F38BF7047D4
:10575000A1F1C04100F018BB012A43EB0302ACF1F8
:10576000200CDCF11F0E32BF4FF0000E23FA0CF3B9
:1057700010EB030041EB0451B4EB115FD0D0A1EB6F
:10578000045101F5801149085FEA300001EB045132
:105790000ED350F1000038BF12FA0EFE08D1BDE85A
:1057A0001040C9E7401C38BF5FEA4202CAD1C3E7D4
:1057B000BDE810404FEA410313F5001F38BF7047A2
:1057C000A1F1C04100F0E0BA9EEA445F08D011EABE
:1057D0005E0FBDE8104004BF01F00041002070479B
:1057E000BDE8104070B500F081FA00BF64FBBE3E1A
:1057F0000000E0FF02494FF0000000F040BD00BF94
:105800000000F87F491058BFC1F140415B1058BFFC
:10581000C3F140438B42EFF3008070472DE9C04154
:1058200030B4DFF8A0C23CEA111418BF3CEA1314EC
:1058300000F0EC8081EA03051CEA111444EAD574F7
:1058400018BF1CEA131500F0C780A4EB05044FF045
:10585000004545EAC12145EAC32341EA505143EAE4
:10586000525304F17F74994204F500344FEAC0208A
:105870004FEAC22208BF904200F09C804FEA1365B5
:105880000FF24016765D4FEA134506FB05F7C7F1A8
:10589000807706FB07F74FEAD737A7FB0368764206
:1058A000C8F58038A7FB06CE38BFA8F1010807FB72
:1058B00008E64FF0000EA6FB028CE6FB03CEDCF1FF
:1058C000000CCEF1004E38BFAEF1010EA6FB0C5815
:1058D0004FF000074FF00005E6FB0E87A1FB08C65E
:1058E000A0FB07CE16EB0E0645F10005E1FB0765B0
:1058F00015F1E04E7EBFA4F580345FEA46066D41A7
:1059000016F1800745F100054FEA17274FEA0666B2
:1059100047EA0567A6F1DE46B6F1805F4FEA152536
:105920001FD9384624F0010C05EBC471BCF1FE6FA1
:1059300001EB0C1102D8F0BCBDE8008124425CBF31
:1059400001F5801E9EEAC47F02D4F0BCBDE8008150
:10595000244238D4F0BCA1F1C041BDE8004100F0C0
:1059600013BA4FEAD22242EA43524FEAD323A7FBAB
:1059700002864FEAD02040EA415007FB03661EEA48
:105980000E0F4FEAD12105FB026658BFA6EB005669
:10599000B6EB00564FEA520E4EEAC37E18EB0E0EDF
:1059A00056EB530EBDD518EB02085E417F1C55F136
:1059B0000005B6E74FF480154FF000074FF00006E2
:1059C0004FF00008ADE7F0BC4FF0000001F1C0411E
:1059D00001F00041BDE8008111EA0C1F0CEA13152B
:1059E00000D00CE013EA0C1F00F025804FF00000FF
:1059F000F0BC81EA030101F00041BDE80081F0BC88
:105A0000BDE8004181EA030100F0BEB9F0BCBDE889
:105A1000004170B500F06AF9097EFC3E00F007B85D
:105A200081EA03014FF0000001F00041704781EA74
:105A3000030100F0A9B9F0BCBDE800414FF000003F
:105A400021497047FFFDFBF9F7F5F4F2F0EEEDEBBD
:105A5000E9E8E6E4E3E1E0DEDDDBDAD8D7D5D4D36C
:105A6000D1D0CFCDCCCBCAC8C7C6C5C4C2C1C0BFB8
:105A7000BEBDBCBBBAB9B8B7B6B5B4B3B2B1B0AFBE
:105A8000AEADACABAAA9A8A8A7A6A5A4A3A3A2A1A2
:105A9000A09F9F9E9D9C9C9B9A999998979796955D
:105AA00095949393929191908F8F8E8E8D8C8C8BF9
:105AB0008B8A898988888787868585848483838281
:105AC000828181800000FF070000F87F10F0004213
:105AD00048BF4042B0FA80F310FA03F10AD0C3F194
